:100000000C943C010C946D010C946D010C946D01E9
:100010000C946D010C946D010C946D010C946D01A8
:100020000C946D010C946D010C946D010C946D0198
:100030000C946D010C946D010C946D010C946D0188
:100040000C946D010C946D010C946D010C946D0178
:100050000C946D010C946D010C946D010C94D00501
:100060000C946D010C949A050C9470050C946D0120
:100070000C946D010C946D010C946D010C946D0148
:100080000C946D010C946D010C946D010C946D0138
:100090000C943A050C9410050C946D010C946D01B0
:1000A0000C946D010C946D010C946D010C946D0118
:1000B0000C946D010C946D010C946D010C946D0108
:1000C0000C946D010C946D010C946D010C946D01F8
:1000D0000C946D010C946D010C946D010C946D01E8
:1000E0000C946D010C9424030C946B030C94710319
:1000F0000C94B5010C9462040C9467030C944503B2
:100100000C9455020C9454040C944A040C94180456
:100110000C941F030C9400040C9468040C945D036D
:100120000C94E2010C943E030C944B030C943603A4
:100130000C9444040C9459030C9455030C9405023C
:100140000C942A040C9475030C940A040C94130266
:100150000C9442030C943A030C941A060C94A202D9
:100160000C9442040C944F030C94F1010C9463031F
:1001700000000A0B02090C0D0E0807030401000021
:10018000000000000000000000000000000000006F
:10019000000000000000000000000000121110002C
:1001A000000000000000000000000000000000004F
:1001B00000000000000000002200250028002B00A5
:1001C0002E003100340002010000050108010B017E
:1001D00000002100240027002A002D0030003300F9
:1001E00001010000040107010A01050505050705D5
:1001F00008080808020202020A0A080804040404A3
:1002000001010101010101010303030303030303CE
:10021000040707070C0C0C0C0C0C0C0C020202025D
:1002200006060606060606060B0B0B0B0B0B0B0B46
:1002300001021020200808102040102040800201F8
:1002400002010804020101020408102040808040DD
:1002500020100804020180040201804020100804DC
:10026000020108040201010204081020408001027A
:100270000408102040801A0611241FBECFEFD1E2DF
:10028000DEBFCDBF00E00CBF12E0A0E0B2E0E4E9C9
:10029000F0E100E00BBF02C007900D92A231B10760
:1002A000D9F723E0A2E1B2E001C01D92AA38B2075B
:1002B000E1F711E0CCE3D1E000E006C021970109AD
:1002C000802FFE010E940A08CB33D10780E0080787
:1002D000A9F70E94D4060C9448080C94000090E002
:1002E000FC01E05DFD4F249186519E4FFC018491FD
:1002F000882399F090E0880F991FFC01E053FE4F8E
:10030000A591B491FC01EA54FE4F859194918FB769
:10031000F894EC91E22BEC938FBF0895FC01A08937
:10032000B18982E08C93A485B5851C92A685B7859A
:100330008FEC8C93108EA489B58986E08C93A2896A
:10034000B3898C9180618C93A289B3898C918860E8
:100350008C93A289B3898C9180688C930288F389ED
:10036000E02D80818F7D80830895AF92BF92CF92E0
:10037000DF92EF92FF920F931F93CF93DF936C0165
:100380007B018B01040F151FEB015E01AE18BF0846
:10039000C017D10759F06991D601ED91FC910190F8
:1003A000F081E02DC6011995892B79F7C501DF9100
:1003B000CF911F910F91FF90EF90DF90CF90BF9062
:1003C000AF900895FC01538D448D252F30E0842F8C
:1003D00090E0821B930B541710F0CF96089501976D
:1003E0000895FC01918D828D981761F0A28DAE0F5A
:1003F000BF2FB11D5D968C91928D9F5F9F73928FE1
:1004000090E008958FEF9FEF0895FC01918D828D0C
:10041000981731F0828DE80FF11D858D90E00895D9
:100420008FEF9FEF0895FC01918D228D892F90E031
:10043000805C9F4F821B91098F73992708958CE1EF
:1004400092E00E94130221E0892B09F420E0822F20
:10045000089589EB92E00E94130221E0892B09F4B0
:1004600020E0822F0895FC01A48DA80FB92FB11DA3
:10047000A35ABF4F2C91848D90E001968F739927DA
:10048000848FA689B7892C93A089B1898C918370B8
:1004900080648C93938D848D981306C00288F389B1
:1004A000E02D80818F7D80830895EF92FF920F93DE
:1004B0001F93CF93DF93EC0181E0888F9B8D8C8D10
:1004C00098131AC0E889F989808185FF15C09FB704
:1004D000F894EE89FF896083E889F98980818370C7
:1004E000806480839FBF81E090E0DF91CF911F9176
:1004F0000F91FF90EF900895F62E0B8D10E00F5F97
:100500001F4F0F731127E02E8C8D8E110CC00FB66C
:1005100007FCFACFE889F989808185FFF5CFCE0104
:100520000E943302F1CFEB8DEC0FFD2FF11DE35A4A
:10053000FF4FF0829FB7F8940B8FEA89FB89808187
:100540008062CFCFCF93DF93EC01888D8823B9F001
:10055000AA89BB89E889F9898C9185FD03C08081CE
:1005600086FD0DC00FB607FCF7CF8C9185FFF2CF4B
:10057000808185FFEDCFCE010E943302E9CFDF916C
:10058000CF91089580E090E0892B29F00E94290204
:1005900081110E94000080E090E0892B29F00E94E8
:1005A0001F0281110E94000080E090E0892B49F039
:1005B00080E090E0892B29F00E94000081110E94C8
:1005C000000080E090E0892B49F080E090E0892BEA
:1005D00029F00E94000081110C9400000895282F3A
:1005E00030E0F901E059FE4F9491F901E05DFD4FD3
:1005F000449126513E4FF9012491222309F435C03C
:10060000992311F191509231F8F4E92FF0E0882705
:10061000E35FFC4F8F4F0C940A083E0342031F0315
:1006200036033A03240345034B034F035503590391
:100630005D036303670324036B03710375038091F8
:1006400080008F7780938000E22FF0E0EE0FFF1F95
:10065000EA54FE4FA591B4918FB7F894EC916111D3
:1006600048C040954E234C938FBF089580918000E1
:100670008F7DE8CF80918000877FE4CF84B58F772E
:1006800084BDE2CF84B58F7DFBCF8091B0008F77A2
:100690008093B000D9CF8091B0008F7DF9CF809149
:1006A00090008F7780939000CFCF809190008F7DC6
:1006B000F9CF80919000877FF5CF8091A0008F7750
:1006C0008093A000C1CF8091A0008F7DF9CF809151
:1006D000A000877FF5CF809120018F778093200144
:1006E000B3CF809120018F7DF9CF80912001877F4A
:1006F000F5CF4E2BB8CF0F931F93CF93DF93EC0121
:100700008B0188859985029751F46130710509F450
:100710003AC06CF560E00115110509F435C0888513
:100720009985049751F40130110509F455C00CF076
:1007300035C00115110509F43EC0888599850597D6
:1007400009F0C8C00A30110508F0C4C0F8018827B4
:10075000E355FC4F8F4F0C940A0800040A04180458
:100760002A04420444044A045404620468046230C3
:10077000710591F060E00330110589F68C850E94C7
:10078000EF0260E005C061E08C850E94EF0261E04D
:100790008E850E94EF02C3CF61E0F0CF02301105D9
:1007A00009F10330110509F0C8CF61E08C850E9482
:1007B000EF0260E01CC061E08C850E94EF0260E007
:1007C0008E850E94EF0261E088890E94EF0260E05E
:1007D0008A890E94EF02B1CF60E08C850E94EF020F
:1007E00061E0EECF60E08C850E94EF0261E08E85D3
:1007F0000E94EF0260E088890E94EF0261E0E8CF8A
:1008000060E08C850E94EF0261E08E850E94EF021D
:1008100061E009C060E08C850E94EF0261E08E8596
:100820000E94EF0260E088890E94EF0260E00DC044
:1008300060E08C850E94EF0261E08E850E94EF02ED
:1008400060E088890E94EF0261E08A890E94EF02DD
:1008500061E011C060E08C850E94EF0261E08E854E
:100860000E94EF0260E088890E94EF0261E08A89BD
:100870000E94EF0260E08C89DF91CF911F910F9170
:100880000C94EF0261E0E7CF61E08C850E94EF02FB
:1008900060E0E5CF61E08C850E94EF0260E08E852C
:1008A0000E94EF0261E0DFCF61E08C850E94EF02E1
:1008B00060E08E850E94EF0261E088890E94EF026D
:1008C00060E0D5CF61E08C850E94EF0260E09DCFB3
:1008D00060E0F9CFDF91CF911F910F9108958F9232
:1008E0009F92AF92BF92CF92DF92EF92FF920F93BF
:1008F0001F93CF93DF93EC018B0177FF04C0002798
:100900001127061B170B161617060CF06AC081E09C
:1009100090E09983888354E0E52EF12C6AE0C62E9E
:10092000D12C0115110509F46EC03FB7F8948091E0
:10093000120290911302A0911402B091150226B5F3
:10094000A89B05C02F3F19F00196A11DB11D3FBF07
:10095000BA2FA92F982F8827820F911DA11DB11D95
:1009600042E0880F991FAA1FBB1F4A95D1F74E89F5
:100970005F89688D798D4C015D01841A950AA60AFC
:10098000B70A4A815B816C817D8184169506A60633
:10099000B70638F28E8B9F8BA88FB98F8A859B857F
:1009A000288139812130310511F501969B878A878D
:1009B0002E813F818217930711F41B861A860150FE
:1009C00011098A859B8528853985B6012530310531
:1009D00009F0B7010E94D707BC01CE010E947B033A
:1009E000A0CF672B09F497CF1982188294CF892B57
:1009F00021F48E819F819B878A878A859B850197B9
:100A00009B878A87DCCFDF91CF911F910F91FF9059
:100A1000EF90DF90CF90BF90AF909F908F90089510
:100A20001F920F920FB60F9211240BB60F922F93B5
:100A30003F934F935F936F937F938F939F93AF9366
:100A4000BF93EF93FF938CE192E00E943302FF91FA
:100A5000EF91BF91AF919F918F917F916F915F9136
:100A60004F913F912F910F900BBE0F900FBE0F90A3
:100A70001F9018951F920F920FB60F9211240BB66C
:100A80000F922F938F939F93EF93FF93E0912C02FC
:100A9000F0912D028081E0913202F091330282FDCB
:100AA0001DC09081809135028F5F8F732091360237
:100AB000821741F0E0913502F0E0E45EFD4F958F42
:100AC00080933502FF91EF919F918F912F910F901D
:100AD0000BBE0F900FBE0F901F9018958081F2CF24
:100AE0001F920F920FB60F9211240BB60F922F93F5
:100AF0003F934F935F936F937F938F939F93AF93A6
:100B0000BF93EF93FF9389EB92E00E943302FF9132
:100B1000EF91BF91AF919F918F917F916F915F9175
:100B20004F913F912F910F900BBE0F900FBE0F90E2
:100B30001F9018951F920F920FB60F9211240BB6AB
:100B40000F922F938F939F93EF93FF93E091C9029E
:100B5000F091CA028081E091CF02F091D00282FD33
:100B60001DC090818091D2028F5F8F732091D3023C
:100B7000821741F0E091D202F0E0E754FD4F958FEB
:100B80008093D202FF91EF919F918F912F910F90BF
:100B90000BBE0F900FBE0F901F9018958081F2CF63
:100BA0001F920F920FB60F9211242F933F938F93A2
:100BB0009F93AF93BF938091170290911802A091D9
:100BC0001902B0911A023091160223E0230F2D373B
:100BD00058F50196A11DB11D2093160280931702AE
:100BE00090931802A0931902B0931A0280911202F6
:100BF00090911302A0911402B09115020196A11DCB
:100C0000B11D8093120290931302A0931402B0932B
:100C10001502BF91AF919F918F913F912F910F90AE
:100C20000FBE0F901F90189526E8230F0296A11D66
:100C3000B11DD2CFEF92FF920F931F93CF93DF930B
:100C4000ECE1F2E01382128248EE53E060E070E0E3
:100C5000448355836683778384E092E09183808325
:100C60002DEC30E0358724872CEC30E03787268761
:100C700028EC30E0318B208B29EC30E0338B228B59
:100C80002AEC30E0358B248B2EEC30E0378B268B32
:100C9000118E128E138E148EE9EBF2E01382128203
:100CA00044835583668377839183808385EC90E0CA
:100CB0009587848784EC90E09787868780EC90E026
:100CC000918B808B81EC90E0938B828B82EC90E017
:100CD000958B848B86EC90E0978B868B118E128E91
:100CE000138E148EC0E7D3E01B861A8619821882F1
:100CF0001E8A1F8A188E198E84E6E82EF12CFF8238
:100D0000EE8289E090E09D878C8788E090E09F8765
:100D10008E8787E090E0998B888B86E090E09B8BB4
:100D20008A8B89E00E946F018E850E946F018889FD
:100D30000E946F018A890E946F011D8A1C8A04E04B
:100D400010E019870887C6E5D3E01B861A8619824A
:100D500018821E8A1F8A188E198EFF82EE8285E005
:100D600090E09D878C871F870E8783E090E0998BAA
:100D7000888B82E090E09B8B8A8B85E00E946F01DC
:100D80008E850E946F0188890E946F018A890E9466
:100D90006F011D8A1C8A19870887DF91CF911F91E7
:100DA0000F91FF90EF900895789484B5826084BD90
:100DB00084B5816084BD85B5826085BD85B581605F
:100DC00085BD80916E00816080936E0010928100DD
:100DD0008091810082608093810080918100816098
:100DE0008093810080918000816080938000809159
:100DF000B10084608093B1008091B00081608093E5
:100E0000B000809191008260809391008091910068
:100E10008160809391008091900081608093900028
:100E20008091A10082608093A1008091A1008160E7
:100E30008093A1008091A00081608093A0008091A8
:100E40002101826080932101809121018160809342
:100E500021018091200181608093200180917A009E
:100E6000846080937A0080917A00826080937A0017
:100E700080917A00816080937A0080917A00806806
:100E800080937A001092C10089EB92E00E948E015B
:100E90008CE192E00E948E018BE00E946F018AE05B
:100EA0000E946F0189E00E946F0188E00E946F013B
:100EB00087E00E946F0186E00E946F012091760317
:100EC00030917703032E000C440B550BC12C87E89F
:100ED000D82E83E9E82E83E0F82EC701B6010E94E0
:100EE000EB079AE0892E912CA12CB12CCA01B901F3
:100EF000A50194010E94EB072093720330937303C2
:100F0000409374035093750320915C0330915D030B
:100F1000032E000C440B550BC701B6010E94EB07D2
:100F2000CA01B901A50194010E94EB07209358035F
:100F30003093590340935A0350935B0389EB92E03B
:100F40000E9413021816190694F489EB92E00E948D
:100F5000F10180931B02813469F461E08BE00E940F
:100F6000EF026EEB7FEF80E793E00E946F040E9438
:100F7000C202E4CF823439F460E08BE00E94EF02D9
:100F800062E470E0F0CF843449F461E08AE00E94CA
:100F9000EF026EEB7FEF86E593E0E7CF853439F71C
:100FA00060E08AE00E94EF0262E470E0F4CF97FB19
:100FB000072E16F4009407D077FD09D00E9412087E
:100FC00007FC05D03EF4909581959F4F089570954C
:100FD00061957F4F0895052E97FB1EF400940E94A3
:100FE000020857FD07D00E94260807FC03D04EF4E4
:100FF0000C94020850954095309521953F4F4F4FE6
:101000005F4F089590958095709561957F4F8F4FB4
:101010009F4F0895EE0FFF1F881F8BBF0790F6911B
:10102000E02D1994AA1BBB1B51E107C0AA1FBB1FCF
:10103000A617B70710F0A61BB70B881F991F5A9564
:10104000A9F780959095BC01CD010895A1E21A2ED3
:10105000AA1BBB1BFD010DC0AA1FBB1FEE1FFF1F5C
:10106000A217B307E407F50720F0A21BB30BE40BAC
:10107000F50B661F771F881F991F1A9469F76095F3
:101080007095809590959B01AC01BD01CF010895AD
:04109000F894FFCF02
:10109400000000005502B501E201A2021302F101B1
:0210A400050243
:00000001FF
