:100000000C943A010C946B010C946B010C946B01F1
:100010000C946B010C946B010C946B010C946B01B0
:100020000C946B010C946B010C946B010C946B01A0
:100030000C946B010C946B010C946B010C946B0190
:100040000C946B010C946B010C946B010C946B0180
:100050000C946B010C946B010C946B010C94750463
:100060000C946B010C9449050C941F050C946B01C6
:100070000C946B010C946B010C946B010C946B0150
:100080000C946B010C946B010C946B010C946B0140
:100090000C94E9040C94BF040C946B010C946B0158
:1000A0000C946B010C946B010C946B010C946B0120
:1000B0000C946B010C946B010C946B010C946B0110
:1000C0000C946B010C946B010C946B010C946B0100
:1000D0000C946B010C946B010C946B010C946B01F0
:1000E0000C946B010C9435020C941D020C940403C7
:1000F0000C9413020C94A0030C94E3010C940F02D3
:100100000C9445030C9439020C9402020C942103C4
:100110000C9451030C94DD020C94E8010C9434030C
:100120000C942F020C94E1030C942B020C942702E4
:100130000C9419020C94D1020C947F050C94FA01D2
:100140000C94EE020C9428040C941F030C9492035C
:100150000C944C030C9428030C9409020C94060292
:100160000C947E030C9421020C94FE0100000A0BF7
:1001700002090C0D0E080703040100000000000036
:10018000000000000000000000000000000000006F
:10019000000000000000000012111000000000002C
:1001A000000000000000000000000000000000004F
:1001B000000000002200250028002B002E00310046
:1001C000340002010000050108010B0100002100BC
:1001D000240027002A002D00300033000101000018
:1001E000040107010A0105050505070508080808B7
:1001F000020202020A0A08080404040401010101BF
:1002000001010101030303030303030304070707B9
:100210000C0C0C0C0C0C0C0C02020202060606065E
:10022000060606060B0B0B0B0B0B0B0B010210202B
:10023000200808102040102040800201020108041C
:1002400002010102040810204080804020100804B0
:100250000201800402018040201008040201080409
:10026000020101020408102040800102040810204D
:1002700040807F0511241FBECFEFD1E2DEBFCDBF8E
:1002800000E00CBF12E0A0E0B2E0E4E4F0E100E046
:100290000BBF02C007900D92A031B107D9F723E040
:1002A000A0E1B2E001C01D92A838B207E1F711E069
:1002B000CAE3D1E000E006C021970109802FFE01CA
:1002C0000E94E207C933D10780E00807A9F70E941E
:1002D00037060C9420080C94000090E0FC01E45DCB
:1002E000FD4F24918A519E4FFC018491882399F0FF
:1002F00090E0880F991FFC01E453FE4FA591B49143
:10030000FC01EE54FE4F859194918FB7F894EC91D7
:10031000E22BEC938FBF0895FC01A089B18982E0A4
:100320008C93A485B5851C92A685B7858FEC8C939C
:10033000108EA489B58986E08C93A289B3898C91AB
:1003400080618C93A289B3898C9188608C93A289F7
:10035000B3898C9180688C930288F389E02D808129
:100360008F7D80830895282F30E0F901E459FE4FF6
:100370009491F901E45DFD4F44912A513E4FF901FA
:100380002491222309F435C0992311F1915092311F
:10039000F8F4E92FF0E08827EF52FE4F8F4F0C94CE
:1003A000E20702020602E301FA01FE01E801090286
:1003B0000F02130219021D02210227022B02E8017B
:1003C0002F0235023902809180008F778093800060
:1003D000E22FF0E0EE0FFF1FEE54FE4FA591B49117
:1003E0008FB7F894EC91611148C040954E234C931F
:1003F0008FBF0895809180008F7DE8CF809180002D
:10040000877FE4CF84B58F7784BDE2CF84B58F7DBD
:10041000FBCF8091B0008F778093B000D9CF8091CF
:10042000B0008F7DF9CF809190008F7780939000FE
:10043000CFCF809190008F7DF9CF80919000877F02
:10044000F5CF8091A0008F778093A000C1CF8091DD
:10045000A0008F7DF9CF8091A000877FF5CF80919C
:1004600020018F7780932001B3CF809120018F7D71
:10047000F9CF80912001877FF5CF4E2BB8CFCF9356
:10048000DF93EC018091760390917703029749F412
:10049000C130D10509F43DC07CF560E0209709F436
:1004A00039C08091760390917703049749F4C13065
:1004B000D10509F45EC00CF039C0209709F444C09E
:1004C0008091760390917703059709F0E7C0CA30D1
:1004D000D10508F0E3C0FE018827EE58FD4F8F4F8D
:1004E0000C94E207D102DD02EE0204031F03210394
:1004F0002803340345034C03C230D105A9F060E062
:10050000C330D10571F680917A030E94B30160E097
:1005100006C061E080917A030E94B30161E080919E
:100520007C030E94B301BDCF61E0EDCFC230D105A5
:1005300039F1C330D10509F0C3CF61E080917A036E
:100540000E94B30160E022C061E080917A030E94C2
:10055000B30160E080917C030E94B30161E080916F
:100560007E030E94B30160E0809180030E94B3018A
:10057000A7CF60E080917A030E94B30161E0EACFE7
:1005800060E080917A030E94B30161E080917C0376
:100590000E94B30160E080917E030E94B30161E09C
:1005A000E3CF60E080917A030E94B30161E0809123
:1005B0007C030E94B30161E00BC060E080917A038C
:1005C0000E94B30161E080917C030E94B30160E06E
:1005D00080917E030E94B30160E010C060E08091D2
:1005E0007A030E94B30161E080917C030E94B30111
:1005F00060E080917E030E94B30161E080918003FE
:100600000E94B30161E015C060E080917A030E940E
:10061000B30161E080917C030E94B30160E08091AE
:100620007E030E94B30161E0809180030E94B301C8
:1006300060E080918203DF91CF910C94B30161E07F
:10064000E4CF61E080917A030E94B30160E0E2CFE1
:1006500061E080917A030E94B30160E080917C03A5
:100660000E94B30161E0DBCF61E080917A030E94D8
:10067000B30160E080917C030E94B30161E080914E
:100680007E030E94B30160E0CFCF61E080917A03E6
:100690000E94B30160E08BCF60E0F8CFDF91CF9193
:1006A0000895AF92BF92CF92DF92EF92FF920F9395
:1006B0001F93CF93DF936C017B018B01040F151FF8
:1006C000EB015E01AE18BF08C017D10759F0699160
:1006D000D601ED91FC910190F081E02DC6011995B4
:1006E000892B79F7C501DF91CF911F910F91FF9071
:1006F000EF90DF90CF90BF90AF900895FC01918D67
:10070000828D981761F0A28DAE0FBF2FB11D5D963F
:100710008C91928D9F5F9F73928F90E008958FEFE1
:100720009FEF0895FC01918D828D981731F0828D95
:10073000E80FF11D858D90E008958FEF9FEF0895EC
:10074000FC01918D228D892F90E0805C9F4F821B50
:1007500091098F73992708958AE192E00E94A0037E
:1007600021E0892B09F420E0822F089587EB92E0A5
:100770000E94A00321E0892B09F420E0822F089534
:10078000FC01A48DA80FB92FB11DA35ABF4F2C9106
:10079000848D90E001968F739927848FA689B789FD
:1007A0002C93A089B1898C9180648C93938D848DD6
:1007B000981306C00288F389E02D80818F7D8083A5
:1007C0000895EF92FF920F931F93CF93DF93EC0165
:1007D00081E0888F9B8D8C8D981316C0E889F989EC
:1007E000808185FF11C0EE89FF896083E889F989DE
:1007F00080818064808381E090E0DF91CF911F91C0
:100800000F91FF90EF900895F62E0B8D10E00F5F83
:100810001F4F0F731127E02E8C8D8E110CC00FB659
:1008200007FCFACFE889F989808185FFF5CFCE01F1
:100830000E94C003F1CFEB8DEC0FFD2FF11DE35AA9
:10084000FF4FF0820B8FEA89FB8980818062D2CFD3
:10085000CF93DF93EC01888D8823B9F0AA89BB89F7
:10086000E889F9898C9185FD03C0808186FD0DC0E2
:100870000FB607FCF7CF8C9185FFF2CF808185FF03
:10088000EDCFCE010E94C003E9CFDF91CF91089553
:1008900080E090E0892B29F00E94B60381110E942C
:1008A000000080E090E0892B29F00E94AC038111C8
:1008B0000E94000080E090E0892B49F080E090E009
:1008C000892B29F00E94000081110E94000080E025
:1008D00090E0892B49F080E090E0892B29F00E947C
:1008E000000081110C94000008951F920F920FB622
:1008F0000F9211242F933F938F939F93AF93BF93A6
:100900008091160290911702A0911802B0911902DD
:100910003091150223E0230F2D3758F50196A11DC4
:10092000B11D209315028093160290931702A09395
:100930001802B09319028091110290911202A091B5
:100940001302B09114020196A11DB11D80931102F2
:1009500090931202A0931302B0931402BF91AF912F
:100960009F918F913F912F910F900FBE0F901F90ED
:10097000189526E8230F0296A11DB11DD2CF1F9214
:100980000F920FB60F9211240BB60F922F933F9335
:100990004F935F936F937F938F939F93AF93BF9387
:1009A000EF93FF938AE192E00E94C003FF91EF91E1
:1009B000BF91AF919F918F917F916F915F914F9177
:1009C0003F912F910F900BBE0F900FBE0F901F9075
:1009D00018951F920F920FB60F9211240BB60F921B
:1009E0002F938F939F93EF93FF93E0912A02F091BF
:1009F0002B028081E0913002F091310282FD1DC016
:100A00009081809133028F5F8F732091340282171F
:100A100041F0E0913302F0E0E65EFD4F958F809368
:100A20003302FF91EF919F918F912F910F900BBE09
:100A30000F900FBE0F901F9018958081F2CF1F92DC
:100A40000F920FB60F9211240BB60F922F933F9374
:100A50004F935F936F937F938F939F93AF93BF93C6
:100A6000EF93FF9387EB92E00E94C003FF91EF9119
:100A7000BF91AF919F918F917F916F915F914F91B6
:100A80003F912F910F900BBE0F900FBE0F901F90B4
:100A900018951F920F920FB60F9211240BB60F925A
:100AA0002F938F939F93EF93FF93E091C702F09161
:100AB000C8028081E091CD02F091CE0282FD1DC07E
:100AC00090818091D0028F5F8F732091D102821725
:100AD00041F0E091D002F0E0E954FD4F958F809312
:100AE000D002FF91EF919F918F912F910F900BBEAC
:100AF0000F900FBE0F901F9018958081F2CFEF924C
:100B0000FF920F931F93CF93DF93EAE1F2E01382FA
:100B1000128248EE53E060E070E0448355836683C0
:100B2000778384E092E0918380832DEC30E03587F9
:100B300024872CEC30E03787268728ECE22EF12C36
:100B4000F18AE08A29EC30E0338B228B2AEC30E00A
:100B5000358B248B2EEC30E0378B268B118E128E4A
:100B6000138E148EE7EBF2E01382128244835583D6
:100B7000668377839183808385EC90E09587848773
:100B800084EC90E09787868780EC90E0918B808B57
:100B900081EC90E0938B828B82EC90E0958B848B40
:100BA00086EC90E0978B868B118E128E138E148EAE
:100BB000CEE6D3E01B861A86198218821E8A1F8A07
:100BC000188E198EFF82EE8289E090E09D878C87D7
:100BD00088E090E09F878E8787E090E0998B888BF4
:100BE00086E090E09B8B8A8B89E00E946D018E8568
:100BF0000E946D0188890E946D018A890E946D01A1
:100C00001D8A1C8A04E010E019870887C4E5D3E038
:100C10001B861A86198218821E8A1F8A188E198EC0
:100C2000FF82EE8285E090E09D878C871F870E878C
:100C300083E090E0998B888B82E090E09B8B8A8B9D
:100C400085E00E946D018E850E946D0188890E9459
:100C50006D018A890E946D011D8A1C8A1987088787
:100C6000DF91CF911F910F91FF90EF9008957894AD
:100C700084B5826084BD84B5816084BD85B58260A1
:100C800085BD85B5816085BD80916E008160809352
:100C90006E001092810080918100826080938100BB
:100CA00080918100816080938100809180008160CB
:100CB000809380008091B10084608093B100809126
:100CC000B00081608093B000809191008260809339
:100CD00091008091910081608093910080919000BB
:100CE0008160809390008091A10082608093A10038
:100CF0008091A10081608093A1008091A00081601B
:100D00008093A000809121018260809321018091D5
:100D10002101816080932101809120018160809375
:100D2000200180917A00846080937A0080917A001B
:100D3000826080937A0080917A00816080937A004B
:100D400080917A00806880937A001092C10087EBCE
:100D500092E00E948C018AE192E00E948C018BE07B
:100D60000E946D018AE00E946D0120917403309110
:100D70007503032E000C440B550BC12C67E8D62ECF
:100D800063E9E62E63E0F62EC701B6010E94C307B1
:100D900078EE872E73E0972EA12CB12CCA01B901F1
:100DA000A50194010E94C30720937003309371033F
:100DB000409372035093730320915A0330915B0365
:100DC000032E000C440B550BC701B6010E94C3074C
:100DD000CA01B901A50194010E94C30720935603DB
:100DE00030935703409358035093590381E090E0A8
:100DF00090936F0380936E03CDE2D0E004E010E0A7
:100E0000EAE0EE2EF12C209709F488C03FB7F89461
:100E10008091110290911202A0911302B0911402DC
:100E200026B5A89B05C02F3F19F00196A11DB11D45
:100E30003FBFBA2FA92F982F8827820F911DA11D80
:100E4000B11D42E0880F991FAA1FBB1F4A95D1F719
:100E500040918403509185036091860370918703CC
:100E60004C015D01841A950AA60AB70A40917003E5
:100E7000509171036091720370917303841695060B
:100E8000A606B70608F4BFCF80938403909385032A
:100E9000A0938603B09387038091780390917903A0
:100EA00020916E0330916F032130310519F50196C1
:100EB00090937903809378032091740330917503A4
:100EC0008217930721F410927903109278032197E7
:100ED0008091780390917903209176033091770384
:100EE000B7012530310509F0B8010E94AF070E9413
:100EF0003F0289CF892B41F480917403909175034F
:100F0000909379038093780380917803909179038B
:100F100001979093790380937803D9CF87EB92E080
:100F20000E94A003181619067CF487EB92E00E9439
:100F30007E038093100261E0813419F0823439F429
:100F400060E08BE00E94B3010E944804E7CF61E0BB
:100F5000843419F08534C1F760E08AE0F3CF97FB61
:100F6000072E16F4009407D077FD09D00E94EA07F7
:100F700007FC05D03EF4909581959F4F089570959C
:100F800061957F4F0895052E97FB1EF400940E94F3
:100F9000DA0757FD07D00E94FE0707FC03D04EF486
:100FA0000C94DA0750954095309521953F4F4F4F5F
:100FB0005F4F089590958095709561957F4F8F4F05
:100FC0009F4F0895EE0FFF1F881F8BBF0790F6916C
:100FD000E02D1994AA1BBB1B51E107C0AA1FBB1F20
:100FE000A617B70710F0A61BB70B881F991F5A95B5
:100FF000A9F780959095BC01CD010895A1E21A2E24
:10100000AA1BBB1BFD010DC0AA1FBB1FEE1FFF1FAC
:10101000A217B307E407F50720F0A21BB30BE40BFC
:10102000F50B661F771F881F991F1A9469F7609543
:101030007095809590959B01AC01BD01CF010895FD
:04104000F894FFCF52
:1010440000000000E1035103A0037E03920328047F
:00000001FF
