:100000000C9438010C9469010C9469010C946901F9
:100010000C9469010C9469010C9469010C946901B8
:100020000C9469010C9469010C9469010C946901A8
:100030000C9469010C9469010C9469010C94690198
:100040000C9469010C9469010C9469010C94690188
:100050000C9469010C9469010C9469010C943606A6
:100060000C9469010C9400060C94D6050C9469015B
:100070000C9469010C9469010C9469010C94690158
:100080000C9469010C9469010C9469010C94690148
:100090000C94A0050C9476050C9469010C946901EC
:1000A0000C9469010C9469010C9469010C94690128
:1000B0000C9469010C9469010C9469010C94690118
:1000C0000C9469010C9469010C9469010C94690108
:1000D0000C9469010C9469010C9469010C946901F8
:1000E0000C9469010C94C0020C9450030C945E03B0
:1000F0000C94CF010C9493010C9423020C943903BB
:100100000C94C0010C946B030C9466030C943D0397
:100110000C9454030C9458030C9473020C94310304
:100120000C942B030C9480060C9431020C944E0911
:100130000C9446030C9440030C9435030C944A032E
:100140000C946C030C9470030C9462030000210067
:10015000240027002A002D00300033000101000098
:10016000040107010A0100002200250028002B00DD
:100170002E003100340002010000050108010B01CE
:10018000000020002300260029002C002F00320050
:100190000001000003010601090105050505070529
:1001A00008080808020202020A0A080804040404F3
:1001B000010101010101010103030303030303031F
:1001C000040707070C0C0C0C0C0C0C0C02020202AE
:1001D00006060606060606060B0B0B0B0B0B0B0B97
:1001E0000102102020080810204010204080020149
:1001F000020108040201010204081020408080402E
:10020000201008040201800402018040201008042C
:1002100002010804020101020408102040800102CA
:1002200004081020408000000A0B02090C0D0E0883
:1002300007030401000000000000000000000000AF
:1002400000000000000000000000000000000000AE
:10025000000012111000000000000000000000006B
:1002600000000000000000000000000080064E09B1
:1002700011241FBECFEFD1E2DEBFCDBF00E00CBF27
:1002800024E0AAE9B2E001C01D92A731B207E1F76C
:1002900012E0A0E0B2E0ECEFF7E100E00BBF02C03B
:1002A00007900D92AA39B107D9F711E0C7E3D1E061
:1002B00000E006C021970109802FFE010E94C309BA
:1002C000C633D10780E00807A9F70E94D6060C9430
:1002D000EC0B0C940000FC01A089B18982E08C93A6
:1002E000A485B5851C92A685B7858FEC8C93108E5E
:1002F000A489B58986E08C93A289B3898C918061A9
:100300008C93A289B3898C9188608C93A289B389DC
:100310008C9180688C930288F389E02D80818F7D99
:10032000808308950895AF92BF92CF92DF92EF92AB
:10033000FF920F931F93CF93DF936C017B018B018F
:10034000040F151FEB015E01AE18BF08C017D107DF
:1003500059F06991D601ED91FC910190F081E02D69
:10036000C6011995892B79F7C501DF91CF911F91AE
:100370000F91FF90EF90DF90CF90BF90AF900895D6
:10038000FC01538D448D252F30E0842F90E0821B9B
:10039000930B541710F0CF96089501970895FC0120
:1003A000918D828D981761F0A28DAE0FBF2FB11D78
:1003B0005D968C91928D9F5F9F73928F90E00895D0
:1003C0008FEF9FEF08952FB7F8948091CF0290910F
:1003D000D002A091D102B091D2022FBF8093DB0254
:1003E0009093DC02A093DD02B093DE0283ED92E0F5
:1003F0000E94CF0197FF26C02FB7F8948091CF02BB
:100400009091D002A091D102B091D2022FBF409121
:10041000DB025091DC026091DD027091DE02841BF0
:10042000950BA60BB70B4091D7025091D802609163
:10043000D9027091DA0284179507A607B707B0F2C0
:100440008FEF9FEF0895FC01918D828D981731F009
:10045000828DE80FF11D858D90E008958FEF9FEF5D
:100460000895FC01918D228D892F90E0805C9F4F33
:10047000821B91098F739927089583ED92E00E9462
:10048000310221E0892B09F420E0822F089580E7D2
:1004900093E00E94310221E0892B09F420E0822FB1
:1004A0000895FC01A48DA80FB92FB11DA35ABF4F09
:1004B0002C91848D90E001968F739927848FA68963
:1004C000B7892C93A089B1898C91837080648C93B7
:1004D000938D848D981306C00288F389E02D808166
:1004E0008F7D80830895EF92FF920F931F93CF9398
:1004F000DF93EC0181E0888F9B8D8C8D98131AC05F
:10050000E889F989808185FF15C09FB7F894EE8945
:10051000FF896083E889F9898081837080648083A2
:100520009FBF81E090E0DF91CF911F910F91FF90ED
:10053000EF900895F62E0B8D10E00F5F1F4F0F7395
:100540001127E02E8C8D8E110CC00FB607FCFACF50
:10055000E889F989808185FFF5CFCE010E9451029B
:10056000F1CFEB8DEC0FFD2FF11DE35AFF4FF08221
:100570009FB7F8940B8FEA89FB8980818062CFCF87
:10058000CF93DF93EC01888D8823B9F0AA89BB89CA
:10059000E889F9898C9185FD03C0808186FD0DC0B5
:1005A0000FB607FCF7CF8C9185FFF2CF808185FFD6
:1005B000EDCFCE010E945102E9CFDF91CF91089596
:1005C00080E090E0892B29F00E94470281110E946F
:1005D000000080E090E0892B29F00E943D0281110B
:1005E0000E94000080E090E0892B49F080E090E0DC
:1005F000892B29F00E94000081110E94000080E0F8
:1006000090E0892B49F080E090E0892B29F00E944E
:10061000000081110C94000008958150823108F08F
:100620005AC0E82FF0E08827E75EFC4F8F4F0C940C
:10063000C30939033D032B03310335036B03400327
:1006400046034A035003540358035E0362036B03DB
:1006500066036C037003809180008F778093800025
:100660000895809180008F7DF9CF80918000877FF1
:10067000F5CF84B58F7784BD089584B58F7DFBCF8A
:100680008091B0008F778093B00008958091B00082
:100690008F7DF9CF809190008F778093900008959F
:1006A000809190008F7DF9CF80919000877FF5CF6A
:1006B0008091A0008F778093A00008958091A00082
:1006C0008F7DF9CF8091A000877FF5CF80912001A9
:1006D0008F77809320010895809120018F7DF9CF3D
:1006E00080912001877FF5CFCF93DF93282F30E0D3
:1006F000F901EA5DFD4F8491F901E052FE4FD4917A
:10070000F901E656FE4FC491CC23A1F081110E945D
:100710000D03EC2FF0E0EE0FFF1FE058FE4FA59108
:10072000B491EC91ED2381E090E009F480E0DF9159
:10073000CF91089580E090E0FACF1F93CF93DF939D
:10074000282F30E0F901EA5DFD4F8491F901E05274
:10075000FE4FD491F901E656FE4FC491CC23A9F087
:10076000162F81110E940D03EC2FF0E0EE0FFF1FFA
:10077000EA59FE4FA591B4918FB7F894EC911111FD
:1007800008C0D095DE23DC938FBFDF91CF911F91FE
:100790000895DE2BF8CFCF93DF9390E0FC01E05279
:1007A000FE4F249186569E4FFC0184918823D1F000
:1007B00090E0880F991FFC01E45BFE4FA591B49176
:1007C000FC01EA59FE4FC591D49161110EC09FB74B
:1007D000F8948C91E22FE0958E238C932881E2236C
:1007E000E8839FBFDF91CF9108958FB7F894EC9184
:1007F000E22BEC938FBFF6CF3FB7F89480919B022A
:1008000090919C02A0919D02B0919E0226B5A89B5A
:1008100005C02F3F19F00196A11DB11D3FBFBA2F92
:10082000A92F982F8827BC01CD01620F711D811D52
:10083000911D42E0660F771F881F991F4A95D1F7D7
:1008400008958F929F92AF92BF92CF92DF92EF92D4
:10085000FF924B015C010E94FC036B017C010E9432
:10086000FC036C197D098E099F09683E7340810560
:100870009105A8F321E0821A9108A108B10888EE39
:10088000C80E83E0D81EE11CF11C81149104A10460
:10089000B10429F7FF90EF90DF90CF90BF90AF9019
:1008A0009F908F9008950F931F93CF93DF938C01A8
:1008B000EB01FC01808191810097E1F068817981F1
:1008C00061157105A9F0428153812C813D81421748
:1008D000530770F00E94E50B8C819D81F801958390
:1008E00084831D821C82DF91CF911F910F91089507
:1008F0000E94670A88819981F801918380838A81A7
:100900009B81938382838C819D81958384831982CB
:1009100018821B821A82E5CFCF93DF93EC01888186
:100920009981009711F00E94670A198218821D822E
:100930001C821B821A82DF91CF910895FC01808175
:100940009181009711F00C94670A08950F931F93FB
:10095000CF93DF93EC0188819981009759F02A8128
:100960003B812617370730F081E0DF91CF911F914F
:100970000F9108958B016F5F7F4F0E94F00A0097DF
:1009800059F0998388831B830A832C813D81232B13
:1009900059F7FC011082E8CF80E0E7CFEF92FF9299
:1009A0000F931F93CF93DF9341155105B1F07B0156
:1009B000EC010C811D81040F151FB8010E94A604D3
:1009C000882361F0288139818C819D81B701820F54
:1009D000931F0E94E50B1D830C8381E0DF91CF9173
:1009E0001F910F91FF90EF900895EF92FF920F9358
:1009F0001F93CF93DF93EC017B018A01BA010E9420
:100A0000A60481110BC0CE010E948C04CE01DF919F
:100A1000CF911F910F91FF90EF9008951D830C834C
:100A2000B701888199810E94E50BF0CFFC0111820A
:100A30001082138212821582148250E040E069E92C
:100A400072E00C94F504AF92BF92CF92DF92EF92D6
:100A5000FF920F931F93CF93DF937C016B015A0199
:100A600089012417350720F48B2D5901042F182FE5
:100A7000C7010E941605D6011496CD91DC91AC16E3
:100A8000BD0620F50C171D0708F4E801D601ED910D
:100A9000FC911197EC0FFD1F108110826D917C91DC
:100AA0006A0D7B1D61157105E9F0FB0101900020C5
:100AB000E9F73197AF01461B570BC7010E94F504B8
:100AC000F60180819181C80FD91F1883C701DF917A
:100AD000CF911F910F91FF90EF90DF90CF90BF903B
:100AE000AF900895C7010E948C04EACF1F920F9225
:100AF0000FB60F9211240BB60F922F933F934F9383
:100B00005F936F937F938F939F93AF93BF93EF9375
:100B1000FF9383ED92E00E945102FF91EF91BF910C
:100B2000AF919F918F917F916F915F914F913F9185
:100B30002F910F900BBE0F900FBE0F901F90189526
:100B40001F920F920FB60F9211240BB60F922F9394
:100B50008F939F93EF93FF93E091E302F091E40270
:100B60008081E091E902F091EA0282FD1DC090814E
:100B70008091EC028F5F8F732091ED02821741F01C
:100B8000E091EC02F0E0ED52FD4F958F8093EC0286
:100B9000FF91EF919F918F912F910F900BBE0F902E
:100BA0000FBE0F901F9018958081F2CF1F920F9269
:100BB0000FB60F9211240BB60F922F933F934F93C2
:100BC0005F936F937F938F939F93AF93BF93EF93B5
:100BD000FF9380E793E00E945102FF91EF91BF9154
:100BE000AF919F918F917F916F915F914F913F91C5
:100BF0002F910F900BBE0F900FBE0F901F90189566
:100C00001F920F920FB60F9211240BB60F922F93D3
:100C10008F939F93EF93FF93E0918003F091810373
:100C20008081E0918603F091870382FD1DC0908151
:100C3000809189038F5F8F7320918A03821741F01F
:100C4000E0918903F0E0E059FC4F958F8093890390
:100C5000FF91EF919F918F912F910F900BBE0F906D
:100C60000FBE0F901F9018958081F2CF1F920F92A8
:100C70000FB60F9211242F933F938F939F93AF93AF
:100C8000BF938091CF029091D002A091D102B091F8
:100C9000D20230919A0223E0230F2D3758F50196A6
:100CA000A11DB11D20939A028093CF029093D00290
:100CB000A093D102B093D20280919B0290919C02AA
:100CC000A0919D02B0919E020196A11DB11D80933D
:100CD0009B0290939C02A0939D02B0939E02BF91B1
:100CE000AF919F918F913F912F910F900FBE0F90D9
:100CF0001F90189526E8230F0296A11DB11DD2CF93
:100D0000E3EDF2E01382128248EE53E060E070E01F
:100D100044835583668377838AE892E09183808356
:100D20002DEC30E0358724872CEC30E037872687A0
:100D300028EC30E0318B208B29EC30E0338B228B98
:100D40002AEC30E0358B248B2EEC30E0378B268B71
:100D5000118E128E138E148EE0E7F3E0138212824E
:100D600044835583668377839183808385EC90E009
:100D70009587848784EC90E09787868780EC90E065
:100D8000918B808B81EC90E0938B828B82EC90E056
:100D9000958B848B86EC90E0978B868B118E128ED0
:100DA000138E148E8DE094E00C941605CF93DF9390
:100DB000CDB7DEB7C059D1090FB6F894DEBF0FBE6C
:100DC000CDBF789484B5826084BD84B5816084BDD4
:100DD00085B5826085BD85B5816085BD80916E00D9
:100DE000816080936E00109281008091810082600A
:100DF0008093810080918100816080938100809147
:100E000080008160809380008091B1008460809335
:100E1000B1008091B00081608093B000809191001A
:100E20008260809391008091910081608093910015
:100E3000809190008160809390008091A1008260F9
:100E40008093A1008091A10081608093A100809196
:100E5000A00081608093A000809121018260809336
:100E600021018091210181608093210180912001E5
:100E700081608093200180917A00846080937A0061
:100E800080917A00826080937A0080917A008160FC
:100E900080937A0080917A00806880937A00109223
:100EA000C10080E793E00E946B0183ED92E00E9415
:100EB0006B0106E612E0F80180810E5F1F4F60E0D3
:100EC0000E94CB03F2E006381F07A9F766E2E62E80
:100ED00062E0F62E06E412E0F80180810E5F1F4FFB
:100EE00061E00E94CB03F7018081F2E0EF0EF11C7C
:100EF00061E00E94CB0322E00636120769F761E049
:100F000084E40E94CB0361E085E40E94CB038E0160
:100F10000F5F1F4F7E0139E7E30EF11CCE018F59A1
:100F20009F4FC557DF4F99838883CB58D040EFEA56
:100F3000F2E0C157DF4FF983E883CF58D0403FE953
:100F4000A32E32E0B32E46E2442E42E0542E56E465
:100F5000652E52E0752E26E632E0C357DF4F398307
:100F60002883CD58D0406F01C357DF4FE881F98106
:100F7000CD58D04080813296C357DF4FF983E88344
:100F8000CD58D040F3012080F2E06F0E711CF201C9
:100F90003080F2E04F0E511CF60120813181223069
:100FA000310509F49DC0F5019081911199C00E940D
:100FB00074034C01019709F087C061E0822D0E9403
:100FC0009D0360E0832D0E949D03F6019182808243
:100FD000F2E0CF0ED11C2FEFA21AB20A3FECC316DB
:100FE00032E0D30609F0C0CF96E0A92E92E0B92EE8
:100FF0002FEAC22E22E0D22EF601819191916F014B
:10100000892B09F096C0F50180819181019709F043
:1010100090C061E085E40E949D03CE018B579F4FF5
:101020000E9416058FEAC82E82E0D82E4AE0B80149
:10103000F601819191916F010E947909F801019067
:101040000020E9F73197AF01401B510BB801CE01E9
:101050008B579F4F0E94CE0441E050E068E972E058
:10106000CE018B579F4F0E94CE04FFECCF16F2E0CB
:10107000DF06E1F6C757DF4F48815981C958D04094
:10108000CB57DF4F68817981C558D04083ED92E01E
:101090000E94930164E670E080E090E00E942104E9
:1010A000CE0181589F4F0E9416050E94E30197FDD3
:1010B0004EC089831A8241E050E0B801CE018158C8
:1010C0009F4F0E94CE04F1CF60E0822D0E949D03CD
:1010D00061E0832D0E949D03F6011182108278CF7A
:1010E0000E9474038130910599F4F6019183808305
:1010F00061E0822D0E949D0360E0832D0E949D038C
:1011000081E0F501808361E084E40E949D0360CF6B
:1011100022E030E0F6013183208361E0822D0E94DD
:101120009D0361E0832D0E949D03F501108260E024
:10113000EBCF60E085E40E949D03F2E0AF0EB11CAE
:101140002FECC21622E0D20609F056CF66CF680116
:101150005801C5010E94160526E0A20EB11CAE146E
:10116000BF04B9F75801CD57DF4F48805980C358A5
:10117000D0404114510411F1C158DF4F888099804B
:10118000CF57D0406CE270E0C4010E94DA0B150129
:10119000009759F03C016818790836E0A30EB11C9D
:1011A0008FEF6816780609F04CC08114910409F499
:1011B00044C0A201B401C1010E94F504F60180817E
:1011C0009181009709F466C00E945209C157DF4F10
:1011D000E881F981CF58D04061937193C157DF4FB7
:1011E000F983E883CF58D040F6E0CF0ED11CC55725
:1011F000DF4F28813981CB58D040C216D306F1F693
:1012000064EF71E080E090E00E942104670136E025
:10121000C31AD108C6010E949E040C151D05B9F71A
:10122000CE0181589F4F0E949E04CE018B579F4F45
:101230000E949E040E94E0027ACEC1010E948C04AA
:10124000BDCF930150E040E0BE0161587F4FC70120
:101250000E942305B701C1010E945304C7010E94E7
:101260009E04CD57DF4F28813981C358D040A30158
:101270004F5F5F4FBE0161587F4FC7010E9423053A
:10128000B701CE0181589F4F0E945304C7010E94AD
:101290009E0469CF60E070E0CB0198CF8DE094E0D0
:1012A0000C949E041F93FC0199278827BC01E894A5
:1012B00011911032E9F3193010F01E30C8F31B32CF
:1012C00051F01D3249F4689406C00E948409610FF0
:1012D000711D811D911D119110531A30B0F33EF410
:1012E00090958095709561957F4F8F4F9F4F1F917F
:1012F0000895BB274A3031F4992322F4BDE290953A
:1013000081959F4F0C949A09592F482F372F262FDC
:10131000660F771F881F991F660F771F881F991FF9
:10132000620F731F841F951F660F771F881F991FF9
:101330000895BB27FB015527AA27880F991FAA1FCD
:10134000A41710F0A41B83955051B9F7A05DAA33E0
:1013500008F0A95DA193009779F7B111B1931192AB
:10136000CB010C94B309DC01FC01672F7191772349
:10137000E1F7329704C07C916D9370836291AE1750
:10138000BF07C8F30895EE0FFF1F881F8BBF07909C
:10139000F691E02D19940F931F93CF93DF93823032
:1013A000910510F482E090E0E0911504F0911604AC
:1013B00030E020E0B0E0A0E0309799F4211531054D
:1013C00009F44AC0281B390B24303105D8F58A812D
:1013D0009B816115710589F1FB0193838283FE0175
:1013E00011C0408151810281138148175907E0F0F3
:1013F0004817590799F4109761F012960C931297B9
:1014000013961C933296CF01DF91CF911F910F91CC
:1014100008950093150410931604F4CF2115310597
:1014200051F04217530738F0A901DB019A01BD01C1
:10143000DF01F801C1CFEF01F9CF9093160480933B
:101440001504CDCFFE01E20FF31F8193919322503B
:10145000310939832883D7CF2091130430911404A4
:10146000232B41F4209102023091030230931404A3
:1014700020931304209100023091010221153105BF
:1014800041F42DB73EB74091040250910502241B50
:10149000350BE0911304F0911404E217F307A0F464
:1014A0002E1B3F0B2817390778F0AC014E5F5F4FBA
:1014B0002417350748F04E0F5F1F509314044093D4
:1014C0001304819391939FCFF0E0E0E09CCFCF9302
:1014D000DF930097E9F0FC01329713821282A0910A
:1014E0001504B0911604ED0130E020E01097A1F44E
:1014F00020813181820F931F2091130430911404B5
:101500002817390709F061C0F0931404E09313041D
:10151000DF91CF910895EA01CE17DF07E8F54A8100
:101520005B819E0141155105B1F7E901FB83EA8317
:1015300049915991C40FD51FEC17FD0761F48081C3
:1015400091810296840F951FE90199838883828196
:1015500093819B838A83F0E0E0E012968D919C91C9
:1015600013970097B9F52D913C911197CD010296F3
:10157000820F931F20911304309114042817390708
:1015800039F6309751F51092160410921504B09365
:101590001404A0931304BCCFD383C2834081518130
:1015A000840F951FC817D90761F44E5F5F4F88817C
:1015B0009981480F591F518340838A819B8193836E
:1015C00082832115310509F0B0CFF0931604E09322
:1015D00015049ECFFD01DC01C0CF13821282D7CF4C
:1015E0004F925F926F927F928F929F92AF92BF9233
:1015F000CF92DF92EF92FF920F931F93CF93DF93DF
:101600008C01009799F4CB01DF91CF911F910F913D
:10161000FF90EF90DF90CF90BF90AF909F908F9012
:101620007F906F905F904F900C94CB09FC01E60F78
:10163000F71F9C0122503109E217F30708F4AEC0EE
:10164000D901CD91DC911197C617D70720F1C5308C
:10165000D10578F0CE0104978617970750F0C61B86
:10166000D70B2297C193D1936D937C93CF010E94A6
:10167000670AC801DF91CF911F910F91FF90EF9002
:10168000DF90CF90BF90AF909F908F907F906F90A2
:101690005F904F9008955B01AC1ABD0A4C018C0E0F
:1016A0009D1EA0911504B0911604512C412CF12CD3
:1016B000E12C109731F58091130490911404881552
:1016C000990509F05CC04616570608F058C080918D
:1016D000000290910102009741F48DB79EB74091AE
:1016E000040250910502841B950BE817F90708F0D6
:1016F00055C0F0931404E0931304F90171836083DF
:10170000B8CF8D919C91119712966C901297139669
:101710007C901397A815B90559F56C0142E0C40EE9
:10172000D11CCA14DB0420F1AC014A195B09DA01AF
:101730001296159780F06282738251834083D9019B
:101740006D937C93E114F10471F0D7011396FC932F
:10175000EE9312978ECF22968C0F9D1FF9019183E5
:101760008083F301EFCFF0931604E093150481CF4B
:101770004816590608F42C017D01D3019ACFCB01FC
:101780000E94CB097C01009749F0AE01B8010E948C
:10179000D10BC8010E94670A87016BCF10E000E0FF
:1017A00068CFFB01DC0102C001900D924150504016
:1017B000D8F70895FC018191861721F08823D9F785
:1017C000992708953197CF010895FB01DC0101901D
:1017D0000D920020E1F7089511E0C7E3D1E000E0A9
:1017E00006C0802FFE010E94C3092196011DC83347
:0C17F000D10780E00807A9F7F894FFCFAC
:1017FC000000170480000000000000000000000042
:10180C0000000000000000000000000000000000CC
:10181C000000000000000C000A0008000600040094
:10182C0002000F00110015004300370039003B0087
:10183C003D003F0041000D000B00090007000500B2
:10184C0003000E00100014004200360038003A006D
:10185C003C003E00400016001700180019001A004A
:10186C001B001C001D001E001F0020002100220078
:10187C002300240025000000000073029301C00126
:0A188C00C0023102CF0123022C003C
:00000001FF
