:020000040000FA
:100000000C943E010C946F010C946F010C946F01E1
:100010000C946F010C946F010C946F010C946F01A0
:100020000C946F010C946F010C946F010C946F0190
:100030000C946F010C946F010C946F010C946F0180
:100040000C946F010C946F010C946F010C946F0170
:100050000C946F010C946F010C946F010C94360892
:100060000C946F010C9400080C94D6070C946F014B
:100070000C946F010C946F010C946F010C946F0140
:100080000C946F010C946F010C946F010C946F0130
:100090000C94A0070C9476070C946F010C946F01DC
:1000A0000C946F010C946F010C946F010C946F0110
:1000B0000C946F010C946F010C946F010C946F0100
:1000C0000C946F010C946F010C946F010C946F01F0
:1000D0000C946F010C946F010C946F010C946F01E0
:1000E0000C946F010C941E030C940C030C942403C9
:1000F0000C94F7020C94F7010C9436030C94AE05A3
:100100000C942C030C9432030C9410030C94C60131
:100110000C94E9010C9498010C9480080C94310320
:100120000C94F1020C9428030C9499010C941A037A
:100130000C94FF020C9439020C94FB020C9486027E
:100140000C9403030C94D5010C9457040C941B0ECF
:100150000C9406030C9416030000210024002700D1
:100160002A002D00300033000101000004010701C6
:100170000A0100002200250028002B002E0031007B
:10018000340002010000050108010B0100002000FD
:100190002300260029002C002F003200000100005F
:1001A00003010601090105050505070508080808FA
:1001B000020202020A0A08080404040401010101FF
:1001C00001010101030303030303030304070707FA
:1001D0000C0C0C0C0C0C0C0C02020202060606069F
:1001E000060606060B0B0B0B0B0B0B0B010210206C
:1001F000200808102040102040800201020108045D
:1002000002010102040810204080804020100804F0
:100210000201800402018040201008040201080449
:10022000020101020408102040800102040810208D
:10023000408000000A0B02090C0D0E0807030401A0
:1002400000000000000000000000000000000000AE
:10025000000000000000000000000000000012117B
:10026000100000000000000000000000000000007E
:10027000000000000000000080081B0E11241FBEBB
:10028000CFEFD1E2DEBFCDBF00E00CBF24E0A6E39C
:10029000B3E001C01D92AF3DB207E1F713E0A0E06B
:1002A000B2E0EAEDF1E200E00BBF02C007900D9270
:1002B000A633B107D9F711E0CDE3D1E000E006C0E5
:1002C00021970109802FFE010E94B20ECC33D10785
:1002D00080E00807A9F70E94F4080C94DB100C9446
:1002E0000000FC01A089B18982E08C93A485B585CA
:1002F0001C92A685B7858FEC8C93108EA489B58946
:1003000086E08C93A289B3898C9180618C93A289B9
:10031000B3898C9188608C93A289B3898C91806811
:100320008C930288F389E02D80818F7D80830895EE
:100330000895AF92BF92CF92DF92EF92FF920F9308
:100340001F93CF93DF936C017B018B01040F151F6B
:10035000EB015E01AE18BF08C017D10759F06991D3
:10036000D601ED91FC910190F081E02DC601199527
:10037000892B79F7C501DF91CF911F910F91FF90E4
:10038000EF90DF90CF90BF90AF900895FC01538D18
:10039000448D252F30E0842F90E0821B930B54175F
:1003A00010F0CF96089501970895FC01918D828DEC
:1003B000981761F0A28DAE0FBF2FB11D5D968C9185
:1003C000928D9F5F9F73928F90E008958FEF9FEFC4
:1003D0000895FC01918D828D981731F0828DE80F80
:1003E000F11D858D90E008958FEF9FEF0895FC013A
:1003F000918D228D892F90E0805C9F4F821B910907
:100400008F739927089583E893E00E94F70121E014
:10041000892B09F420E0822F089580E294E00E9465
:10042000F70121E0892B09F420E0822F0895FC01D7
:10043000A48DA80FB92FB11DA35ABF4F2C91848D45
:1004400090E001968F739927848FA689B7892C93A2
:10045000A089B1898C91837080648C93938D848DF5
:10046000981306C00288F389E02D80818F7D8083F8
:100470000895EF92FF920F931F93CF93DF93EC01B8
:1004800081E0888F9B8D8C8D98131AC0E889F9893B
:10049000808185FF15C09FB7F894EE89FF8960833E
:1004A000E889F98980818370806480839FBF81E0BF
:1004B00090E0DF91CF911F910F91FF90EF90089501
:1004C000F62E0B8D10E00F5F1F4F0F731127E02EDC
:1004D0008C8D8E110CC00FB607FCFACFE889F98914
:1004E000808185FFF5CFCE010E941702F1CFEB8D01
:1004F000EC0FFD2FF11DE35AFF4FF0829FB7F894E8
:100500000B8FEA89FB8980818062CFCFCF93DF9305
:10051000EC01888D8823B9F0AA89BB89E889F9891B
:100520008C9185FD03C0808186FD0DC00FB607FC50
:10053000F7CF8C9185FFF2CF808185FFEDCFCE0183
:100540000E941702E9CFDF91CF91089580E090E0FB
:10055000892B29F00E940D0281110E94000080E089
:1005600090E0892B29F00E94030281110E94000073
:1005700080E090E0892B49F080E090E0892B29F021
:100580000E94000081110E94000080E090E0892B11
:1005900049F080E090E0892B29F00E940000811151
:1005A0000C94000008958150823108F05AC0E82F61
:1005B000F0E08827E152FD4F8F4F0C94B20EFF02FE
:1005C0000303F102F702FB02310306030C031003DD
:1005D00016031A031E032403280331032C033203DA
:1005E0003603809180008F778093800008958091FA
:1005F00080008F7DF9CF80918000877FF5CF84B513
:100600008F7784BD089584B58F7DFBCF8091B00036
:100610008F778093B00008958091B0008F7DF9CFDF
:10062000809190008F778093900008958091900042
:100630008F7DF9CF80919000877FF5CF8091A000CA
:100640008F778093A00008958091A0008F7DF9CFCF
:100650008091A000877FF5CF809120018F778093D4
:1006600020010895809120018F7DF9CF8091200194
:10067000877FF5CFCF93DF93282F30E0F901EE5C31
:10068000FD4F8491F901E451FE4FD491F901EA55EF
:10069000FE4FC491CC23A1F081110E94D302EC2F14
:1006A000F0E0EE0FFF1FE457FE4FA591B491EC91DF
:1006B000ED2381E090E009F480E0DF91CF9108958F
:1006C00080E090E0FACF1F93CF93DF93282F30E0A4
:1006D000F901EE5CFD4F8491F901E451FE4FD49194
:1006E000F901EA55FE4FC491CC23A9F0162F8111D0
:1006F0000E94D302EC2FF0E0EE0FFF1FEE58FE4FEA
:10070000A591B4918FB7F894EC91111108C0D095D0
:10071000DE23DC938FBFDF91CF911F910895DE2BF5
:10072000F8CFCF93DF9390E0FC01E451FE4F24918A
:100730008A559E4FFC0184918823D1F090E0880F68
:10074000991FFC01E85AFE4FA591B491FC01EE58A7
:10075000FE4FC591D49161110EC09FB7F8948C9152
:10076000E22FE0958E238C932881E223E8839FBFBC
:10077000DF91CF9108958FB7F894EC91E22BEC9331
:100780008FBFF6CF3FB7F89480913B0390913C0325
:10079000A0913D03B0913E0326B5A89B05C02F3F15
:1007A00019F00196A11DB11D3FBFBA2FA92F982F97
:1007B0008827BC01CD01620F711D811D911D42E092
:1007C000660F771F881F991F4A95D1F708958F925A
:1007D0009F92AF92BF92CF92DF92EF92FF924B0126
:1007E0005C010E94C2036B017C010E94C2036C1970
:1007F0007D098E099F09683E734081059105A8F324
:1008000021E0821A9108A108B10888EEC80E83E0A1
:10081000D81EE11CF11C81149104A104B10429F734
:10082000FF90EF90DF90CF90BF90AF909F908F9010
:1008300008952FB7F8946091370370913803809131
:10084000390390913A032FBF08950F931F930E948D
:10085000190460938B0370938C0380938D039093A2
:100860008E0383E893E00E94D50197FF1DC00E948C
:10087000190400918B0310918C0320918D0330910A
:100880008E03601B710B820B930B009187031091F9
:1008900088032091890330918A03601771078207CA
:1008A0009307F8F28FEF9FEF1F910F91089590E05B
:1008B00080E00895CF93DF93EC0160E08E810E9489
:1008C000630361E08E810E94630360E08E810E9479
:1008D00063038BE891E00197F1F7DF91CF910895E1
:1008E000CF92DF92EF92FF920F931F93CF93DF93FC
:1008F0006C017C0187E0E80EF11CD0E0C0E0062F1F
:1009000010E0B8010C2E02C0759567950A94E2F7C5
:100910006170F70181917F010E9463032196C430C9
:10092000D10579F7C601DF91CF911F910F91FF900B
:10093000EF90DF90CF900C945A04CF92DF92EF9219
:10094000FF920F931F93CF93DF93EC01F62E642F4A
:100950008C810E9463038D818F3F19F060E00E94BB
:1009600063030F2D10E08F8584FF25C06E0187E0A3
:10097000C80ED11CF12CE12CB8010E2C02C07595CB
:1009800067950A94E2F76170F60181916F010E9408
:100990006303FFEFEF1AFF0A88E0E816F10461F73E
:1009A000CE01DF91CF911F910F91FF90EF90DF90DB
:1009B000CF900C945A04B80184E0759567958A9598
:1009C000E1F7CE010E9470046F2DCE01DF91CF912F
:1009D0001F910F91FF90EF90DF90CF900C947004D7
:1009E00040E0682F8DEB94E00C949D0481E00E9420
:1009F000F0048BE39FE10197F1F70895CF93DF9324
:100A0000823029F49091CC0498609093CC04809328
:100A1000D0041092D10480E48093D20480E18093CA
:100A2000D30480E58093D40461E08091C1040E94E6
:100A300091038091C2048F3F19F061E00E949103FD
:100A400061E08091C3040E949103CDEBD4E09E014C
:100A50002D5B34408091CC0484FD0BC084E090E099
:100A600021962817390744F461E08E810E94910392
:100A7000EECF88E090E0F4CF8BE39DE00197F1F7B3
:100A800060E08091C1040E94630360E08091C30430
:100A90000E9463038091C2048F3F19F060E00E94BE
:100AA00063038091CC0484FD34C063E08DEB94E05B
:100AB0000E947004CBE4D6E4CE010197F1F763E025
:100AC0008DEB94E00E9470042197F1F763E08DEBC9
:100AD00094E00E94700483E592E00197F1F762E0F0
:100AE0008DEB94E00E9470048091CC0480620E949F
:100AF000F00484E08093CD048CE00E94F0040E9416
:100B0000F60482E08093CE0486E0DF91CF910C94CE
:100B1000F00480620E94F0048BE496E40197F1F700
:100B20008091CC0480620E94F00483E592E00197FA
:100B3000F1F78091CC0480620E94F004D5CF9091AF
:100B4000D004691710F06FEF690FE62FF0E0E3545F
:100B5000FB4F9489890F80680C94F00441E00E9457
:100B60009D0481E090E008950F931F93CF93DF934E
:100B70008B01877028E0829FC001112480640E944D
:100B8000F004E801085F1F4F69918DEB94E00E942B
:100B9000AE05C017D107C1F7DF91CF911F910F911B
:100BA0000895009769F0FC0101900020E9F7319762
:100BB000AF01481B590BBC018DEB94E00C949901DB
:100BC00090E080E008958F929F92AF92BF92CF9273
:100BD000DF92EF92FF92CF93DF93CDB7DEB7A1976D
:100BE0000FB6F894DEBF0FBECDBF6C01990FEE08B3
:100BF000FF08F7FE3AC041E06DE28DEB94E00E9401
:100C00009D0422273327A9012C193D094E095F09AC
:100C100019A2CE0181967C019AE0892E912CA12CFB
:100C2000B12CCA01B901A50194010E94900E605D2A
:100C3000F70162937F01211531054105510589F7BF
:100C4000CF010E94D1050196A1960FB6F894DEBFA0
:100C50000FBECDBFDF91CF91FF90EF90DF90CF908F
:100C6000BF90AF909F908F900895A701960119A211
:100C7000CE0181967C018AE0882E912CA12CB12C8A
:100C8000CA01B901A50194010E94900E605DF701AF
:100C900062937F01211531054105510589F7CF0187
:100CA0000E94D105D1CF0F931F93CF93DF938C0177
:100CB000EB01FC01808191810097E1F068817981ED
:100CC00061157105A9F0428153812C813D81421744
:100CD000530770F00E94D4108C819D81F801958398
:100CE00084831D821C82DF91CF911F910F91089503
:100CF0000E94560F88819981F801918380838A81AF
:100D00009B81938382838C819D81958384831982C7
:100D100018821B821A82E5CFCF93DF93EC01888182
:100D20009981009711F00E94560F198218821D8236
:100D30001C821B821A82DF91CF910895FC01808171
:100D40009181009711F00C94560F08950F931F9303
:100D5000CF93DF93EC0188819981009759F02A8124
:100D60003B812617370730F081E0DF91CF911F914B
:100D70000F9108958B016F5F7F4F0E94DF0F0097E7
:100D800059F0998388831B830A832C813D81232B0F
:100D900059F7FC011082E8CF80E0E7CFEF92FF9295
:100DA0000F931F93CF93DF9341155105B1F07B0152
:100DB000EC010C811D81040F151FB8010E94A606CD
:100DC000882361F0288139818C819D81B701820F50
:100DD000931F0E94D4101D830C8381E0DF91CF917B
:100DE0001F910F91FF90EF900895EF92FF920F9354
:100DF0001F93CF93DF93EC017B018A01BA010E941C
:100E0000A60681110BC0CE010E948C06CE01DF9197
:100E1000CF911F910F91FF90EF9008951D830C8348
:100E2000B701888199810E94D410F0CFFC01118212
:100E30001082138212821582148250E040E065E134
:100E400073E00C94F506AF92BF92CF92DF92EF92CF
:100E5000FF920F931F93CF93DF937C016B015A0195
:100E600089012417350720F48B2D5901042F182FE1
:100E7000C7010E941607D6011496CD91DC91AC16DD
:100E8000BD0620F50C171D0708F4E801D601ED9109
:100E9000FC911197EC0FFD1F108110826D917C91D8
:100EA0006A0D7B1D61157105E9F0FB0101900020C1
:100EB000E9F73197AF01461B570BC7010E94F506B2
:100EC000F60180819181C80FD91F1883C701DF9176
:100ED000CF911F910F91FF90EF90DF90CF90BF9037
:100EE000AF900895C7010E948C06EACF1F920F921F
:100EF0000FB60F9211240BB60F922F933F934F937F
:100F00005F936F937F938F939F93AF93BF93EF9371
:100F1000FF9383E893E00E941702FF91EF91BF9146
:100F2000AF919F918F917F916F915F914F913F9181
:100F30002F910F900BBE0F900FBE0F901F90189522
:100F40001F920F920FB60F9211240BB60F922F9390
:100F50008F939F93EF93FF93E0919303F09194030A
:100F60008081E0919903F0919A0382FD1DC09081E8
:100F700080919C038F5F8F7320919D03821741F0B6
:100F8000E0919C03F0E0ED57FC4F958F80939C031C
:100F9000FF91EF919F918F912F910F900BBE0F902A
:100FA0000FBE0F901F9018958081F2CF1F920F9265
:100FB0000FB60F9211240BB60F922F933F934F93BE
:100FC0005F936F937F938F939F93AF93BF93EF93B1
:100FD000FF9380E294E00E941702FF91EF91BF918E
:100FE000AF919F918F917F916F915F914F913F91C1
:100FF0002F910F900BBE0F900FBE0F901F90189562
:101000001F920F920FB60F9211240BB60F922F93CF
:101010008F939F93EF93FF93E0913004F09131040D
:101020008081E0913604F091370482FD1DC09081EB
:10103000809139048F5F8F7320913A04821741F0B9
:10104000E0913904F0E0E05EFB4F958F8093390426
:10105000FF91EF919F918F912F910F900BBE0F9069
:101060000FBE0F901F9018958081F2CF1F920F92A4
:101070000FB60F9211242F933F938F939F93AF93AB
:10108000BF938091370390913803A0913903B091B9
:101090003A033091360323E0230F2D3758F501969C
:1010A000A11DB11D2093360380933703909338031D
:1010B000A0933903B0933A0380913B0390913C0392
:1010C000A0913D03B0913E030196A11DB11D8093F7
:1010D0003B0390933C03A0933D03B0933E03BF9129
:1010E000AF919F918F913F912F910F900FBE0F90D5
:1010F0001F90189526E8230F0296A11DB11DD2CF8F
:10110000E3E8F3E01382128248EE53E060E070E01F
:1011100044835583668377838AEC92E0918380834E
:101120002DEC30E0358724872CEC30E0378726879C
:1011300028EC30E0318B208B29EC30E0338B228B94
:101140002AEC30E0358B248B2EEC30E0378B268B6D
:10115000118E128E138E148EE0E2F4E0138212824E
:1011600044835583668377839183808385EC90E005
:101170009587848784EC90E09787868780EC90E061
:10118000918B808B81EC90E0938B828B82EC90E052
:10119000958B848B86EC90E0978B868B118E128ECC
:1011A000138E148E85ED94E00E941607EDEBF4E0AB
:1011B000138212828CED92E09183808386E2848395
:1011C0008FEF858387E2868388E2878389E2808741
:1011D0008AE281878BE282871386148615861686BB
:1011E000178681E00C94FE04CF93DF93CDB7DEB772
:1011F000C659D1090FB6F894DEBF0FBECDBF7894A3
:1012000084B5826084BD84B5816084BD85B582600B
:1012100085BD85B5816085BD80916E0081608093BC
:101220006E00109281008091810082608093810025
:101230008091810081608093810080918000816035
:10124000809380008091B10084608093B100809190
:10125000B00081608093B0008091910082608093A3
:101260009100809191008160809391008091900025
:101270008160809390008091A10082608093A100A2
:101280008091A10081608093A1008091A000816085
:101290008093A00080912101826080932101809140
:1012A00021018160809321018091200181608093E0
:1012B000200180917A00846080937A0080917A0086
:1012C000826080937A0080917A00816080937A00B6
:1012D00080917A00806880937A001092C10080E249
:1012E00094E00E94710183E893E00E94710106EA94
:1012F00012E0F80180810E5F1F4F60E00E949103B1
:10130000F2E0063C1F07A9F7F6E6EF2EF2E0FF2E0B
:1013100006E812E0F80180810E5F1F4F61E00E9435
:101320009103F7018081F2E0EF0EF11C61E00E9471
:10133000910322E0063A120769F761E084E40E9413
:10134000910361E085E40E94910382E00E94FE0423
:1013500068E372E086E00E94B40560E372E082E038
:101360000E94B40568E272E083E00E94B40560E286
:1013700072E084E00E94B40568E172E085E00E94BA
:10138000B40560E172E087E00E94B40568E072E0B5
:1013900088E00E94B40560E072E089E00E94B40534
:1013A0000E94190460934F0370935003809351037C
:1013B00090935203CE0101963C012E0199E7490E0C
:1013C000511CFE01EF59FF4FC557DF4FF983E883EA
:1013D000CB58D04023E633E0CB56DF4F3983288308
:1013E000C559D04063E5A62E63E0B62E76E6872E7B
:1013F00072E0972EE6E82E2EE2E03E2E86EA92E09C
:10140000CD56DF4F99838883C359D0408901C15796
:10141000DF4F19821882CF58D040C357DF4F19824F
:101420001882CD58D040CF56DF4F19821882C1594B
:10143000D040CD56DF4FE881F981C359D04080813B
:101440003296CD56DF4FF983E883C359D040F1017E
:10145000C080F2E02F0E311CF401D080F2E08F0E3C
:10146000911CF801208131812230310509F4B6C088
:10147000F50190819111B2C00E943A037C0101975D
:1014800009F092C061E08C2D0E94630360E08D2D15
:101490000E946303F801F182E082CF56DF4F28817A
:1014A0003981C159D0402F5F3F4FCF56DF4F39832D
:1014B0002883C159D0400E5F1F4F3FEFA31AB30AD4
:1014C00083E893E08017910709F0B3CF46E4C42E78
:1014D00042E0D42E53E6E52E53E0F52EF70181913C
:1014E00091917F01892B09F0B0C0F6018081918133
:1014F000019709F0AAC061E085E40E946303CE0170
:101500008B579F4F0E94160733E6E32E33E0F32EEE
:101510004AE0B301F701819191917F010E94460E4B
:10152000F30101900020E9F73197AF0146195709FF
:10153000B301CE018B579F4F0E94CE0641E050E091
:1015400064EE72E0CE018B579F4F0E94CE060E15BF
:101550001F05F1F6C757DF4F48815981C958D04060
:10156000CB57DF4F68817981C558D04083E893E03D
:101570000E94990164E670E080E090E00E94E70339
:10158000CE0181589F4F0E9416070E94250497FDA7
:1015900068C089831A8241E050E0B301CE018158CE
:1015A0009F4F0E94CE06F1CF60E08C2D0E94630316
:1015B00061E08D2D0E946303F80111821082C357F0
:1015C000DF4F28813981CD58D0402F5F3F4FC3571F
:1015D000DF4F39832883CD58D0406DCF0E943A0326
:1015E0008130910509F5F8019183808361E08C2DAC
:1015F0000E94630360E08D2D0E94630381E0F5018A
:10160000808361E084E40E946303C157DF4F288137
:101610003981CF58D0402F5F3F4FC157DF4F3983BB
:101620002883CF58D04047CF22E030E0F801318303
:10163000208361E08C2D0E94630361E08D2D0E9468
:101640006303F501108260E0DDCF60E085E40E9475
:101650006303F2E0CF0ED11C0E151F0509F03ECF3B
:101660004ECF73018301C8010E9416070A5F1F4F06
:1016700004151505C1F76301CD57DF4F88809980A8
:10168000C358D0408114910409F1C158DF4FA8809C
:10169000B980CF57D0406CE270E0C5010E94C910FC
:1016A0001601009751F08C010A191B09F6E0CF0EC4
:1016B000D11C0F3F100709F028C1A114B10409F48F
:1016C00020C1A401B501C1010E94F506F701808186
:1016D0009181009709F442C10E941F0ECB56DF4F43
:1016E000E881F981C559D04061937193CB56DF4FA2
:1016F000F983E883C559D040F6E0EF0EF11CC557D9
:10170000DF4F28813981CB58D040E216F306F1F63D
:1017100064EF71E080E090E00E94E703C357DF4F81
:1017200088819981CD58D040892B09F01BC10E9436
:10173000190400914F0310915003209151033091EF
:101740005203601B710B820B930B683E7340810543
:10175000910508F46FC00E94190460934F037093C1
:10176000500380935103909352030E94F60461E06A
:1017700086E00E949F0586EE92E00E94D10561E01E
:1017800087E00E949F0588EE92E00E94D10561E00B
:1017900088E00E949F058AEE92E00E94D10561E0F8
:1017A00089E00E949F0566E08DEB94E00E94AE0503
:1017B00061E08AE00E949F058CEE92E00E94D105D4
:1017C00060E087E00E949F0566E08DEB94E00E9458
:1017D000AE0560E088E00E949F0568E08DEB94E034
:1017E0000E94AE0560E089E00E949F0588EE92E0CD
:1017F0000E94D10561E08DE00E949F058EEE92E08F
:101800000E94D10560E08DE00E949F058EEE92E07F
:101810000E94D10561E083E00E949F058EEE92E078
:101820000E94D10560E083E00E949F058EEE92E069
:101830000E94D1050E94190400914F03109150039A
:101840002091510330915203601B710B820B930B5B
:10185000683E734081059105E0F10E941904609390
:101860004F037093500380935103909352030E944F
:10187000F60460E085E00E949F0580EF92E00E9400
:10188000D10561E086E00E949F0588EF92E00E940A
:10189000D10561E08DE00E949F058EEE92E00E94EE
:1018A000D10560E08DE00E949F058EEE92E00E94DF
:1018B000D10561E083E00E949F058EEE92E00E94D8
:1018C000D10560E083E00E949F058EEE92E00E94C9
:1018D000D1058E0107581F4F06501109C8010E94FB
:1018E0009E0660167106C1F7CE0181589F4F0E9477
:1018F0009E06CE018B579F4F0E949E060E94A60215
:1019000069CDC1010E948C06E1CE980150E040E013
:10191000BE0161587F4FC2010E942307B201C1017D
:101920000E945306C2010E949E06CD57DF4F2881B8
:101930003981C358D040A8014F5F5F4FBE01615845
:101940007F4FC2010E942307B201CE0181589F4FF1
:101950000E945306C2010E949E068ECE60E070E097
:10196000CB01BCCE0E941904AB01BC0180914B039A
:1019700090914C03A0914D03B0914E0388579C4E1B
:10198000AF4FBF4F84179507A607B70710F50E9402
:10199000190460934B0370934C0380934D03909311
:1019A0004E0360E080E00E949F058EEF92E00E946F
:1019B000D10561E080E00E949F0588E093E00E94ED
:1019C000D105C357DF4F88819981CD58D0400E94FF
:1019D000E3050E941904AB01BC018091470390917B
:1019E0004803A0914903B0914A03885A944EAF4FDF
:1019F000BF4F84179507A607B70720F50E94190463
:101A000060934703709348038093490390934A037C
:101A10000E94F60460E080E00E949F058EEF92E055
:101A20000E94D10561E080E00E949F0586E193E07D
:101A30000E94D105CF56DF4F88819981C159D0408E
:101A40000E94E3050E941904AB01BC01809143038D
:101A500090914403A0914503B09146038850954D61
:101A6000AF4FBF4F84179507A607B70720F50E9411
:101A70001904609343037093440380934503909348
:101A800046030E94F60460E080E00E949F058EEF0E
:101A900092E00E94D10561E080E00E949F0581E212
:101AA00093E00E94D105C157DF4F88819981CF58BB
:101AB000D0400E94E3050E941904AB01BC01809153
:101AC0003F0390914003A0914103B0914203885697
:101AD000954CAF4FBF4F84179507A607B70708F07F
:101AE000F8CE0E94190460933F03709340038093E3
:101AF00041039093420311E0FF24FA94F10E61E058
:101B0000812F0E949F0586EE92E00E94D10501E0A0
:101B1000010F61E0802F0E949F0564E08DEB94E04F
:101B20000E94AE0582E0D82ED10E61E08D2D0E947C
:101B30009F058AEE92E00E94D10593E0E92EE10E26
:101B400061E08E2D0E949F0564E08DEB94E00E9481
:101B5000AE0561E084E0810F0E949F058CEE92E06B
:101B60000E94D10560E0802F0E949F0588EE92E0E0
:101B70000E94D10560E08D2D0E949F0568E08DEBED
:101B800094E00E94AE0560E08E2D0E949F0569E002
:101B90008DEB94E00E94AE0526E0E22EE10E61E0BE
:101BA0008E2D0E949F0563E08DEB94E00E94AE05B0
:101BB00060E08E2D0E949F0563E08DEB94E00E9413
:101BC000AE0560E08FE00E949F0562E08DEB94E03F
:101BD0000E94AE0561E08FE00E949F0562E08DEB00
:101BE00094E00E94AE0560E086EF810F0E949F05A1
:101BF0008EE293E00E94D10561E08F2D0E949F0547
:101C000063E08DEB94E00E94AE0560E08F2D0E94B2
:101C10009F0563E08DEB94E00E94AE0564E670E002
:101C200080E090E00E94E7030E94F604102F093143
:101C300009F062CF4ECE85ED94E00C949E061F9382
:101C4000FC0199278827BC01E89411911032E9F32F
:101C5000193010F01E30C8F31B3251F01D3249F418
:101C6000689406C00E94510E610F711D811D911D67
:101C7000119110531A30B0F33EF490958095709501
:101C800061957F4F8F4F9F4F1F910895BB274A301B
:101C900031F4992322F4BDE2909581959F4F0C94E5
:101CA000670E592F482F372F262F660F771F881F53
:101CB000991F660F771F881F991F620F731F841F5C
:101CC000951F660F771F881F991F0895BB27FB017B
:101CD0005527AA27880F991FAA1FA41710F0A41B25
:101CE00083955051B9F7A05DAA3308F0A95DA1937F
:101CF000009779F7B111B1931192CB010C94800E3A
:101D0000DC01FC01672F71917723E1F7329704C062
:101D10007C916D9370836291AE17BF07C8F30895ED
:101D2000A1E21A2EAA1BBB1BFD010DC0AA1FBB1FDF
:101D3000EE1FFF1FA217B307E407F50720F0A21B51
:101D4000B30BE40BF50B661F771F881F991F1A94BE
:101D500069F760957095809590959B01AC01BD01E8
:101D6000CF010895EE0FFF1F881F8BBF0790F691DC
:101D7000E02D19940F931F93CF93DF938230910539
:101D800010F482E090E0E091DD04F091DE0430E0B8
:101D900020E0B0E0A0E0309799F42115310509F476
:101DA0004AC0281B390B24303105D8F58A819B8124
:101DB0006115710589F1FB0193838283FE0111C0D6
:101DC000408151810281138148175907E0F048177B
:101DD000590799F4109761F012960C931297139685
:101DE0001C933296CF01DF91CF911F910F910895EF
:101DF0000093DD041093DE04F4CF2115310551F07A
:101E00004217530738F0A901DB019A01BD01DF0138
:101E1000F801C1CFEF01F9CF9093DE048093DD0488
:101E2000CDCFFE01E20FF31F819391932250310930
:101E300039832883D7CF2091DB043091DC04232B16
:101E400041F420914202309143023093DC0420930C
:101E5000DB0420914002309141022115310541F40B
:101E60002DB73EB74091440250914502241B350BDB
:101E7000E091DB04F091DC04E217F307A0F42E1BE1
:101E80003F0B2817390778F0AC014E5F5F4F2417DE
:101E9000350748F04E0F5F1F5093DC044093DB047E
:101EA000819391939FCFF0E0E0E09CCFCF93DF93BD
:101EB0000097E9F0FC01329713821282A091DD04B1
:101EC000B091DE04ED0130E020E01097A1F4208114
:101ED0003181820F931F2091DB043091DC0428179D
:101EE000390709F061C0F093DC04E093DB04DF9173
:101EF000CF910895EA01CE17DF07E8F54A815B81AB
:101F00009E0141155105B1F7E901FB83EA8349912F
:101F10005991C40FD51FEC17FD0761F480819181A1
:101F20000296840F951FE9019983888382819381AA
:101F30009B838A83F0E0E0E012968D919C91139749
:101F40000097B9F52D913C911197CD010296820F22
:101F5000931F2091DB043091DC042817390739F6F0
:101F6000309751F51092DE041092DD04B093DC043A
:101F7000A093DB04BCCFD383C28340815181840F03
:101F8000951FC817D90761F44E5F5F4F888199810B
:101F9000480F591F518340838A819B819383828399
:101FA0002115310509F0B0CFF093DE04E093DD0494
:101FB0009ECFFD01DC01C0CF13821282D7CF4F929A
:101FC0005F926F927F928F929F92AF92BF92CF92C9
:101FD000DF92EF92FF920F931F93CF93DF938C01C9
:101FE000009799F4CB01DF91CF911F910F91FF9052
:101FF000EF90DF90CF90BF90AF909F908F907F90A9
:102000006F905F904F900C94BA0EFC01E60FF71F93
:102010009C0122503109E217F30708F4AEC0D90140
:10202000CD91DC911197C617D70720F1C530D105A6
:1020300078F0CE0104978617970750F0C61BD70B90
:102040002297C193D1936D937C93CF010E94560F39
:10205000C801DF91CF911F910F91FF90EF90DF901A
:10206000CF90BF90AF909F908F907F906F905F9038
:102070004F9008955B01AC1ABD0A4C018C0E9D1E59
:10208000A091DD04B091DE04512C412CF12CE12C07
:10209000109731F58091DB049091DC048815990547
:1020A00009F05CC04616570608F058C080914002FF
:1020B00090914102009741F48DB79EB74091440240
:1020C00050914502841B950BE817F90708F055C09D
:1020D000F093DC04E093DB04F90171836083B8CFF3
:1020E0008D919C91119712966C90129713967C90FB
:1020F0001397A815B90559F56C0142E0C40ED11C1F
:10210000CA14DB0420F1AC014A195B09DA0112960A
:10211000159780F06282738251834083D9016D9359
:102120007C93E114F10471F0D7011396FC93EE93C4
:1021300012978ECF22968C0F9D1FF9019183808379
:10214000F301EFCFF093DE04E093DD0481CF481676
:10215000590608F42C017D01D3019ACFCB010E94CE
:10216000BA0E7C01009749F0AE01B8010E94C01080
:10217000C8010E94560F87016BCF10E000E068CFC6
:10218000FB01DC0102C001900D9241505040D8F794
:102190000895FC018191861721F08823D9F79927AA
:1021A00008953197CF010895FB01DC0101900D9254
:1021B0000020E1F7089511E0CDE3D1E000E006C092
:1021C000802FFE010E94B20E2196011DCE33D10751
:1021D00080E00807A9F7F894FFCF181E06030F0F39
:1021E0000F0F1F1F00001F1F1F001F1F00001F1FBA
:1021F0001F001F1F0303031F1F0000000E1F1B1FD4
:102200000E0004061F1F06040000040E1F0E0E0E13
:1022100000000010180C060301000000DF0480001D
:1022200000000000000000000000000000000000AE
:10223000000000000000000000000000000000009E
:102240000C000A0008000600040002000F00110044
:1022500015004300370039003B003D003F004100BE
:102260000D000B0009000700050003000E00100020
:1022700014004200360038003A003C003E004000A6
:1022800016001700180019001A001B001C001D0082
:102290001E001F0020002100220023002400250032
:1022A0000000000039029901C6018602F701D5013C
:1022B000E90100000000AE059901570498012C00C7
:1022C0005B002F005F005D005800504152515545A2
:1022D0004F004C4C454E4F005041525155454F53C5
:1022E0002000444953504F4E49424C45533A200038
:1022F0003043555041444F533A20005245534552C4
:102300005641444F533A20004156414E4345000048
:020000040003F7
:10E000000D9489F10D94B2F10D94B2F10D94B2F129
:10E010000D94B2F10D94B2F10D94B2F10D94B2F1F0
:10E020000D94B2F10D94B2F10D94B2F10D94B2F1E0
:10E030000D94B2F10D94B2F10D94B2F10D94B2F1D0
:10E040000D94B2F10D94B2F10D94B2F10D94B2F1C0
:10E050000D94B2F10D94B2F10D94B2F10D94B2F1B0
:10E060000D94B2F10D94B2F10D94B2F10D94B2F1A0
:10E070000D94B2F10D94B2F10D94B2F10D94B2F190
:10E080000D94B2F10D94B2F10D94B2F10D94B2F180
:10E090000D94B2F10D94B2F10D94B2F10D94B2F170
:10E0A0000D94B2F10D94B2F10D94B2F10D94B2F160
:10E0B0000D94B2F10D94B2F10D94B2F10D94B2F150
:10E0C0000D94B2F10D94B2F10D94B2F10D94B2F140
:10E0D0000D94B2F10D94B2F10D94B2F10D94B2F130
:10E0E0000D94B2F141546D656761323536300041AF
:10E0F000726475696E6F206578706C6F72657220DE
:10E1000073746B3530305632206279204D4C530099
:10E11000426F6F746C6F616465723E004875683F52
:10E1200000436F6D70696C6564206F6E203D200048
:10E130004350552054797065202020203D20005FF9
:10E140005F4156525F415243485F5F3D2000415658
:10E1500052204C696243205665723D20004743437C
:10E160002056657273696F6E203D20004350552024
:10E1700049442020202020203D20004C6F7720663D
:10E18000757365202020203D20004869676820665F
:10E190007573652020203D200045787420667573D6
:10E1A00065202020203D20004C6F636B2066757336
:10E1B000652020203D20004D617220203720323024
:10E1C000313300312E362E3800342E332E350056A2
:10E1D00023202020414444522020206F7020636F70
:10E1E00064652020202020696E73747275637469E1
:10E1F0006F6E2061646472202020496E74657272B3
:10E20000757074006E6F20766563746F7200726A49
:10E210006D702020006A6D70200057686174207056
:10E220006F72743A00506F7274206E6F7420737541
:10E2300070706F72746564004D7573742062652030
:10E2400061206C6574746572002000577269747483
:10E25000696E672045450052656164696E672045B7
:10E26000450045452065727220636E743D00504F35
:10E27000525400303D5A65726F2061646472003FF1
:10E280003D43505520737461747300403D454550C3
:10E29000524F4D207465737400423D426C696E6B41
:10E2A000204C454400453D44756D70204545505215
:10E2B0004F4D00463D44756D7020464C415348001B
:10E2C000483D48656C70004C3D4C69737420492F83
:10E2D0004F20506F72747300513D51756974005234
:10E2E0003D44756D702052414D00563D73686F7707
:10E2F00020696E7465727275707420566563746FF0
:10E30000727300593D506F727420626C696E6B00BD
:10E310002A0011241FBECFEFD1E2DEBFCDBF01E046
:10E320000CBF12E0A0E0B2E0EEE1FDEF03E00BBFB6
:10E3300002C007900D92A030B107D9F712E0A0E01B
:10E34000B2E001C01D92AE30B107E1F70F9460F367
:10E350000D948DFE01E20EBF0FEF0DBF11241FBE05
:10E360000D9460F30D9400F020E030E040ED57E0B4
:10E3700005C0FA013197F1F72F5F3F4F2817390792
:10E38000C0F308959C01260F311DC901A0E0B0E043
:10E390002F5F3F4FABBFFC018791882361F08093D3
:10E3A000C6008091C00086FFFCCF8091C0008064D1
:10E3B0008093C000EACF08958DE08093C6008091DD
:10E3C000C00086FFFCCF8091C00080648093C000B5
:10E3D0008AE08093C6008091C00086FFFCCF8091C8
:10E3E000C00080648093C00008950F94C2F10F9420
:10E3F000DCF10895FC019081992359F09093C600B7
:10E400008091C00086FFFCCF8091C0008064809323
:10E41000C0003196992379F70895282F982F929567
:10E420009F70892F805D8A3308F0895F8093C600D2
:10E430008091C00086FFFCCF8091C00080648093F3
:10E44000C000822F8F70982F905D9A3308F0995FEB
:10E450009093C6008091C00086FFFCCF8091C000E1
:10E4600080648093C00008959C01FB01853691056E
:10E470001CF46330710594F0C90164E670E00F94F8
:10E480002EFE605D7F4F6093C6008091C00086FFC6
:10E49000FCCF8091C00080648093C0002B30310598
:10E4A00014F43297B4F0C90164E670E00F942EFEC4
:10E4B0006AE070E00F942EFE605D7F4F6093C600AF
:10E4C0008091C00086FFFCCF8091C0008064809363
:10E4D000C000C9016AE070E00F942EFEC0968093E0
:10E4E000C6008091C00086FFFCCF8091C000806490
:10E4F0008093C00008951F93182F8EE692EE60E07F
:10E500000F94C2F11093C6008091C00086FFFCCF2B
:10E510008091C00080648093C0000F94DCF11F9153
:10E5200008952F923F924F925F926F927F928F92B7
:10E530009F92AF92BF92CF92DF92EF92FF920F9392
:10E540001F93DF93CF93CDB7DEB762970FB6F894E2
:10E55000DEBF0FBECDBF382E622ECA01DB015C01CB
:10E560006D01772420E2222E2E010894411C511CBB
:10E570008BC081E0A81680E0B80681E0C80680E084
:10E58000D80628F0C601AA27BB270F940DF2BB2797
:10E59000AD2D9C2D8B2D0F940DF28A2D0F940DF225
:10E5A0002092C6008091C00086FFFCCF8091C00001
:10E5B00080648093C0009DE29093C6008091C0006B
:10E5C00086FFFCCF8091C00080648093C0002092C1
:10E5D000C6008091C00086FFFCCF8091C00080649F
:10E5E0008093C00019828601750188249924A1E0D6
:10E5F0003A1651F03A1620F0B2E03B1661F409C029
:10E600000BBFF701779007C0C7010F9477FE782EF4
:10E6100002C0F7017080872D0F940DF22092C60082
:10E620008091C00086FFFCCF8091C0008064809301
:10E63000C000872D8052F401EF70F0708F3520F408
:10E64000E40DF51D708204C0E40DF51D8EE280839B
:10E650000894E11CF11C011D111D0894811C911CE2
:10E6600090E18916910409F0C2CF80E190E0A0E02A
:10E67000B0E0A80EB91ECA1EDB1E198AC2010F9493
:10E68000FAF10F94DCF16A94662009F072CF629679
:10E690000FB6F894DEBF0FBECDBFCF91DF911F91B3
:10E6A0000F91FF90EF90DF90CF90BF90AF909F9031
:10E6B0008F907F906F905F904F903F902F90089534
:10E6C0002F923F924F925F926F927F928F929F9282
:10E6D000AF92BF92CF92DF92EF92FF920F931F9370
:10E6E000DF93CF93CDB7DEB7CD53D1400FB6F894BB
:10E6F000DEBF0FBECDBF01E20EBF0FEF0DBF94B75F
:10E70000F894A89514BE80916000886180936000A1
:10E7100010926000789493FF05C0E0910002F091A0
:10E7200001021995279A2F9A8091C00082608093E8
:10E73000C00080E18093C40088E18093C1000000A4
:10E74000EE24FF24870144E0A42EB12CCC24DD2448
:10E7500024C0C5010197F1F70894E11CF11C011DCB
:10E76000111D21E2E2162EE4F20620E0020720E06D
:10E77000120718F031E0C32ED12CC801B70127ECE5
:10E780003BE140E050E00F9441FE611571058105C9
:10E79000910519F485B1805885B98091C00087FD35
:10E7A00003C0C114D104A9F2A6014F5F5F4FC25E3E
:10E7B000DE4F59834883CE51D140C25EDE4F8881FF
:10E7C0009981CE51D140019711F00D9410FEC05D9A
:10E7D000DE4F19821882C053D14060E0C15DDE4F28
:10E7E0001882CF52D14088249924C35DDE4F19820C
:10E7F0001882CD52D140C05EDE4F188219821A8233
:10E800001B82C052D140CE5CDE4F188219821A8220
:10E810001B82C253D140EE24FF2487010BBFF701B6
:10E8200007911691C45CDE4F19830883CC53D14005
:10E830000D940BFEC25EDE4F28813981CE51D1404E
:10E840002130310509F52091C600C25EDE4F1982E4
:10E850001882CE51D14022C02F5F3F4F4F4F5F4FA4
:10E86000213082E138078AE7480780E0580780F0C6
:10E87000C45CDE4FE881F981CC53D140EF5FFF4F9C
:10E8800019F0EE27FF27099420E030E040E050E047
:10E890008091C00087FFE0CF2091C600C35DDE4FAE
:10E8A00048815981CD52D1404F5F5F4FC35DDE4FEC
:10E8B00059834883CD52D140213209F063C64A3092
:10E8C000510508F05FC60894811C911C53E0851621
:10E8D000910409F059C600E010E018C081E280936D
:10E8E000C6008091C00086FFFCCF8091C00080648C
:10E8F0008093C0002F5F3F4F2931310579F70F9486
:10E90000DCF10F5F1F4F0530110519F020E030E0FA
:10E91000E5CF10920A0210920B0210920C02109294
:10E920000D02109206021092070210920802109235
:10E930000902109202021092030210920402109235
:10E9400005028FEE90EE60E00F94F5F180E191EE1C
:10E9500060E00F94C2F18091C00087FFFCCF9091DE
:10E96000C600903608F09F759032B8F09093C600BC
:10E970008091C00086FFFCCF8091C00080648093AE
:10E98000C000A0E2A093C6008091C00086FFFCCF2B
:10E990008091C00080648093C000983409F4D7C18E
:10E9A0009934B8F4923409F459C1933458F490333B
:10E9B00019F1903308F4E3C59F33A1F1903409F0C5
:10E9C000DEC5BDC0953409F470C1963409F0D7C5D1
:10E9D00098C1923509F42BC2933538F49C3409F46C
:10E9E000F5C1913509F0CBC518C2963509F445C279
:10E9F000993509F0C4C567C483E792EE62E00F94CD
:10EA0000F5F110920602109207021092080210927D
:10EA1000090210920A0210920B0210920C0210923C
:10EA20000D0213C18FE792EE62E00F94F5F18FEEC5
:10EA300090EE60E00F94F5F181E291EE60E00F94CA
:10EA4000C2F187EB91EE60E00F94F5F180E391EE77
:10EA500060E00F94C2F184EE90EE60E00F94F5F167
:10EA60008FE391EE60E00F94C2F186E090E061E008
:10EA700070E00F9434F20F94DCF18DE591EE60E0DC
:10EA80000F94C2F189EC91EE60E00F94F5F18EE401
:10EA900091EE60E00F94C2F183EC91EE60E00F9490
:10EAA000F5F18CE691EE60E00F94C2F18EE10F94E7
:10EAB0000DF288E90F940DF281E00F940DF20F949E
:10EAC000DCF18BE791EE60E00F94C2F119E0E0E039
:10EAD000F0E010935700E4918E2F0F940DF20F94F5
:10EAE000DCF18AE891EE60E00F94C2F1E3E0F0E03F
:10EAF00010935700E4918E2F0F940DF20F94DCF1D8
:10EB000089E991EE60E00F94C2F1E2E0F0E0109349
:10EB10005700E4918E2F0F940DF20F94DCF188EAE8
:10EB200091EE60E00F94C2F1E1E0F0E01093570045
:10EB30001491812F0F940DF20F94DCF107CF8BE825
:10EB400092EE62E00F94F5F18BE492EE60E00F94A8
:10EB5000F5F10F94DCF100E010E019C0C8016F2D51
:10EB60000F947FFEFF2031F489E492EE60E00F9471
:10EB7000C2F10BC0F092C6008091C00086FFFCCFAE
:10EB80008091C00080648093C0000F5F1F4FC80158
:10EB900081519F41A0E0B0E0ABBFFC01F790BAE229
:10EBA000FB1621F0E2E000301E07C1F60F94DCF105
:10EBB0000F94DCF187E592EE60E00F94F5F10F948D
:10EBC000DCF1CC24DD2400E010E01EC0C8010F946D
:10EBD00077FEF82E882331F489E492EE60E00F94FA
:10EBE000C2F10BC08093C6008091C00086FFFCCFAD
:10EBF0008091C00080648093C000FE1419F00894D6
:10EC0000C11CD11C0F5F1F4FC80181519F41A0E063
:10EC1000B0E0ABBFFC01E790FAE2EF1621F022E092
:10EC20000030120799F60F94DCF10F94DCF182E6C4
:10EC300092EE60E00F94C2F1C60161E070E00F94C3
:10EC400034F20F94DCF10F94DCF110920202109276
:10EC50000302109204021092050278CE89E992EE26
:10EC600062E00F94F5F1279A2F9A16C02F9880E052
:10EC700090E0E0EDF7E03197F1F7019684369105E9
:10EC8000C1F72F9A80E090E0E0EDF7E03197F1F7DF
:10EC9000019684369105C1F78091C00087FFE6CFC9
:10ECA0008091C00087FFFCCF64C485EA92EE62E0E9
:10ECB0000F94F5F140910202509103026091040219
:10ECC0007091050281E020E10F9491F2809102029F
:10ECD00090910302A0910402B091050280509F4FD1
:10ECE000AF4FBF4F8093020290930302A0930402A0
:10ECF000B093050280509041A040B04008F426CE69
:10ED0000A4CF83EB92EE62E00F94F5F140910602FE
:10ED100050910702609108027091090280E020E1A1
:10ED20000F9491F28091060290910702A09108023F
:10ED3000B091090280509F4FAF4FBF4F80930602A2
:10ED400090930702A0930802B0930902FFCD80ECD4
:10ED500092EE62E00F94F5F183E792EE60E00F949B
:10ED6000F5F18FE792EE60E00F94F5F18BE892EE0B
:10ED700060E00F94F5F189E992EE60E00F94F5F10F
:10ED800085EA92EE60E00F94F5F183EB92EE60E09D
:10ED90000F94F5F180EC92EE60E00F94F5F187ECC2
:10EDA00092EE60E00F94F5F188ED92EE60E00F9442
:10EDB000F5F18FED92EE60E00F94F5F18AEE92EEB0
:10EDC00060E00F94F5F183E093EEBDCD87EC92EE19
:10EDD00062E00F94F5F181E40F947BF282E40F94EA
:10EDE0007BF283E40F947BF284E40F947BF285E45E
:10EDF0000F947BF286E40F947BF287E40F947BF20E
:10EE000088E40F947BF28AE40F947BF28BE40F94F6
:10EE10007BF28CE40F947BF299CD88ED92EE62E068
:10EE20000F94F5F1772473948824992409C48FED05
:10EE300092EE62E00F94F5F140910A0250910B02BC
:10EE400060910C0270910D0282E020E10F9491F22A
:10EE500080910A0290910B02A0910C02B0910D02D8
:10EE600080509F4FAF4FBF4F80930A0290930B0289
:10EE7000A0930C02B0930D0269CD8AEE92EE62E08F
:10EE80000F94F5F184EE90EE60E00F94F5F18FECC5
:10EE900091EE60E00F94F5F1662477244301CC5D98
:10EEA000DE4F19821882C452D140D401C301B695F5
:10EEB000A79597958795CA5DDE4F88839983AA8326
:10EEC000BB83C652D140CC5DDE4FA881B981C4520C
:10EED000D1401196CC5DDE4FB983A883C452D14096
:10EEE000CD0162E070E00F9434F2B0E2B093C6005E
:10EEF0008091C00086FFFCCF8091C0008064809329
:10EF0000C000EDE2E093C6008091C00086FFFCCF18
:10EF10008091C00080648093C000F0E2F093C6004E
:10EF20008091C00086FFFCCF8091C00080648093F8
:10EF3000C000CA5DDE4FE880F9800A811B81C6529D
:10EF4000D140BB27A12F902F8F2D0F940DF2CA5DBA
:10EF5000DE4F8881C652D1400F940DF2B0E2FB2EF5
:10EF6000F092C6008091C00086FFFCCF8091C00067
:10EF700080648093C0000DE30093C6008091C000C0
:10EF800086FFFCCF8091C00080648093C00010E2B7
:10EF90001093C6008091C00086FFFCCF8091C00016
:10EFA00080648093C0008BBEF3012791C65DDE4F65
:10EFB0002883CA52D140A22EBB24CC24DD2408943D
:10EFC000611C711C811C911C8BBEF3018791282E42
:10EFD0003324442455240894611C711C811C911C09
:10EFE0008BBEF3013791C55DDE4F3883CB52D140E4
:10EFF0000894611C711C811C911C8BBEF30147910C
:10F00000C45DDE4F4883CC52D140ADEFEA2EAFEF66
:10F01000FA2EAFEF0A2FAFEF1A2F6E0C7F1C801E57
:10F02000911E142D032DF22CEE24EA0CFB1C0C1D5A
:10F030001D1D0F940DF220E22093C6008091C000A8
:10F0400086FFFCCF8091C00080648093C000C65DC5
:10F05000DE4F8881CA52D1400F940DF230E23093D6
:10F06000C6008091C00086FFFCCF8091C000806404
:10F070008093C000C45DDE4F8881CC52D1400F9494
:10F080000DF240E24093C6008091C00086FFFCCFA5
:10F090008091C00080648093C000C55DDE4F888190
:10F0A000CB52D1400F940DF250E25093C6008091A4
:10F0B000C00086FFFCCF8091C00080648093C000B8
:10F0C0008FEFE8168FEFF80680E0080780E018075A
:10F0D00031F484E092EE60E00F94C2F1DFC0D80119
:10F0E000C7018070907CA070B0708050904CA040A0
:10F0F000B040D1F52FEF3FE340E050E0E222F322B1
:10F1000004231523CA5DDE4FA880B980CA80DB8046
:10F11000C652D140AE0CBF1CC01ED11EAA0CBB1CD7
:10F12000CC1CDD1C8EE092EE60E00F94C2F1BB2798
:10F13000A12F902F8F2D0F940DF28E2D0F940DF285
:10F1400030E23093C6008091C00086FFFCCF8091F2
:10F15000C00080648093C0004EE34093C60080915D
:10F16000C00086FFFCCF87C08EE09EEFA0E0B0E03D
:10F17000E822F9220A231B239CE0E91694E9F90608
:10F1800090E0090790E0190709F088C0C45DDE4FE0
:10F19000A881CC52D140EA2EFF2400E010E0102FCD
:10F1A0000F2DFE2CEE24C55DDE4FB881CB52D14031
:10F1B000EB0EF11C011D111DD601C501817090706F
:10F1C000A070B070DC0199278827E80EF91E0A1F8D
:10F1D0001B1F20EF30E040E050E0A222B322C42207
:10F1E000D52241E1AA0CBB1CCC1CDD1C4A95D1F7F1
:10F1F000EA0CFB1C0C1D1D1D81E090E0A0E0B0E0BE
:10F20000282239224A225B2235E1220C331C441C7D
:10F21000551C3A95D1F7E20CF31C041D151D57013E
:10F220006801AA0CBB1CCC1CDD1C85E192EE60E0E1
:10F230000F94C2F1C801AA27BB270F940DF2BB2778
:10F24000A12F902F8F2D0F940DF28E2D0F940DF274
:10F2500090E29093C6008091C00086FFFCCF809121
:10F26000C00080648093C000AEE3A093C60080918C
:10F27000C00086FFFCCF8091C00080648093C000F6
:10F28000C601AA27BB270F940DF2BB27AD2D9C2DDD
:10F290008B2D0F940DF28A2D0F940DF20F94DCF14B
:10F2A000CC5DDE4FE881F981C452D140F99709F471
:10F2B0004DCBF4E0EF2EF12C012D112D6E0C7F1CA7
:10F2C000801E911EF2CD83E093EE62E00F94F5F183
:10F2D0008AE192EE60E00F94C2F18091C00087FF56
:10F2E000FCCF1091C6001F751093C6008091C0001E
:10F2F00086FFFCCF8091C00080648093C0000F9493
:10F30000DCF1812F81548A3108F036C1163409F4BA
:10F3100095C0173490F4133409F44EC0143430F40B
:10F320001134F1F0123409F01DC130C0143409F465
:10F3300059C0153409F016C16BC01A3409F4C4C0A1
:10F340001B3438F4173409F48FC0183409F00AC19B
:10F35000A1C01B3409F4D2C01C3409F003C1E8C0B9
:10F360008FEF81B90DC082B1809582B980E090E0C5
:10F37000E0EDF7E03197F1F70196883C9105C1F790
:10F380008091C00087FFEFCF12B8EFC08FEF84B934
:10F390000DC085B1809585B980E090E0E0EDF7E0A3
:10F3A0003197F1F70196883C9105C1F78091C00033
:10F3B00087FFEFCF15B8D9C08FEF87B90DC088B1DF
:10F3C000809588B980E090E0E0EDF7E03197F1F7C3
:10F3D0000196883C9105C1F78091C00087FFEFCF6F
:10F3E00018B8C3C08FEF8AB90DC08BB180958BB9A7
:10F3F00080E090E0E0EDF7E03197F1F70196883C8E
:10F400009105C1F78091C00087FFEFCF1BB8ADC059
:10F410008FEF8DB90DC08EB180958EB980E090E0F0
:10F42000E0EDF7E03197F1F70196883C9105C1F7DF
:10F430008091C00087FFEFCF1EB897C08FEF80BBD1
:10F440000DC081B3809581BB80E090E0E0EDF7E0F6
:10F450003197F1F70196883C9105C1F78091C00082
:10F4600087FFEFCF11BA81C08FEF83BB0DC084B38C
:10F47000809584BB80E090E0E0EDF7E03197F1F714
:10F480000196883C9105C1F78091C00087FFEFCFBE
:10F4900014BA6BC08FEF809301010FC080910201FD
:10F4A00080958093020180E090E0E0EDF7E03197F5
:10F4B000F1F70196883C9105C1F78091C00087FF64
:10F4C000EDCF1092020151C08FEF809304010FC065
:10F4D0008091050180958093050180E090E0E0ED4A
:10F4E000F7E03197F1F70196883C9105C1F78091DB
:10F4F000C00087FFEDCF1092050137C08FEF8093DA
:10F5000007010FC08091080180958093080180E079
:10F5100090E0E0EDF7E03197F1F70196883C910536
:10F52000C1F78091C00087FFEDCF109208011DC088
:10F530008FEF80930A010FC080910B01809580931B
:10F540000B0180E090E0E0EDF7E03197F1F70196F4
:10F55000883C9105C1F78091C00087FFEDCF1092E4
:10F560000B0103C085E292EEEEC98091C00087FFD7
:10F57000FCCF8091C600EAC988E392EEE4C98CE131
:10F5800091EEE1C988249924933011F1943028F444
:10F59000913089F09230B8F408C0953061F195301F
:10F5A000F0F0963009F048C043C02B3109F042C951
:10F5B00091E06BE13FC96227C15DDE4F2883CF52E6
:10F5C000D14092E037C9B22FA0E0622793E032C960
:10F5D000822F90E0A82BB92B622794E02BC92E3004
:10F5E00009F039C3622795E0C05DDE4F19821882A9
:10F5F000C053D1401FC9E1E0F0E0EC0FFD1FC05D3A
:10F60000DE4F08811981C053D140E00FF11F2083E4
:10F610000F5F1F4FC05DDE4F19830883C053D14079
:10F6200062270A171B0709F005C9D80196E002C92D
:10F63000261709F010C303C0973009F0FBC87724E0
:10F640009981933109F412C19431C8F4963009F4C8
:10F65000D8C0973050F4923009F406C1933009F4C1
:10F660006DC0913009F059C253C0913109F477C08F
:10F67000923108F0BBC0903109F04FC2F5C098310B
:10F6800009F487C0993150F4953109F4EFC09531F0
:10F6900008F4C6C1963109F040C2C2C19A3109F4DA
:10F6A0006CC09A3108F491C09B3109F45BC09D3164
:10F6B00009F033C29D81903359F48F81882311F46E
:10F6C0009EE11CC0813011F091E018C098E916C08D
:10F6D000892F807591F0903539F4E0E0F0E089E011
:10F6E0008093570094910AC0983539F4E3E0F0E034
:10F6F00089E080935700949101C090E01A821B82A8
:10F700008D818C831D829E831F8227E030E009C299
:10F710001A8288E08B8381E48C8386E58D8382E581
:10F720008E8389E48F8383E5888780E589878FE5E9
:10F730008A8782E38B872BE030E0F3C18A818139AD
:10F7400041F0823941F0803911F48FE005C080E04A
:10F7500003C082E001C08AE01A828B8344C0772410
:10F76000739482C08D81882311F48EE12CC0813086
:10F7700011F081E028C088E926C01A82E1E0F0E0BB
:10F7800089E08093570084918B831C8224E030E0D1
:10F79000C8C18B81803589F48C81883039F4E2E0EE
:10F7A000F0E089E08093570084910DC0E0E0F0E044
:10F7B00089E080935700849106C0E3E0F0E089E09F
:10F7C0008093570084911A82DFCF8D81836C99E0FA
:10F7D000E1E0F0E0082E90935700E89507B600FCB2
:10F7E000FDCF1A821B8223E030E09BC180EC8A832C
:10F7F000CE5CDE4F188219821A821B82C253D1401E
:10F800008EC18A8190E0A0E0B0E0582F44273327D2
:10F8100022278B8190E0A0E0B0E0DC0199278827C7
:10F82000282B392B4A2B5B2B8D8190E0A0E0B0E098
:10F83000282B392B4A2B5B2B8C8190E0A0E0B0E089
:10F84000BA2FA92F982F8827282B392B4A2B5B2BCF
:10F85000220F331F441F551FC05EDE4F288339839C
:10F860004A835B83C052D1401A8259C13A81C95C34
:10F87000DE4F3883C753D140CA5CDE4F1882C6536F
:10F88000D1408B81C82EDD24CA5CDE4F488159816E
:10F89000C653D140C42AD52A933109F082C0CE5C28
:10F8A000DE4F88819981AA81BB81C253D1408050AB
:10F8B000904CA340B04030F583E0CE5CDE4FE88052
:10F8C000F9800A811B81C253D140F70100935B008C
:10F8D00080935700E89507B600FCFDCFCE5CDE4F65
:10F8E000088119812A813B81C253D14000501F4FAA
:10F8F0002F4F3F4FCE5CDE4F088319832A833B8313
:10F90000C253D140C05EDE4F488159816A817B81FC
:10F91000C052D140DE011B9631E08C9111962C91A2
:10F9200011971296C75CDE4F2883C953D140C85C3B
:10F93000DE4F1882C853D14090E0C85CDE4FE881AA
:10F94000F981C853D1408E2B9F2B0C01FA01609393
:10F950005B0030935700E89511244E5F5F4F6F4F67
:10F960007F4F0EEFE02E0FEFF02ECE0CDF1CC114F8
:10F97000D10499F685E0C05EDE4F088119812A81A5
:10F980003B81C052D140F80120935B008093570027
:10F99000E89507B600FCFDCF81E180935700E8951C
:10F9A00035C0C05EDE4F88819981AA81BB81C0527B
:10F9B000D140B695A795979587957C018601ABE0D8
:10F9C000AA2EB12CAC0EBD1E0BC0D5016D915D01F0
:10F9D000C7010F947FFE0894E11CF11C01501040F8
:10F9E0000115110591F7A60160E070E0440F551F65
:10F9F000661F771FC05EDE4FE880F9800A811B8199
:10FA0000C052D1404E0D5F1D601F711F1A82C05E33
:10FA1000DE4F488359836A837B83C052D1407FC0C5
:10FA2000FA80C55CDE4FF882CB53D140C65CDE4F16
:10FA30001882CA53D1408B81C82EDD24C65CDE4FAC
:10FA400008811981CA53D140C02AD12A1A828981DA
:10FA5000BE016D5F7F4F843121F59601C05EDE4FA0
:10FA6000E880F9800A811B81C052D1400BBFF701A9
:10FA700087919691DB018C9311969C936E5F7F4FDB
:10FA8000D801C7010296A11DB11DC05EDE4F88835B
:10FA90009983AA83BB83C052D14022503040F1F6F3
:10FAA00036C0C05EDE4F288139814A815B81C052F9
:10FAB000D1400894C108D108760100E010E0089414
:10FAC000C11CD11C0894E11CF11C011D111DE20E8A
:10FAD000F31E041F151F21BDBB27A52F942F832FB5
:10FAE00082BD2F5F3F4F4F4F5F4FF89A80B5DB01CC
:10FAF0008D93BD012E153F054007510761F7C05E8C
:10FB0000DE4F288339834A835B83C052D1409601FC
:10FB10002D5F3F4FFB01108204C080EC8A8322E0FE
:10FB200030E08BE18093C6008091C00086FFFCCF5F
:10FB30008091C00080648093C000C15DDE4FF88179
:10FB4000CF52D140F093C6008091C00086FFFCCF19
:10FB50008091C00080648093C000432F3093C60022
:10FB60008091C00086FFFCCF8091C00080648093AC
:10FB7000C000922F2093C6008091C00086FFFCCF6A
:10FB80008091C00080648093C0008EE08093C600A6
:10FB90008091C00086FFFCCF8091C000806480937C
:10FBA000C00065E1C15DDE4FE880CF52D1406E25D7
:10FBB00069276427FE01319610C090819093C6009A
:10FBC0008091C00086FFFCCF31968091C000806498
:10FBD0008093C0006927215030402115310569F715
:10FBE0006093C6008091C00086FFFCCF8091C0006A
:10FBF00080648093C00085B1805885B9772081F4F6
:10FC0000C15DDE4F0881CF52D1400F5FC15DDE4F35
:10FC10000883CF52D14090E0A0E0B0E00D941AF4F8
:10FC200027982F9880E090E020ED37E0F901319798
:10FC3000F1F7019684369105C9F700008091C00064
:10FC40008D7F8093C00081E180935700E895EE2777
:10FC5000FF270994FFCF90E00D941AF497FB092E2B
:10FC600007260AD077FD04D02ED006D000201AF443
:10FC7000709561957F4F0895F6F7909581959F4F08
:10FC80000895A1E21A2EAA1BBB1BFD010DC0AA1FDD
:10FC9000BB1FEE1FFF1FA217B307E407F50720F0F5
:10FCA000A21BB30BE40BF50B661F771F881F991F70
:10FCB0001A9469F760957095809590959B01AC01B9
:10FCC000BD01CF010895AA1BBB1B51E107C0AA1FAC
:10FCD000BB1FA617B70710F0A61BB70B881F991FED
:10FCE0005A95A9F780959095BC01CD010895F99991
:10FCF000FECF92BD81BDF89A992780B50895262F31
:10FD0000F999FECF1FBA92BD81BD20BD0FB6F89400
:0EFD1000FA9AF99A0FBE01960895F894FFCF63
:00000001FF
