:100000000C943E010C946F010C946F010C946F01E1
:100010000C946F010C946F010C946F010C946F01A0
:100020000C946F010C946F010C946F010C946F0190
:100030000C946F010C946F010C946F010C946F0180
:100040000C946F010C946F010C946F010C946F0170
:100050000C946F010C946F010C946F010C94360892
:100060000C946F010C9400080C94D6070C946F014B
:100070000C946F010C946F010C946F010C946F0140
:100080000C946F010C946F010C946F010C946F0130
:100090000C94A0070C9476070C946F010C946F01DC
:1000A0000C946F010C946F010C946F010C946F0110
:1000B0000C946F010C946F010C946F010C946F0100
:1000C0000C946F010C946F010C946F010C946F01F0
:1000D0000C946F010C946F010C946F010C946F01E0
:1000E0000C946F010C941E030C940C030C942403C9
:1000F0000C94F7020C94F7010C9436030C94AE05A3
:100100000C942C030C9432030C9410030C94C60131
:100110000C94E9010C9498010C9480080C94310320
:100120000C94F1020C9428030C9499010C941A037A
:100130000C94FF020C9439020C94FB020C9486027E
:100140000C9403030C94D5010C9457040C941B0ECF
:100150000C9406030C9416030000210024002700D1
:100160002A002D00300033000101000004010701C6
:100170000A0100002200250028002B002E0031007B
:10018000340002010000050108010B0100002000FD
:100190002300260029002C002F003200000100005F
:1001A00003010601090105050505070508080808FA
:1001B000020202020A0A08080404040401010101FF
:1001C00001010101030303030303030304070707FA
:1001D0000C0C0C0C0C0C0C0C02020202060606069F
:1001E000060606060B0B0B0B0B0B0B0B010210206C
:1001F000200808102040102040800201020108045D
:1002000002010102040810204080804020100804F0
:100210000201800402018040201008040201080449
:10022000020101020408102040800102040810208D
:10023000408000000A0B02090C0D0E0807030401A0
:1002400000000000000000000000000000000000AE
:10025000000000000000000000000000000012117B
:10026000100000000000000000000000000000007E
:10027000000000000000000080081B0E11241FBEBB
:10028000CFEFD1E2DEBFCDBF00E00CBF24E0A6E39C
:10029000B3E001C01D92AF3DB207E1F713E0A0E06B
:1002A000B2E0EAEDF1E200E00BBF02C007900D9270
:1002B000A633B107D9F711E0CDE3D1E000E006C0E5
:1002C00021970109802FFE010E94B20ECC33D10785
:1002D00080E00807A9F70E94F4080C94DB100C9446
:1002E0000000FC01A089B18982E08C93A485B585CA
:1002F0001C92A685B7858FEC8C93108EA489B58946
:1003000086E08C93A289B3898C9180618C93A289B9
:10031000B3898C9188608C93A289B3898C91806811
:100320008C930288F389E02D80818F7D80830895EE
:100330000895AF92BF92CF92DF92EF92FF920F9308
:100340001F93CF93DF936C017B018B01040F151F6B
:10035000EB015E01AE18BF08C017D10759F06991D3
:10036000D601ED91FC910190F081E02DC601199527
:10037000892B79F7C501DF91CF911F910F91FF90E4
:10038000EF90DF90CF90BF90AF900895FC01538D18
:10039000448D252F30E0842F90E0821B930B54175F
:1003A00010F0CF96089501970895FC01918D828DEC
:1003B000981761F0A28DAE0FBF2FB11D5D968C9185
:1003C000928D9F5F9F73928F90E008958FEF9FEFC4
:1003D0000895FC01918D828D981731F0828DE80F80
:1003E000F11D858D90E008958FEF9FEF0895FC013A
:1003F000918D228D892F90E0805C9F4F821B910907
:100400008F739927089583E893E00E94F70121E014
:10041000892B09F420E0822F089580E294E00E9465
:10042000F70121E0892B09F420E0822F0895FC01D7
:10043000A48DA80FB92FB11DA35ABF4F2C91848D45
:1004400090E001968F739927848FA689B7892C93A2
:10045000A089B1898C91837080648C93938D848DF5
:10046000981306C00288F389E02D80818F7D8083F8
:100470000895EF92FF920F931F93CF93DF93EC01B8
:1004800081E0888F9B8D8C8D98131AC0E889F9893B
:10049000808185FF15C09FB7F894EE89FF8960833E
:1004A000E889F98980818370806480839FBF81E0BF
:1004B00090E0DF91CF911F910F91FF90EF90089501
:1004C000F62E0B8D10E00F5F1F4F0F731127E02EDC
:1004D0008C8D8E110CC00FB607FCFACFE889F98914
:1004E000808185FFF5CFCE010E941702F1CFEB8D01
:1004F000EC0FFD2FF11DE35AFF4FF0829FB7F894E8
:100500000B8FEA89FB8980818062CFCFCF93DF9305
:10051000EC01888D8823B9F0AA89BB89E889F9891B
:100520008C9185FD03C0808186FD0DC00FB607FC50
:10053000F7CF8C9185FFF2CF808185FFEDCFCE0183
:100540000E941702E9CFDF91CF91089580E090E0FB
:10055000892B29F00E940D0281110E94000080E089
:1005600090E0892B29F00E94030281110E94000073
:1005700080E090E0892B49F080E090E0892B29F021
:100580000E94000081110E94000080E090E0892B11
:1005900049F080E090E0892B29F00E940000811151
:1005A0000C94000008958150823108F05AC0E82F61
:1005B000F0E08827E152FD4F8F4F0C94B20EFF02FE
:1005C0000303F102F702FB02310306030C031003DD
:1005D00016031A031E032403280331032C033203DA
:1005E0003603809180008F778093800008958091FA
:1005F00080008F7DF9CF80918000877FF5CF84B513
:100600008F7784BD089584B58F7DFBCF8091B00036
:100610008F778093B00008958091B0008F7DF9CFDF
:10062000809190008F778093900008958091900042
:100630008F7DF9CF80919000877FF5CF8091A000CA
:100640008F778093A00008958091A0008F7DF9CFCF
:100650008091A000877FF5CF809120018F778093D4
:1006600020010895809120018F7DF9CF8091200194
:10067000877FF5CFCF93DF93282F30E0F901EE5C31
:10068000FD4F8491F901E451FE4FD491F901EA55EF
:10069000FE4FC491CC23A1F081110E94D302EC2F14
:1006A000F0E0EE0FFF1FE457FE4FA591B491EC91DF
:1006B000ED2381E090E009F480E0DF91CF9108958F
:1006C00080E090E0FACF1F93CF93DF93282F30E0A4
:1006D000F901EE5CFD4F8491F901E451FE4FD49194
:1006E000F901EA55FE4FC491CC23A9F0162F8111D0
:1006F0000E94D302EC2FF0E0EE0FFF1FEE58FE4FEA
:10070000A591B4918FB7F894EC91111108C0D095D0
:10071000DE23DC938FBFDF91CF911F910895DE2BF5
:10072000F8CFCF93DF9390E0FC01E451FE4F24918A
:100730008A559E4FFC0184918823D1F090E0880F68
:10074000991FFC01E85AFE4FA591B491FC01EE58A7
:10075000FE4FC591D49161110EC09FB7F8948C9152
:10076000E22FE0958E238C932881E223E8839FBFBC
:10077000DF91CF9108958FB7F894EC91E22BEC9331
:100780008FBFF6CF3FB7F89480913B0390913C0325
:10079000A0913D03B0913E0326B5A89B05C02F3F15
:1007A00019F00196A11DB11D3FBFBA2FA92F982F97
:1007B0008827BC01CD01620F711D811D911D42E092
:1007C000660F771F881F991F4A95D1F708958F925A
:1007D0009F92AF92BF92CF92DF92EF92FF924B0126
:1007E0005C010E94C2036B017C010E94C2036C1970
:1007F0007D098E099F09683E734081059105A8F324
:1008000021E0821A9108A108B10888EEC80E83E0A1
:10081000D81EE11CF11C81149104A104B10429F734
:10082000FF90EF90DF90CF90BF90AF909F908F9010
:1008300008952FB7F8946091370370913803809131
:10084000390390913A032FBF08950F931F930E948D
:10085000190460938B0370938C0380938D039093A2
:100860008E0383E893E00E94D50197FF1DC00E948C
:10087000190400918B0310918C0320918D0330910A
:100880008E03601B710B820B930B009187031091F9
:1008900088032091890330918A03601771078207CA
:1008A0009307F8F28FEF9FEF1F910F91089590E05B
:1008B00080E00895CF93DF93EC0160E08E810E9489
:1008C000630361E08E810E94630360E08E810E9479
:1008D00063038BE891E00197F1F7DF91CF910895E1
:1008E000CF92DF92EF92FF920F931F93CF93DF93FC
:1008F0006C017C0187E0E80EF11CD0E0C0E0062F1F
:1009000010E0B8010C2E02C0759567950A94E2F7C5
:100910006170F70181917F010E9463032196C430C9
:10092000D10579F7C601DF91CF911F910F91FF900B
:10093000EF90DF90CF900C945A04CF92DF92EF9219
:10094000FF920F931F93CF93DF93EC01F62E642F4A
:100950008C810E9463038D818F3F19F060E00E94BB
:1009600063030F2D10E08F8584FF25C06E0187E0A3
:10097000C80ED11CF12CE12CB8010E2C02C07595CB
:1009800067950A94E2F76170F60181916F010E9408
:100990006303FFEFEF1AFF0A88E0E816F10461F73E
:1009A000CE01DF91CF911F910F91FF90EF90DF90DB
:1009B000CF900C945A04B80184E0759567958A9598
:1009C000E1F7CE010E9470046F2DCE01DF91CF912F
:1009D0001F910F91FF90EF90DF90CF900C947004D7
:1009E00040E0682F8DEB94E00C949D0481E00E9420
:1009F000F0048BE39FE10197F1F70895CF93DF9324
:100A0000823029F49091CC0498609093CC04809328
:100A1000D0041092D10480E48093D20480E18093CA
:100A2000D30480E58093D40461E08091C1040E94E6
:100A300091038091C2048F3F19F061E00E949103FD
:100A400061E08091C3040E949103CDEBD4E09E014C
:100A50002D5B34408091CC0484FD0BC084E090E099
:100A600021962817390744F461E08E810E94910392
:100A7000EECF88E090E0F4CF8BE39DE00197F1F7B3
:100A800060E08091C1040E94630360E08091C30430
:100A90000E9463038091C2048F3F19F060E00E94BE
:100AA00063038091CC0484FD34C063E08DEB94E05B
:100AB0000E947004CBE4D6E4CE010197F1F763E025
:100AC0008DEB94E00E9470042197F1F763E08DEBC9
:100AD00094E00E94700483E592E00197F1F762E0F0
:100AE0008DEB94E00E9470048091CC0480620E949F
:100AF000F00484E08093CD048CE00E94F0040E9416
:100B0000F60482E08093CE0486E0DF91CF910C94CE
:100B1000F00480620E94F0048BE496E40197F1F700
:100B20008091CC0480620E94F00483E592E00197FA
:100B3000F1F78091CC0480620E94F004D5CF9091AF
:100B4000D004691710F06FEF690FE62FF0E0E3545F
:100B5000FB4F9489890F80680C94F00441E00E9457
:100B60009D0481E090E008950F931F93CF93DF934E
:100B70008B01877028E0829FC001112480640E944D
:100B8000F004E801085F1F4F69918DEB94E00E942B
:100B9000AE05C017D107C1F7DF91CF911F910F911B
:100BA0000895009769F0FC0101900020E9F7319762
:100BB000AF01481B590BBC018DEB94E00C949901DB
:100BC00090E080E008958F929F92AF92BF92CF9273
:100BD000DF92EF92FF92CF93DF93CDB7DEB7A1976D
:100BE0000FB6F894DEBF0FBECDBF6C01990FEE08B3
:100BF000FF08F7FE3AC041E06DE28DEB94E00E9401
:100C00009D0422273327A9012C193D094E095F09AC
:100C100019A2CE0181967C019AE0892E912CA12CFB
:100C2000B12CCA01B901A50194010E94900E605D2A
:100C3000F70162937F01211531054105510589F7BF
:100C4000CF010E94D1050196A1960FB6F894DEBFA0
:100C50000FBECDBFDF91CF91FF90EF90DF90CF908F
:100C6000BF90AF909F908F900895A701960119A211
:100C7000CE0181967C018AE0882E912CA12CB12C8A
:100C8000CA01B901A50194010E94900E605DF701AF
:100C900062937F01211531054105510589F7CF0187
:100CA0000E94D105D1CF0F931F93CF93DF938C0177
:100CB000EB01FC01808191810097E1F068817981ED
:100CC00061157105A9F0428153812C813D81421744
:100CD000530770F00E94D4108C819D81F801958398
:100CE00084831D821C82DF91CF911F910F91089503
:100CF0000E94560F88819981F801918380838A81AF
:100D00009B81938382838C819D81958384831982C7
:100D100018821B821A82E5CFCF93DF93EC01888182
:100D20009981009711F00E94560F198218821D8236
:100D30001C821B821A82DF91CF910895FC01808171
:100D40009181009711F00C94560F08950F931F9303
:100D5000CF93DF93EC0188819981009759F02A8124
:100D60003B812617370730F081E0DF91CF911F914B
:100D70000F9108958B016F5F7F4F0E94DF0F0097E7
:100D800059F0998388831B830A832C813D81232B0F
:100D900059F7FC011082E8CF80E0E7CFEF92FF9295
:100DA0000F931F93CF93DF9341155105B1F07B0152
:100DB000EC010C811D81040F151FB8010E94A606CD
:100DC000882361F0288139818C819D81B701820F50
:100DD000931F0E94D4101D830C8381E0DF91CF917B
:100DE0001F910F91FF90EF900895EF92FF920F9354
:100DF0001F93CF93DF93EC017B018A01BA010E941C
:100E0000A60681110BC0CE010E948C06CE01DF9197
:100E1000CF911F910F91FF90EF9008951D830C8348
:100E2000B701888199810E94D410F0CFFC01118212
:100E30001082138212821582148250E040E065E134
:100E400073E00C94F506AF92BF92CF92DF92EF92CF
:100E5000FF920F931F93CF93DF937C016B015A0195
:100E600089012417350720F48B2D5901042F182FE1
:100E7000C7010E941607D6011496CD91DC91AC16DD
:100E8000BD0620F50C171D0708F4E801D601ED9109
:100E9000FC911197EC0FFD1F108110826D917C91D8
:100EA0006A0D7B1D61157105E9F0FB0101900020C1
:100EB000E9F73197AF01461B570BC7010E94F506B2
:100EC000F60180819181C80FD91F1883C701DF9176
:100ED000CF911F910F91FF90EF90DF90CF90BF9037
:100EE000AF900895C7010E948C06EACF1F920F921F
:100EF0000FB60F9211240BB60F922F933F934F937F
:100F00005F936F937F938F939F93AF93BF93EF9371
:100F1000FF9383E893E00E941702FF91EF91BF9146
:100F2000AF919F918F917F916F915F914F913F9181
:100F30002F910F900BBE0F900FBE0F901F90189522
:100F40001F920F920FB60F9211240BB60F922F9390
:100F50008F939F93EF93FF93E0919303F09194030A
:100F60008081E0919903F0919A0382FD1DC09081E8
:100F700080919C038F5F8F7320919D03821741F0B6
:100F8000E0919C03F0E0ED57FC4F958F80939C031C
:100F9000FF91EF919F918F912F910F900BBE0F902A
:100FA0000FBE0F901F9018958081F2CF1F920F9265
:100FB0000FB60F9211240BB60F922F933F934F93BE
:100FC0005F936F937F938F939F93AF93BF93EF93B1
:100FD000FF9380E294E00E941702FF91EF91BF918E
:100FE000AF919F918F917F916F915F914F913F91C1
:100FF0002F910F900BBE0F900FBE0F901F90189562
:101000001F920F920FB60F9211240BB60F922F93CF
:101010008F939F93EF93FF93E0913004F09131040D
:101020008081E0913604F091370482FD1DC09081EB
:10103000809139048F5F8F7320913A04821741F0B9
:10104000E0913904F0E0E05EFB4F958F8093390426
:10105000FF91EF919F918F912F910F900BBE0F9069
:101060000FBE0F901F9018958081F2CF1F920F92A4
:101070000FB60F9211242F933F938F939F93AF93AB
:10108000BF938091370390913803A0913903B091B9
:101090003A033091360323E0230F2D3758F501969C
:1010A000A11DB11D2093360380933703909338031D
:1010B000A0933903B0933A0380913B0390913C0392
:1010C000A0913D03B0913E030196A11DB11D8093F7
:1010D0003B0390933C03A0933D03B0933E03BF9129
:1010E000AF919F918F913F912F910F900FBE0F90D5
:1010F0001F90189526E8230F0296A11DB11DD2CF8F
:10110000E3E8F3E01382128248EE53E060E070E01F
:1011100044835583668377838AEC92E0918380834E
:101120002DEC30E0358724872CEC30E0378726879C
:1011300028EC30E0318B208B29EC30E0338B228B94
:101140002AEC30E0358B248B2EEC30E0378B268B6D
:10115000118E128E138E148EE0E2F4E0138212824E
:1011600044835583668377839183808385EC90E005
:101170009587848784EC90E09787868780EC90E061
:10118000918B808B81EC90E0938B828B82EC90E052
:10119000958B848B86EC90E0978B868B118E128ECC
:1011A000138E148E85ED94E00E941607EDEBF4E0AB
:1011B000138212828CED92E09183808386E2848395
:1011C0008FEF858387E2868388E2878389E2808741
:1011D0008AE281878BE282871386148615861686BB
:1011E000178681E00C94FE04CF93DF93CDB7DEB772
:1011F000C659D1090FB6F894DEBF0FBECDBF7894A3
:1012000084B5826084BD84B5816084BD85B582600B
:1012100085BD85B5816085BD80916E0081608093BC
:101220006E00109281008091810082608093810025
:101230008091810081608093810080918000816035
:10124000809380008091B10084608093B100809190
:10125000B00081608093B0008091910082608093A3
:101260009100809191008160809391008091900025
:101270008160809390008091A10082608093A100A2
:101280008091A10081608093A1008091A000816085
:101290008093A00080912101826080932101809140
:1012A00021018160809321018091200181608093E0
:1012B000200180917A00846080937A0080917A0086
:1012C000826080937A0080917A00816080937A00B6
:1012D00080917A00806880937A001092C10080E249
:1012E00094E00E94710183E893E00E94710106EA94
:1012F00012E0F80180810E5F1F4F60E00E949103B1
:10130000F2E0063C1F07A9F7F6E6EF2EF2E0FF2E0B
:1013100006E812E0F80180810E5F1F4F61E00E9435
:101320009103F7018081F2E0EF0EF11C61E00E9471
:10133000910322E0063A120769F761E084E40E9413
:10134000910361E085E40E94910382E00E94FE0423
:1013500068E372E086E00E94B40560E372E082E038
:101360000E94B40568E272E083E00E94B40560E286
:1013700072E084E00E94B40568E172E085E00E94BA
:10138000B40560E172E087E00E94B40568E072E0B5
:1013900088E00E94B40560E072E089E00E94B40534
:1013A0000E94190460934F0370935003809351037C
:1013B00090935203CE0101963C012E0199E7490E0C
:1013C000511CFE01EF59FF4FC557DF4FF983E883EA
:1013D000CB58D04023E633E0CB56DF4F3983288308
:1013E000C559D04063E5A62E63E0B62E76E6872E7B
:1013F00072E0972EE6E82E2EE2E03E2E86EA92E09C
:10140000CD56DF4F99838883C359D0408901C15796
:10141000DF4F19821882CF58D040C357DF4F19824F
:101420001882CD58D040CF56DF4F19821882C1594B
:10143000D040CD56DF4FE881F981C359D04080813B
:101440003296CD56DF4FF983E883C359D040F1017E
:10145000C080F2E02F0E311CF401D080F2E08F0E3C
:10146000911CF801208131812230310509F4B6C088
:10147000F50190819111B2C00E943A037C0101975D
:1014800009F092C061E08C2D0E94630360E08D2D15
:101490000E946303F801F182E082CF56DF4F28817A
:1014A0003981C159D0402F5F3F4FCF56DF4F39832D
:1014B0002883C159D0400E5F1F4F3FEFA31AB30AD4
:1014C00083E893E08017910709F0B3CF46E4C42E78
:1014D00042E0D42E53E6E52E53E0F52EF70181913C
:1014E00091917F01892B09F0B0C0F6018081918133
:1014F000019709F0AAC061E085E40E946303CE0170
:101500008B579F4F0E94160733E6E32E33E0F32EEE
:101510004AE0B301F701819191917F010E94460E4B
:10152000F30101900020E9F73197AF0146195709FF
:10153000B301CE018B579F4F0E94CE0641E050E091
:1015400064EE72E0CE018B579F4F0E94CE060E15BF
:101550001F05F1F6C757DF4F48815981C958D04060
:10156000CB57DF4F68817981C558D04083E893E03D
:101570000E94990164E670E080E090E00E94E70339
:10158000CE0181589F4F0E9416070E94250497FDA7
:1015900068C089831A8241E050E0B301CE018158CE
:1015A0009F4F0E94CE06F1CF60E08C2D0E94630316
:1015B00061E08D2D0E946303F80111821082C357F0
:1015C000DF4F28813981CD58D0402F5F3F4FC3571F
:1015D000DF4F39832883CD58D0406DCF0E943A0326
:1015E0008130910509F5F8019183808361E08C2DAC
:1015F0000E94630360E08D2D0E94630381E0F5018A
:10160000808361E084E40E946303C157DF4F288137
:101610003981CF58D0402F5F3F4FC157DF4F3983BB
:101620002883CF58D04047CF22E030E0F801318303
:10163000208361E08C2D0E94630361E08D2D0E9468
:101640006303F501108260E0DDCF60E085E40E9475
:101650006303F2E0CF0ED11C0E151F0509F03ECF3B
:101660004ECF73018301C8010E9416070A5F1F4F06
:1016700004151505C1F76301CD57DF4F88809980A8
:10168000C358D0408114910409F1C158DF4FA8809C
:10169000B980CF57D0406CE270E0C5010E94C910FC
:1016A0001601009751F08C010A191B09F6E0CF0EC4
:1016B000D11C0F3F100709F028C1A114B10409F48F
:1016C00020C1A401B501C1010E94F506F701808186
:1016D0009181009709F442C10E941F0ECB56DF4F43
:1016E000E881F981C559D04061937193CB56DF4FA2
:1016F000F983E883C559D040F6E0EF0EF11CC557D9
:10170000DF4F28813981CB58D040E216F306F1F63D
:1017100064EF71E080E090E00E94E703C357DF4F81
:1017200088819981CD58D040892B09F01BC10E9436
:10173000190400914F0310915003209151033091EF
:101740005203601B710B820B930B683E7340810543
:10175000910508F46FC00E94190460934F037093C1
:10176000500380935103909352030E94F60461E06A
:1017700086E00E949F0586EE92E00E94D10561E01E
:1017800087E00E949F0588EE92E00E94D10561E00B
:1017900088E00E949F058AEE92E00E94D10561E0F8
:1017A00089E00E949F0566E08DEB94E00E94AE0503
:1017B00061E08AE00E949F058CEE92E00E94D105D4
:1017C00060E087E00E949F0566E08DEB94E00E9458
:1017D000AE0560E088E00E949F0568E08DEB94E034
:1017E0000E94AE0560E089E00E949F0588EE92E0CD
:1017F0000E94D10561E08DE00E949F058EEE92E08F
:101800000E94D10560E08DE00E949F058EEE92E07F
:101810000E94D10561E083E00E949F058EEE92E078
:101820000E94D10560E083E00E949F058EEE92E069
:101830000E94D1050E94190400914F03109150039A
:101840002091510330915203601B710B820B930B5B
:10185000683E734081059105E0F10E941904609390
:101860004F037093500380935103909352030E944F
:10187000F60460E085E00E949F0580EF92E00E9400
:10188000D10561E086E00E949F0588EF92E00E940A
:10189000D10561E08DE00E949F058EEE92E00E94EE
:1018A000D10560E08DE00E949F058EEE92E00E94DF
:1018B000D10561E083E00E949F058EEE92E00E94D8
:1018C000D10560E083E00E949F058EEE92E00E94C9
:1018D000D1058E0107581F4F06501109C8010E94FB
:1018E0009E0660167106C1F7CE0181589F4F0E9477
:1018F0009E06CE018B579F4F0E949E060E94A60215
:1019000069CDC1010E948C06E1CE980150E040E013
:10191000BE0161587F4FC2010E942307B201C1017D
:101920000E945306C2010E949E06CD57DF4F2881B8
:101930003981C358D040A8014F5F5F4FBE01615845
:101940007F4FC2010E942307B201CE0181589F4FF1
:101950000E945306C2010E949E068ECE60E070E097
:10196000CB01BCCE0E941904AB01BC0180914B039A
:1019700090914C03A0914D03B0914E0388579C4E1B
:10198000AF4FBF4F84179507A607B70710F50E9402
:10199000190460934B0370934C0380934D03909311
:1019A0004E0360E080E00E949F058EEF92E00E946F
:1019B000D10561E080E00E949F0588E093E00E94ED
:1019C000D105C357DF4F88819981CD58D0400E94FF
:1019D000E3050E941904AB01BC018091470390917B
:1019E0004803A0914903B0914A03885A944EAF4FDF
:1019F000BF4F84179507A607B70720F50E94190463
:101A000060934703709348038093490390934A037C
:101A10000E94F60460E080E00E949F058EEF92E055
:101A20000E94D10561E080E00E949F0586E193E07D
:101A30000E94D105CF56DF4F88819981C159D0408E
:101A40000E94E3050E941904AB01BC01809143038D
:101A500090914403A0914503B09146038850954D61
:101A6000AF4FBF4F84179507A607B70720F50E9411
:101A70001904609343037093440380934503909348
:101A800046030E94F60460E080E00E949F058EEF0E
:101A900092E00E94D10561E080E00E949F0581E212
:101AA00093E00E94D105C157DF4F88819981CF58BB
:101AB000D0400E94E3050E941904AB01BC01809153
:101AC0003F0390914003A0914103B0914203885697
:101AD000954CAF4FBF4F84179507A607B70708F07F
:101AE000F8CE0E94190460933F03709340038093E3
:101AF00041039093420311E0FF24FA94F10E61E058
:101B0000812F0E949F0586EE92E00E94D10501E0A0
:101B1000010F61E0802F0E949F0564E08DEB94E04F
:101B20000E94AE0582E0D82ED10E61E08D2D0E947C
:101B30009F058AEE92E00E94D10593E0E92EE10E26
:101B400061E08E2D0E949F0564E08DEB94E00E9481
:101B5000AE0561E084E0810F0E949F058CEE92E06B
:101B60000E94D10560E0802F0E949F0588EE92E0E0
:101B70000E94D10560E08D2D0E949F0568E08DEBED
:101B800094E00E94AE0560E08E2D0E949F0569E002
:101B90008DEB94E00E94AE0526E0E22EE10E61E0BE
:101BA0008E2D0E949F0563E08DEB94E00E94AE05B0
:101BB00060E08E2D0E949F0563E08DEB94E00E9413
:101BC000AE0560E08FE00E949F0562E08DEB94E03F
:101BD0000E94AE0561E08FE00E949F0562E08DEB00
:101BE00094E00E94AE0560E086EF810F0E949F05A1
:101BF0008EE293E00E94D10561E08F2D0E949F0547
:101C000063E08DEB94E00E94AE0560E08F2D0E94B2
:101C10009F0563E08DEB94E00E94AE0564E670E002
:101C200080E090E00E94E7030E94F604102F093143
:101C300009F062CF4ECE85ED94E00C949E061F9382
:101C4000FC0199278827BC01E89411911032E9F32F
:101C5000193010F01E30C8F31B3251F01D3249F418
:101C6000689406C00E94510E610F711D811D911D67
:101C7000119110531A30B0F33EF490958095709501
:101C800061957F4F8F4F9F4F1F910895BB274A301B
:101C900031F4992322F4BDE2909581959F4F0C94E5
:101CA000670E592F482F372F262F660F771F881F53
:101CB000991F660F771F881F991F620F731F841F5C
:101CC000951F660F771F881F991F0895BB27FB017B
:101CD0005527AA27880F991FAA1FA41710F0A41B25
:101CE00083955051B9F7A05DAA3308F0A95DA1937F
:101CF000009779F7B111B1931192CB010C94800E3A
:101D0000DC01FC01672F71917723E1F7329704C062
:101D10007C916D9370836291AE17BF07C8F30895ED
:101D2000A1E21A2EAA1BBB1BFD010DC0AA1FBB1FDF
:101D3000EE1FFF1FA217B307E407F50720F0A21B51
:101D4000B30BE40BF50B661F771F881F991F1A94BE
:101D500069F760957095809590959B01AC01BD01E8
:101D6000CF010895EE0FFF1F881F8BBF0790F691DC
:101D7000E02D19940F931F93CF93DF938230910539
:101D800010F482E090E0E091DD04F091DE0430E0B8
:101D900020E0B0E0A0E0309799F42115310509F476
:101DA0004AC0281B390B24303105D8F58A819B8124
:101DB0006115710589F1FB0193838283FE0111C0D6
:101DC000408151810281138148175907E0F048177B
:101DD000590799F4109761F012960C931297139685
:101DE0001C933296CF01DF91CF911F910F910895EF
:101DF0000093DD041093DE04F4CF2115310551F07A
:101E00004217530738F0A901DB019A01BD01DF0138
:101E1000F801C1CFEF01F9CF9093DE048093DD0488
:101E2000CDCFFE01E20FF31F819391932250310930
:101E300039832883D7CF2091DB043091DC04232B16
:101E400041F420914202309143023093DC0420930C
:101E5000DB0420914002309141022115310541F40B
:101E60002DB73EB74091440250914502241B350BDB
:101E7000E091DB04F091DC04E217F307A0F42E1BE1
:101E80003F0B2817390778F0AC014E5F5F4F2417DE
:101E9000350748F04E0F5F1F5093DC044093DB047E
:101EA000819391939FCFF0E0E0E09CCFCF93DF93BD
:101EB0000097E9F0FC01329713821282A091DD04B1
:101EC000B091DE04ED0130E020E01097A1F4208114
:101ED0003181820F931F2091DB043091DC0428179D
:101EE000390709F061C0F093DC04E093DB04DF9173
:101EF000CF910895EA01CE17DF07E8F54A815B81AB
:101F00009E0141155105B1F7E901FB83EA8349912F
:101F10005991C40FD51FEC17FD0761F480819181A1
:101F20000296840F951FE9019983888382819381AA
:101F30009B838A83F0E0E0E012968D919C91139749
:101F40000097B9F52D913C911197CD010296820F22
:101F5000931F2091DB043091DC042817390739F6F0
:101F6000309751F51092DE041092DD04B093DC043A
:101F7000A093DB04BCCFD383C28340815181840F03
:101F8000951FC817D90761F44E5F5F4F888199810B
:101F9000480F591F518340838A819B819383828399
:101FA0002115310509F0B0CFF093DE04E093DD0494
:101FB0009ECFFD01DC01C0CF13821282D7CF4F929A
:101FC0005F926F927F928F929F92AF92BF92CF92C9
:101FD000DF92EF92FF920F931F93CF93DF938C01C9
:101FE000009799F4CB01DF91CF911F910F91FF9052
:101FF000EF90DF90CF90BF90AF909F908F907F90A9
:102000006F905F904F900C94BA0EFC01E60FF71F93
:102010009C0122503109E217F30708F4AEC0D90140
:10202000CD91DC911197C617D70720F1C530D105A6
:1020300078F0CE0104978617970750F0C61BD70B90
:102040002297C193D1936D937C93CF010E94560F39
:10205000C801DF91CF911F910F91FF90EF90DF901A
:10206000CF90BF90AF909F908F907F906F905F9038
:102070004F9008955B01AC1ABD0A4C018C0E9D1E59
:10208000A091DD04B091DE04512C412CF12CE12C07
:10209000109731F58091DB049091DC048815990547
:1020A00009F05CC04616570608F058C080914002FF
:1020B00090914102009741F48DB79EB74091440240
:1020C00050914502841B950BE817F90708F055C09D
:1020D000F093DC04E093DB04F90171836083B8CFF3
:1020E0008D919C91119712966C90129713967C90FB
:1020F0001397A815B90559F56C0142E0C40ED11C1F
:10210000CA14DB0420F1AC014A195B09DA0112960A
:10211000159780F06282738251834083D9016D9359
:102120007C93E114F10471F0D7011396FC93EE93C4
:1021300012978ECF22968C0F9D1FF9019183808379
:10214000F301EFCFF093DE04E093DD0481CF481676
:10215000590608F42C017D01D3019ACFCB010E94CE
:10216000BA0E7C01009749F0AE01B8010E94C01080
:10217000C8010E94560F87016BCF10E000E068CFC6
:10218000FB01DC0102C001900D9241505040D8F794
:102190000895FC018191861721F08823D9F79927AA
:1021A00008953197CF010895FB01DC0101900D9254
:1021B0000020E1F7089511E0CDE3D1E000E006C092
:1021C000802FFE010E94B20E2196011DCE33D10751
:0A21D00080E00807A9F7F894FFCF9C
:1021DA00181E06030F0F0F0F1F1F00001F1F1F00DF
:1021EA001F1F00001F1F1F001F1F0303031F1F00C5
:1021FA0000000E1F1B1F0E0004061F1F060400000E
:10220A00040E1F0E0E0E00000010180C060301002B
:10221A000000DF0480000000000000000000000051
:10222A0000000000000000000000000000000000A4
:10223A000000000000000C000A000800060004006C
:10224A0002000F00110015004300370039003B005F
:10225A003D003F0041000D000B000900070005008A
:10226A0003000E00100014004200360038003A0045
:10227A003C003E00400016001700180019001A0022
:10228A001B001C001D001E001F0020002100220050
:10229A002300240025000000000039029901C6012C
:1022AA008602F701D501E90100000000AE05990197
:1022BA00570498012C005B002F005F005D00580056
:1022CA005041525155454F004C4C454E4F005041DC
:1022DA00525155454F532000444953504F4E49429D
:1022EA004C45533A20003043555041444F533A200D
:1022FA000052455345525641444F533A20004156E5
:06230A00414E43450000B6
:00000001FF
