:100000000C943F010C9470010C9470010C947001DD
:100010000C9470010C9470010C9470010C9470019C
:100020000C9470010C9470010C9470010C9470018C
:100030000C9470010C9470010C9470010C9470017C
:100040000C9470010C9470010C9470010C9470016C
:100050000C9470010C9470010C9470010C94940633
:100060000C9470010C946A060C9440060C94700178
:100070000C9470010C9470010C9470010C9470013C
:100080000C9470010C9470010C9470010C9470012C
:100090000C9416060C94EC050C9470010C947001F1
:1000A0000C9470010C9470010C9470010C9470010C
:1000B0000C9470010C9470010C9470010C947001FC
:1000C0000C9470010C9470010C9470010C94C20596
:1000D0000C9498050C9470010C9470010C947001B0
:1000E0000C9470010C9461040C94C8020C941803D5
:1000F0000C942F030C947B020C9444030C943D0449
:100100000C943E030C9421020C94F9030C94DE062B
:100110000C944D040C9437030C9463090C94640301
:100120000C944E030C940D020C9456030C946E0325
:100130000C94B8010C943B040C9452030C943303BC
:100140000C9423040C943B030C9448030C9411046A
:100150000C942F020C9460030C9443040C9403043D
:100160000C946A030C941D030C945C030C94FE0124
:100170000C945B0400000A0B02090C0D0E08070327
:10018000040100000000000000000000000000006A
:10019000000000000000000000000000000000005F
:1001A000121110000000000000000000000000001C
:1001B00000000000000000000000000022002500F8
:1001C00028002B002E003100340002010000050140
:1001D00008010B0100002100240027002A002D0047
:1001E0003000330001010000040107010A01050588
:1001F0000505070508080808020202020A0A08089D
:1002000004040404010101010101010103030303CA
:1002100003030303040707070C0C0C0C0C0C0C0C59
:100220000202020206060606060606060B0B0B0B6A
:100230000B0B0B0B0102102020080810204010208F
:10024000408002010201080402010102040810209A
:100250004080804020100804020180040201804098
:100260002010080402010804020101020408102001
:1002700040800102040810204080DE06630911243A
:100280001FBECFEFD1E2DEBFCDBF00E00CBF24E048
:10029000A6E3B2E001C01D92A535B207E1F712E076
:1002A000A0E0B2E0EAE0F8E100E00BBF02C0079096
:1002B0000D92A633B107D9F711E0CEE3D1E000E00B
:1002C00006C021970109802FFE010E949F09CD33AE
:1002D000D10780E00807A9F70E9460080C94F30B8F
:1002E0000C94000090E0FC01EC5CFD4F24918251E5
:1002F0009E4FFC018491882399F090E0880F991F0C
:10030000FC01EC52FE4FA591B491FC01E654FE4F66
:10031000859194918FB7F894EC91E22BEC938FBF79
:100320000895FC01A089B18982E08C93A485B585EC
:100330001C92A685B7858FEC8C93108EA489B58905
:1003400086E08C93A289B3898C9180618C93A28979
:10035000B3898C9188608C93A289B3898C918068D1
:100360008C930288F389E02D80818F7D80830895AE
:10037000AF92BF92CF92DF92EF92FF920F931F93B3
:10038000CF93DF936C017B018B01040F151FEB01F1
:100390005E01AE18BF08C017D10759F06991D601A8
:1003A000ED91FC910190F081E02DC6011995892B0A
:1003B00079F7C501DF91CF911F910F91FF90EF90D9
:1003C000DF90CF90BF90AF900895FC01A089B189D4
:1003D0008C91A689B78982FD0FC09C91818D8F5F1A
:1003E0008F73228D821749F0A18DAE0FBF2FB11DE3
:1003F0005D969C93818F08958C910895FC01538D97
:10040000448D252F30E0842F90E0821B930B5417EE
:1004100010F0CF96089501970895FC01918D828D7B
:10042000981761F0A28DAE0FBF2FB11D5D968C9114
:10043000928D9F5F9F73928F90E008958FEF9FEF53
:100440000895FC01918D828D981731F0828DE80F0F
:10045000F11D858D90E008958FEF9FEF0895FC01C9
:10046000918D228D892F90E0805C9F4F821B910996
:100470008F739927089580E492E00E942F0221E073
:10048000892B09F420E0822F08958DED92E00E94DF
:100490002F0221E0892B09F420E0822F08958AE7BA
:1004A00093E00E942F0221E0892B09F420E0822FA3
:1004B0000895FC01A48DA80FB92FB11DA35ABF4FF9
:1004C0002C91848D90E001968F739927848FA68953
:1004D000B7892C93A089B1898C91837080648C93A7
:1004E000938D848D981306C00288F389E02D808156
:1004F0008F7D80830895EF92FF920F931F93CF9388
:10050000DF93EC0181E0888F9B8D8C8D98131AC04E
:10051000E889F989808185FF15C09FB7F894EE8935
:10052000FF896083E889F989808183708064808392
:100530009FBF81E090E0DF91CF911F910F91FF90DD
:10054000EF900895F62E0B8D10E00F5F1F4F0F7385
:100550001127E02E8C8D8E110CC00FB607FCFACF40
:10056000E889F989808185FFF5CFCE010E94590283
:10057000F1CFEB8DEC0FFD2FF11DE35AFF4FF08211
:100580009FB7F8940B8FEA89FB8980818062CFCF77
:10059000CF93DF93EC01888D8823B9F0AA89BB89BA
:1005A000E889F9898C9185FD03C0808186FD0DC0A5
:1005B0000FB607FCF7CF8C9185FFF2CF808185FFC6
:1005C000EDCFCE010E945902E9CFDF91CF9108957E
:1005D000282F30E0F901EC58FE4F9491F901EC5CC2
:1005E000FD4F449122513E4FF9012491222309F4F9
:1005F00035C0992311F191509231F8F4E92FF0E0D0
:100600008827EA5FFC4F8F4F0C949F0937033B0309
:1006100018032F0333031D033E03440348034E0313
:10062000520356035C0360031D0364036A036E03F5
:10063000809180008F7780938000E22FF0E0EE0FB2
:10064000FF1FE654FE4FA591B4918FB7F894EC913B
:10065000611148C040954E234C938FBF08958091FF
:1006600080008F7DE8CF80918000877FE4CF84B5C4
:100670008F7784BDE2CF84B58F7DFBCF8091B000B2
:100680008F778093B000D9CF8091B0008F7DF9CF64
:10069000809190008F7780939000CFCF80919000D1
:1006A0008F7DF9CF80919000877FF5CF8091A0005A
:1006B0008F778093A000C1CF8091A0008F7DF9CF6C
:1006C0008091A000877FF5CF809120018F77809364
:1006D0002001B3CF809120018F7DF9CF809120013F
:1006E000877FF5CF4E2BB8CF0F931F93CF93DF9318
:1006F000EC018B0188859985029751F46130710571
:1007000009F43AC06CF560E00115110509F435C033
:1007100088859985049751F40130110509F455C075
:100720000CF035C00115110509F43EC08885998586
:10073000059709F0C8C00A30110508F0C4C0F801D7
:100740008827EA55FC4F8F4F0C949F09F903030447
:10075000110423043B043D0443044D045B04610481
:100760006230710591F060E00330110589F68C85E7
:100770000E94E80260E005C061E08C850E94E8020A
:1007800061E08E850E94E802C3CF61E0F0CF0230C5
:10079000110509F10330110509F0C8CF61E08C851E
:1007A0000E94E80260E01CC061E08C850E94E802C3
:1007B00060E08E850E94E80261E088890E94E8027C
:1007C00060E08A890E94E802B1CF60E08C850E94D7
:1007D000E80261E0EECF60E08C850E94E80261E013
:1007E0008E850E94E80260E088890E94E80261E04C
:1007F000E8CF60E08C850E94E80261E08E850E946F
:10080000E80261E009C060E08C850E94E80261E0D6
:100810008E850E94E80260E088890E94E80260E01C
:100820000DC060E08C850E94E80261E08E850E9428
:10083000E80260E088890E94E80261E08A890E94FB
:10084000E80261E011C060E08C850E94E80261E08E
:100850008E850E94E80260E088890E94E80261E0DB
:100860008A890E94E80260E08C89DF91CF911F9114
:100870000F910C94E80261E0E7CF61E08C850E9463
:10088000E80260E0E5CF61E08C850E94E80260E06C
:100890008E850E94E80261E0DFCF61E08C850E94D6
:1008A000E80260E08E850E94E80261E088890E948B
:1008B000E80260E0D5CF61E08C850E94E80260E04C
:1008C0009DCF60E0F9CFDF91CF911F910F910895F7
:1008D0008F929F92AF92BF92CF92DF92EF92FF9250
:1008E0000F931F93CF93DF93EC018B0177FF04C02D
:1008F00000271127061B170B161617060CF06AC0E7
:1009000081E090E09983888354E0E52EF12C6AE041
:10091000C62ED12C0115110509F46EC03FB7F8940D
:100920008091360290913702A0913802B09139023D
:1009300026B5A89B05C02F3F19F00196A11DB11D3A
:100940003FBFBA2FA92F982F8827820F911DA11D75
:10095000B11D42E0880F991FAA1FBB1F4A95D1F70E
:100960004E895F89688D798D4C015D01841A950AE5
:10097000A60AB70A4A815B816C817D81841695063F
:10098000A606B70638F28E8B9F8BA88FB98F8A8503
:100990009B85288139812130310511F501969B878E
:1009A0008A872E813F818217930711F41B861A864E
:1009B000015011098A859B8528853985B601253026
:1009C000310509F0B7010E946C09BC01CE010E94FB
:1009D0007403A0CF672B09F497CF1982188294CFA4
:1009E000892B21F48E819F819B878A878A859B85AD
:1009F00001979B878A87DCCFDF91CF911F910F9161
:100A0000FF90EF90DF90CF90BF90AF909F908F902E
:100A10000895CF93DF93EC0180911704909118040F
:100A2000009759F02091190430911A042C173D07B2
:100A300020F081E0DF91CF910895BE016F5F7F4F7D
:100A40000E94020B009789F090931804809317047A
:100A5000D0931A04C093190420911B0430911C04F4
:100A6000232B39F7FC011082E4CF80E0E3CF0F9312
:100A70001F93CF93DF931F921F92CDB7DEB78AE704
:100A800093E00E942F02892B39F18AE793E00E94BC
:100A90000D028F35A1F389831A8200911B041091F6
:100AA0001C040F5F1F4FC8010E940905882339F3FA
:100AB000209117043091180480911B0490911C041C
:100AC000BE016F5F7F4F820F931F0E94EC0B10934C
:100AD0001C0400931B04D3CF0F900F90DF91CF9194
:100AE0001F910F9108950E944F0281110E943705B6
:100AF00080E090E0892B29F00E94450281110E943C
:100B0000000080E090E0892B29F00E943B028111D7
:100B10000E94000080E090E0892B49F080E090E0A6
:100B2000892B29F00E94000081110C940000089587
:100B30001F920F920FB60F9211240BB60F922F93A4
:100B40003F934F935F936F937F938F939F93AF9355
:100B5000BF93EF93FF9380E492E00E945902FF91CC
:100B6000EF91BF91AF919F918F917F916F915F9125
:100B70004F913F912F910F900BBE0F900FBE0F9092
:100B80001F9018951F920F920FB60F9211240BB65B
:100B90000F922F933F934F935F936F937F938F9316
:100BA0009F93AF93BF93EF93FF9380E492E00E94F3
:100BB000E501FF91EF91BF91AF919F918F917F914F
:100BC0006F915F914F913F912F910F900BBE0F90BE
:100BD0000FBE0F901F9018951F920F920FB60F9295
:100BE00011240BB60F922F933F934F935F936F9304
:100BF0007F938F939F93AF93BF93EF93FF938DED6D
:100C000092E00E945902FF91EF91BF91AF919F91A5
:100C10008F917F916F915F914F913F912F910F90A5
:100C20000BBE0F900FBE0F901F9018951F920F9242
:100C30000FB60F9211240BB60F922F933F934F9341
:100C40005F936F937F938F939F93AF93BF93EF9334
:100C5000FF938DED92E00E94E501FF91EF91BF912E
:100C6000AF919F918F917F916F915F914F913F9144
:100C70002F910F900BBE0F900FBE0F901F901895E5
:100C80001F920F920FB60F9211240BB60F922F9353
:100C90003F934F935F936F937F938F939F93AF9304
:100CA000BF93EF93FF938AE793E00E945902FF916D
:100CB000EF91BF91AF919F918F917F916F915F91D4
:100CC0004F913F912F910F900BBE0F900FBE0F9041
:100CD0001F9018951F920F920FB60F9211240BB60A
:100CE0000F922F933F934F935F936F937F938F93C5
:100CF0009F93AF93BF93EF93FF938AE793E00E9494
:100D0000E501FF91EF91BF91AF919F918F917F91FD
:100D10006F915F914F913F912F910F900BBE0F906C
:100D20000FBE0F901F9018951F920F920FB60F9243
:100D300011242F933F938F939F93AF93BF938091F1
:100D40003B0290913C02A0913D02B0913E02309155
:100D50003A0223E0230F2D3758F50196A11DB11D4E
:100D600020933A0280933B0290933C02A0933D0271
:100D7000B0933E028091360290913702A0913802E2
:100D8000B09139020196A11DB11D80933602909356
:100D90003702A0933802B0933902BF91AF919F916F
:100DA0008F913F912F910F900FBE0F901F9018952C
:100DB00026E8230F0296A11DB11DD2CF0F931F93DA
:100DC000CF93DF93109243021092420248EE53E019
:100DD00060E070E040934402509345026093460205
:100DE0007093470286E292E0909341028093400222
:100DF00025ED30E030934D0220934C0224ED30E09D
:100E000030934F0220934E0220ED30E03093510298
:100E10002093500221ED30E0309353022093520290
:100E200022ED30E0309355022093540226ED30E05D
:100E300030935702209356021092590210925A0290
:100E400010925B0210925C021092E0021092DF029C
:100E50004093E1025093E2026093E3027093E40254
:100E60009093DE028093DD022DEC30E03093EA02B5
:100E70002093E9022CEC30E03093EC022093EB025B
:100E800028EC30E03093EE022093ED0229EC30E0C4
:100E90003093F0022093EF022AEC30E03093F2021C
:100EA0002093F1022EEC30E03093F4022093F30211
:100EB0001092F6021092F7021092F8021092F902C4
:100EC00010927D0310927C0340937E0350937F0326
:100ED000609380037093810390937B0380937A03E4
:100EE00085EC90E0909387038093860384EC90E0F8
:100EF000909389038093880380EC90E090938B0318
:100F000080938A0381EC90E090938D0380938C030F
:100F100082EC90E090938F0380938E0386EC90E0B8
:100F200090939103809390031092930310929403F3
:100F3000109295031092960310924204109241046D
:100F4000109238041092370410924D0410924E04FF
:100F500010924F041092500404E610E010933E04E7
:100F600000933D0488E290E090934404809343040E
:100F700089E290E090934604809345048AE290E0F1
:100F800090934804809347048BE290E090934A0446
:100F90008093490488E20E947201809145040E9476
:100FA0007201809147040E947201809149040E945D
:100FB000720110924C0410924B04C4E0D0E0D09324
:100FC0004004C0933F04109228041092270410920A
:100FD0001E0410921D0410923304109234041092D7
:100FE00035041092360410932404009323048CE2F9
:100FF00090E090932A04809329048DE290E09093EE
:101000002C0480932B048EE290E090932E04809326
:101010002D048FE290E09093300480932F048CE2B3
:101020000E94720180912B040E94720180912D0414
:101030000E94720180912F040E947201109232046A
:1010400010923104D0932604C09325041092180402
:101050001092170410921A041092190410921C0492
:1010600010921B0490E080E00E9409052091170473
:1010700030911804811117C02115310519F0C901EB
:101080000E94790A109218041092170410921C04FE
:1010900010921B0410921A0410921904DF91CF9140
:1010A0001F910F91089510921C0410921B0464E389
:1010B00072E0C901DF91CF911F910F910C94EC0B5D
:1010C000789484B5826084BD84B5816084BD85B523
:1010D000826085BD85B5816085BD80916E0081602F
:1010E00080936E00109281008091810082608093D5
:1010F00081008091810081608093810080918000D7
:101100008160809380008091B10084608093B10001
:101110008091B00081608093B000809191008260E6
:1011200080939100809191008160809391008091E3
:1011300090008160809390008091A10082608093F4
:10114000A1008091A10081608093A1008091A00006
:1011500081608093A00080912101826080932101B1
:101160008091210181608093210180912001816023
:101170008093200180917A00846080937A0080912E
:101180007A00826080937A0080917A0081608093F7
:101190007A0080917A00806880937A001092C10072
:1011A0008AE793E00E9491018DED92E00E94910107
:1011B00080E492E00E94910188EC90E00E94090591
:1011C000C6E0D2E0888122960E94720182E0C0329D
:1011D000D807C1F720913D0430913E04032E000C46
:1011E000440B550BC12C87E8D82E83E9E82E83E009
:1011F000F82EC701B6010E9480099AE0892E912C31
:10120000A12CB12CCA01B901A50194010E94800949
:101210002093390430933A0440933B0450933C04A8
:101220002091230430912404032E000C440B550B11
:10123000C701B6010E948009CA01B901A501940144
:101240000E94800920931F043093200440932104BE
:101250005093220480E492E00E942F02181619068F
:1012600094F480E492E00E940D0280933F02813466
:1012700069F461E080E30E94E8026EEB7FEF87E3B0
:1012800094E00E9468040E947305E4CF823439F42C
:1012900060E080E30E94E80262E470E0F0CF843412
:1012A00049F461E081E30E94E8026EEB7FEF8DE19B
:1012B00094E0E7CF853439F760E081E30E94E802EB
:1012C00062E470E0F4CF80911704909118040097C5
:1012D00011F00C94790A089597FB072E16F40094E8
:1012E00007D077FD09D00E94A70907FC05D03EF47E
:1012F000909581959F4F0895709561957F4F0895C2
:10130000052E97FB1EF400940E94970957FD07D005
:101310000E94BB0907FC03D04EF40C94970950952A
:101320004095309521953F4F4F4F5F4F08959095D1
:101330008095709561957F4F8F4F9F4F0895EE0F69
:10134000FF1F881F8BBF0790F691E02D1994AA1BF1
:10135000BB1B51E107C0AA1FBB1FA617B70710F0A0
:10136000A61BB70B881F991F5A95A9F780959095D2
:10137000BC01CD010895A1E21A2EAA1BBB1BFD01E1
:101380000DC0AA1FBB1FEE1FFF1FA217B307E40764
:10139000F50720F0A21BB30BE40BF50B661F771FBC
:1013A000881F991F1A9469F760957095809590959C
:1013B0009B01AC01BD01CF0108950F931F93CF9303
:1013C000DF938230910510F482E090E0E0915304C5
:1013D000F091540430E020E0B0E0A0E0309799F4C0
:1013E0002115310509F44AC0281B390B2430310579
:1013F000D8F58A819B816115710589F1FB01938381
:101400008283FE0111C040815181028113814817FE
:101410005907E0F04817590799F4109761F01296B0
:101420000C93129713961C933296CF01DF91CF91B4
:101430001F910F9108950093530410935404F4CF17
:101440002115310551F04217530738F0A901DB018E
:101450009A01BD01DF01F801C1CFEF01F9CF9093EF
:10146000540480935304CDCFFE01E20FF31F819308
:1014700091932250310939832883D7CF2091510489
:1014800030915204232B41F4209102023091030247
:1014900030935204209351042091000230910102B4
:1014A0002115310541F42DB73EB74091040250910A
:1014B0000502241B350BE0915104F0915204E21710
:1014C000F307A0F42E1B3F0B2817390778F0AC0167
:1014D0004E5F5F4F2417350748F04E0F5F1F509344
:1014E000520440935104819391939FCFF0E0E0E048
:1014F0009CCFCF93DF930097E9F0FC0132971382E2
:101500001282A0915304B0915404ED0130E020E028
:101510001097A1F420813181820F931F20915104F3
:10152000309152042817390709F061C0F093520432
:10153000E0935104DF91CF910895EA01CE17DF07C0
:10154000E8F54A815B819E0141155105B1F7E9013A
:10155000FB83EA8349915991C40FD51FEC17FD070E
:1015600061F4808191810296840F951FE90199832E
:101570008883828193819B838A83F0E0E0E01296E6
:101580008D919C9113970097B9F52D913C911197EE
:10159000CD010296820F931F209151043091520485
:1015A0002817390739F6309751F5109254041092E4
:1015B0005304B0935204A0935104BCCFD383C2838D
:1015C00040815181840F951FC817D90761F44E5F80
:1015D0005F4F88819981480F591F518340838A81C9
:1015E0009B81938382832115310509F0B0CFF0935D
:1015F0005404E09353049ECFFD01DC01C0CF13825D
:101600001282D7CF4F925F926F927F928F929F926A
:10161000AF92BF92CF92DF92EF92FF920F931F9300
:10162000CF93DF938C01009799F4CB01DF91CF9199
:101630001F910F91FF90EF90DF90CF90BF90AF90F0
:101640009F908F907F906F905F904F900C94DD09EA
:10165000FC01E60FF71F9C0122503109E217F30746
:1016600008F4AEC0D901CD91DC911197C617D70708
:1016700020F1C530D10578F0CE0104978617970781
:1016800050F0C61BD70B2297C193D1936D937C93D7
:10169000CF010E94790AC801DF91CF911F910F916C
:1016A000FF90EF90DF90CF90BF90AF909F908F9082
:1016B0007F906F905F904F9008955B01AC1ABD0AC8
:1016C0004C018C0E9D1EA0915304B0915404512CDA
:1016D000412CF12CE12C109731F58091510490911F
:1016E00052048815990509F05CC04616570608F0A3
:1016F00058C08091000290910102009741F48DB78B
:101700009EB74091040250910502841B950BE81787
:10171000F90708F055C0F0935204E0935104F90121
:1017200071836083B8CF8D919C91119712966C90C4
:10173000129713967C901397A815B90559F56C016B
:1017400042E0C40ED11CCA14DB0420F1AC014A19DA
:101750005B09DA011296159780F0628273825183D9
:101760004083D9016D937C93E114F10471F0D701AA
:101770001396FC93EE9312978ECF22968C0F9D1F9B
:10178000F90191838083F301EFCFF0935404E09348
:10179000530481CF4816590608F42C017D01D3016A
:1017A0009ACFCB010E94DD097C01009749F0AE0180
:1017B000B8010E94E30BC8010E94790A87016BCF30
:1017C00010E000E068CFFB01DC0102C001900D9247
:1017D00041505040D8F70895FB01DC0101900D9273
:1017E0000020E1F7089511E0CEE3D1E000E006C06B
:1017F000802FFE010E949F092196011DCF33D10742
:0A18000080E00807A9F7F894FFCF75
:10180A00000055048000280029002A002B002C0023
:10181A002D002E002F00300031003200330034003A
:10182A003500000000007B02B801FE01C8022F0249
:06183A000D022102000076
:00000001FF
