:100000000C9445010C9476010C9476010C947601C5
:100010000C9476010C9476010C9476010C94760184
:100020000C9476010C9476010C9476010C94760174
:100030000C9476010C9476010C9476010C94760164
:100040000C9476010C9476010C9476010C94760154
:100050000C9476010C9476010C9476010C94AC0807
:100060000C9476010C9482080C9458080C94760138
:100070000C9476010C9476010C9476010C94760124
:100080000C9476010C9476010C9476010C94760114
:100090000C942E080C9404080C9476010C947601B0
:1000A0000C9476010C9476010C9476010C947601F4
:1000B0000C9476010C9476010C9476010C947601E4
:1000C0000C9476010C9476010C9476010C94DA076A
:1000D0000C94B0070C9476010C9476010C94760184
:1000E0000C9476010C9439030C9413020C94AC0319
:1000F0000C944A030C9454030C943E040C94350362
:100100000C94520D0C944C040C9404020C94340482
:100110000C946A030C9474030C9462030C944103D2
:100120000C9427020C94BE010C94F6080C943D0329
:100130000C9478040C9423030C9458030C945C03E3
:100140000C947C060C9466030C9476040C949C042A
:100150000C944E030C9488040C9444030C947E0479
:100160000C9470030C94AB030C9496040C94CE0284
:100170000C941E030C945E040C9481020C943502C2
:1001800000000A0B02090C0D0E0807030401000011
:10019000000000000000000000000000000000005F
:1001A000000000000000000000000000121110001C
:1001B000000000000000000000000000000000003F
:1001C00000000000000000002200250028002B0095
:1001D0002E003100340002010000050108010B016E
:1001E00000002100240027002A002D0030003300E9
:1001F00001010000040107010A01050505050705C5
:1002000008080808020202020A0A08080404040492
:1002100001010101010101010303030303030303BE
:10022000040707070C0C0C0C0C0C0C0C020202024D
:1002300006060606060606060B0B0B0B0B0B0B0B36
:1002400001021020200808102040102040800201E8
:1002500002010804020101020408102040808040CD
:1002600020100804020180040201804020100804CC
:10027000020108040201010204081020408001026A
:10028000040810204080F608520D11241FBECFEF45
:10029000D1E2DEBFCDBF00E00CBF25E0A0ECB2E0B4
:1002A00001C01D92AB30B207E1F712E0A0E0B2E06E
:1002B000E8EEFFE100E00BBF02C007900D92A03C0A
:1002C000B107D9F711E0C4E4D1E000E006C02197FE
:1002D0000109802FFE010E94B00DC334D10780E0D8
:1002E0000807A9F70E94A00A0C94E20F0C940000E2
:1002F00090E0FC01E05CFD4F249186509E4FFC0194
:100300008491882399F090E0880F991FFC01E052B6
:10031000FE4FA591B491FC01EA53FE4F8591949153
:100320008FB7F894EC91E22BEC938FBF0895FC010A
:10033000A089B18982E08C93A485B5851C92A6859D
:10034000B7858FEC8C93108EA489B58986E08C9349
:10035000A289B3898C9180618C93A289B3898C9195
:1003600088608C93A289B3898C9180688C93028871
:10037000F389E02D80818F7D80830895AF92BF92B5
:10038000CF92DF92EF92FF920F931F93CF93DF9361
:100390006C017B018B01040F151FEB015E01AE1890
:1003A000BF08C017D10759F06991D601ED91FC91B2
:1003B0000190F081E02DC6011995892B79F7C501CF
:1003C000DF91CF911F910F91FF90EF90DF90CF9031
:1003D000BF90AF900895FC01A089B1898C91A68946
:1003E000B78982FD0FC09C91818D8F5F8F73228DA5
:1003F000821749F0A18DAE0FBF2FB11D5D969C9362
:10040000818F08958C910895FC01538D448D252F83
:1004100030E0842F90E0821B930B541710F0CF969E
:10042000089501970895FC01918D828D981761F0D0
:10043000A28DAE0FBF2FB11D5D968C91928D9F5FE7
:100440009F73928F90E008958FEF9FEF0895FC01C6
:10045000918D828D981731F0828DE80FF11D858D79
:1004600090E008958FEF9FEF0895FC01918D228D0C
:10047000892F90E0805C9F4F821B91098F73992791
:1004800008958EED92E00E94350221E0892B09F457
:1004900020E0822F08958BE793E00E94350221E04F
:1004A000892B09F420E0822F089588E194E00E94CE
:1004B000350221E0892B09F420E0822F0895FC0108
:1004C000A48DA80FB92FB11DA35ABF4F2C91848DB5
:1004D00090E001968F739927848FA689B7892C9312
:1004E000A089B1898C91837080648C93938D848D65
:1004F000981306C00288F389E02D80818F7D808368
:100500000895EF92FF920F931F93CF93DF93EC0127
:1005100081E0888F9B8D8C8D98131AC0E889F989AA
:10052000808185FF15C09FB7F894EE89FF896083AD
:10053000E889F98980818370806480839FBF81E02E
:1005400090E0DF91CF911F910F91FF90EF90089570
:10055000F62E0B8D10E00F5F1F4F0F731127E02E4B
:100560008C8D8E110CC00FB607FCFACFE889F98983
:10057000808185FFF5CFCE010E945F02F1CFEB8D28
:10058000EC0FFD2FF11DE35AFF4FF0829FB7F89457
:100590000B8FEA89FB8980818062CFCFCF93DF9375
:1005A000EC01888D8823B9F0AA89BB89E889F9898B
:1005B0008C9185FD03C0808186FD0DC00FB607FCC0
:1005C000F7CF8C9185FFF2CF808185FFEDCFCE01F3
:1005D0000E945F02E9CFDF91CF910895282F30E08C
:1005E000F901E058FE4F9491F901E05CFD4F449110
:1005F00026503E4FF9012491222309F435C0992356
:1006000011F191509231F8F4E92FF0E08827E45F7E
:10061000FC4F8F4F0C94B00D3D0341031E03350377
:100620003903230344034A034E03540358035C0372
:100630006203660323036A037003740380918000DE
:100640008F7780938000E22FF0E0EE0FFF1FEA53D8
:10065000FE4FA591B4918FB7F894EC91611148C009
:1006600040954E234C938FBF0895809180008F7DDD
:10067000E8CF80918000877FE4CF84B58F7784BDF9
:10068000E2CF84B58F7DFBCF8091B0008F778093D0
:10069000B000D9CF8091B0008F7DF9CF80919000CC
:1006A0008F7780939000CFCF809190008F7DF9CF8E
:1006B00080919000877FF5CF8091A0008F77809305
:1006C000A000C1CF8091A0008F7DF9CF8091A000C4
:1006D000877FF5CF809120018F7780932001B3CF62
:1006E000809120018F7DF9CF80912001877FF5CF08
:1006F0004E2BB8CF3FB7F8948091C5029091C602B7
:10070000A091C702B091C80226B5A89B05C02F3F93
:1007100019F00196A11DB11D3FBFBA2FA92F982F27
:100720008827BC01CD01620F711D811D911D42E022
:10073000660F771F881F991F4A95D1F708952FB725
:10074000F8946091C1027091C2028091C3029091AD
:10075000C4022FBF0895089590E080E008950F939C
:100760001F93CF93DF93EC018B01888599850297C6
:1007700051F46130710509F43AC06CF560E001157F
:10078000110509F435C088859985049751F4013025
:10079000110509F455C00CF035C00115110509F417
:1007A0003EC088859985059709F0C8C00A301105B3
:1007B00008F0C4C0F8018827EF51FC4F8F4F0C940C
:1007C000B00D34043E044C045E04760478047E04C8
:1007D000880496049C046230710591F060E0033057
:1007E000110589F68C850E94EE0260E005C061E08B
:1007F0008C850E94EE0261E08E850E94EE02C3CFDE
:1008000061E0F0CF0230110509F10330110509F064
:10081000C8CF61E08C850E94EE0260E01CC061E000
:100820008C850E94EE0260E08E850E94EE0261E0FF
:1008300088890E94EE0260E08A890E94EE02B1CFB0
:1008400060E08C850E94EE0261E0EECF60E08C8576
:100850000E94EE0261E08E850E94EE0260E08889CF
:100860000E94EE0261E0E8CF60E08C850E94EE021B
:1008700061E08E850E94EE0261E009C060E08C8537
:100880000E94EE0261E08E850E94EE0260E088899F
:100890000E94EE0260E00DC060E08C850E94EE02D6
:1008A00061E08E850E94EE0260E088890E94EE027F
:1008B00061E08A890E94EE0261E011C060E08C85EF
:1008C0000E94EE0261E08E850E94EE0260E088895F
:1008D0000E94EE0261E08A890E94EE0260E08C894B
:1008E000DF91CF911F910F910C94EE0261E0E7CF61
:1008F00061E08C850E94EE0260E0E5CF61E08C85CE
:100900000E94EE0260E08E850E94EE0261E0DFCF81
:1009100061E08C850E94EE0260E08E850E94EE020E
:1009200061E088890E94EE0260E0D5CF61E08C85AD
:100930000E94EE0260E09DCF60E0F9CFDF91CF91A1
:100940001F910F9108954F925F926F927F928F92B5
:100950009F92AF92BF92CF92DF92EF92FF920F934E
:100960001F93CF93DF93EC018B0177FF04C0002727
:100970001127061B170B161617060CF04AC081E04C
:1009800090E09983888384E0E82EF12C9AE0C92EC8
:10099000D12C0115110509F44EC00E947A038E88EE
:1009A0009F88A88CB98C2B013C01481859086A080B
:1009B0007B088A809B80AC80BD80481459046A04FF
:1009C0007B0438F36E8B7F8B888F998F8A859B850C
:1009D000288139812130310511F501969B878A875D
:1009E0002E813F818217930711F41B861A860150CE
:1009F00011098A859B8528853985B6012530310501
:100A000009F0B7010E945B0DBC01CE010E94AF034B
:100A1000C0CF672B09F4B7CF19821882B4CF892BC6
:100A200021F48E819F819B878A878A859B85019788
:100A30009B878A87DCCFDF91CF911F910F91FF9029
:100A4000EF90DF90CF90BF90AF909F908F907F906E
:100A50006F905F904F900895CF93DF93EC0160E02B
:100A60008E810E94EE0261E08E810E94EE0260E0C3
:100A70008E810E94EE028BE891E00197F1F7DF9101
:100A8000CF910895CF92DF92EF92FF920F931F9331
:100A9000CF93DF936C017C0187E0E80EF11CD0E07E
:100AA000C0E0062F10E0B8010C2E02C075956795C6
:100AB0000A94E2F76170F70181917F010E94EE02D2
:100AC0002196C430D10579F7C601DF91CF911F91EE
:100AD0000F91FF90EF90DF90CF900C942C05CF9268
:100AE000DF92EF92FF920F931F93CF93DF93EC016E
:100AF000F62E642F8C810E94EE028D818F3F19F0BB
:100B000060E00E94EE020F2D10E08F8584FF25C06B
:100B10006E0187E0C80ED11CF12CE12CB8010E2C1F
:100B200002C0759567950A94E2F76170F6018191AC
:100B30006F010E94EE02FFEFEF1AFF0A88E0E8164D
:100B4000F10461F7CE01DF91CF911F910F91FF90DA
:100B5000EF90DF90CF900C942C05B80184E0759550
:100B600067958A95E1F7CE010E9442056F2DCE016F
:100B7000DF91CF911F910F91FF90EF90DF90CF9079
:100B80000C94420540E0682F85EB94E00C946F05CF
:100B900081E00E94C2058BE39FE10197F1F7089580
:100BA000CF93DF93823029F49091C404986090939E
:100BB000C4048093C8041092C90480E48093CA04DA
:100BC00080E18093CB0480E58093CC048091B904CC
:100BD0000E9478018091BA048F3F11F00E94780141
:100BE0008091BB040E947801C5EBD4E09E01255B97
:100BF00034408091C40484FD0AC084E090E02196D2
:100C0000281739073CF48E810E947801EFCF88E0E5
:100C100090E0F5CF8BE39DE00197F1F760E08091E4
:100C2000B9040E94EE0260E08091BB040E94EE02D3
:100C30008091BA048F3F19F060E00E94EE0280912B
:100C4000C40484FD34C063E085EB94E00E94420557
:100C5000CBE4D6E4CE010197F1F763E085EB94E0B5
:100C60000E9442052197F1F763E085EB94E00E9432
:100C7000420583E592E00197F1F762E085EB94E0AD
:100C80000E9442058091C40480620E94C20584E0F3
:100C90008093C5048CE00E94C2050E94C80582E0D2
:100CA0008093C60486E0DF91CF910C94C2058062E8
:100CB0000E94C2058BE496E40197F1F78091C40489
:100CC00080620E94C20583E592E00197F1F780916E
:100CD000C40480620E94C205D5CF9091C8046917F0
:100CE00010F06FEF690FE62FF0E0EB54FB4F9489A3
:100CF000890F80680C94C20541E00E946F0581E075
:100D000090E008950F931F93CF93DF938B0187702B
:100D100028E0829FC001112480640E94C205E8017E
:100D2000085F1F4F699185EB94E00E947C06C01715
:100D3000D107C1F7DF91CF911F910F9108950097CF
:100D400069F0FC0101900020E9F73197AF01481BE1
:100D5000590BBC0185EB94E00C94BE0190E080E05F
:100D600008958F929F92AF92BF92CF92DF92EF92AF
:100D7000FF92CF93DF93CDB7DEB7A1970FB6F8946C
:100D8000DEBF0FBECDBF6C01990FEE08FF08F7FE66
:100D90003AC041E06DE285EB94E00E946F052227A6
:100DA0003327A9012C193D094E095F0919A2CE016B
:100DB00081967C019AE0892E912CA12CB12CCA013C
:100DC000B901A50194010E946F0D605DF701629366
:100DD0007F01211531054105510589F7CF010E9499
:100DE0009F060196A1960FB6F894DEBF0FBECDBF49
:100DF000DF91CF91FF90EF90DF90CF90BF90AF90B9
:100E00009F908F900895A701960119A2CE01819617
:100E10007C018AE0882E912CA12CB12CCA01B90149
:100E2000A50194010E946F0D605DF70162937F013F
:100E3000211531054105510589F7CF010E949F0613
:100E4000D1CFCF93DF93EC018091CD049091CE046C
:100E5000009759F02091CF043091D0042C173D0712
:100E600020F081E0DF91CF910895BE016F5F7F4F49
:100E70000E94F10E009789F09093CE048093CD04E8
:100E8000D093D004C093CF042091D1043091D204E8
:100E9000232B39F7FC011082E4CF80E0E3CF0F93DE
:100EA0001F93CF93DF931F921F92CDB7DEB788E1D8
:100EB00094E00E943502892B39F188E194E00E9488
:100EC00013028F35A1F389831A820091D104109106
:100ED000D2040F5F1F4FC8010E942107882339F3F6
:100EE0002091CD043091CE048091D1049091D20410
:100EF000BE016F5F7F4F820F931F0E94DB0F109325
:100F0000D2040093D104D3CF0F900F90DF91CF91F3
:100F10001F910F9108950E94550281110E944F0761
:100F200080E090E0892B29F00E944B0281110E9401
:100F3000000080E090E0892B29F00E94410281119D
:100F40000E94000080E090E0892B49F080E090E072
:100F5000892B29F00E94000081110C940000089553
:100F60001F920F920FB60F9211240BB60F922F9370
:100F70003F934F935F936F937F938F939F93AF9321
:100F8000BF93EF93FF938EED92E00E945F02FF917B
:100F9000EF91BF91AF919F918F917F916F915F91F1
:100FA0004F913F912F910F900BBE0F900FBE0F905E
:100FB0001F9018951F920F920FB60F9211240BB627
:100FC0000F922F933F934F935F936F937F938F93E2
:100FD0009F93AF93BF93EF93FF938EED92E00E94A8
:100FE000EB01FF91EF91BF91AF919F918F917F9115
:100FF0006F915F914F913F912F910F900BBE0F908A
:101000000FBE0F901F9018951F920F920FB60F9260
:1010100011240BB60F922F933F934F935F936F93CF
:101020007F938F939F93AF93BF93EF93FF938BE740
:1010300093E00E945F02FF91EF91BF91AF919F916A
:101040008F917F916F915F914F913F912F910F9071
:101050000BBE0F900FBE0F901F9018951F920F920E
:101060000FB60F9211240BB60F922F933F934F930D
:101070005F936F937F938F939F93AF93BF93EF9300
:10108000FF938BE793E00E94EB01FF91EF91BF91FB
:10109000AF919F918F917F916F915F914F913F9110
:1010A0002F910F900BBE0F900FBE0F901F901895B1
:1010B0001F920F920FB60F9211240BB60F922F931F
:1010C0003F934F935F936F937F938F939F93AF93D0
:1010D000BF93EF93FF9388E194E00E945F02FF913A
:1010E000EF91BF91AF919F918F917F916F915F91A0
:1010F0004F913F912F910F900BBE0F900FBE0F900D
:101100001F9018951F920F920FB60F9211240BB6D5
:101110000F922F933F934F935F936F937F938F9390
:101120009F93AF93BF93EF93FF9388E194E00E9466
:10113000EB01FF91EF91BF91AF919F918F917F91C3
:101140006F915F914F913F912F910F900BBE0F9038
:101150000FBE0F901F9018951F920F920FB60F920F
:1011600011242F933F938F939F93AF93BF938091BD
:10117000C1029091C202A091C302B091C402309109
:10118000C00223E0230F2D3758F50196A11DB11D94
:101190002093C0028093C1029093C202A093C30225
:1011A000B093C4028091C5029091C602A091C7027B
:1011B000B091C8020196A11DB11D8093C502909304
:1011C000C602A093C702B093C802BF91AF919F918E
:1011D0008F913F912F910F900FBE0F901F901895F8
:1011E00026E8230F0296A11DB11DD2CF0F931F93A6
:1011F000CF93DF931092E1021092E00248EE53E0A9
:1012000060E070E04093E2025093E3026093E402F6
:101210007093E50286E692E09093DF028093DE020F
:1012200025ED30E03093EB022093EA0224ED30E02C
:101230003093ED022093EC0220ED30E03093EF028A
:101240002093EE0221ED30E03093F1022093F00282
:1012500022ED30E03093F3022093F20226ED30E0ED
:101260003093F5022093F4021092F7021092F802E4
:101270001092F9021092FA0210927E0310927D03EE
:1012800040937F03509380036093810370938203A4
:1012900090937C0380937B032DEC30E030938803A4
:1012A000209387032CEC30E030938A03209389034A
:1012B00028EC30E030938C0320938B0329EC30E052
:1012C00030938E0320938D032AEC30E0309390030B
:1012D00020938F032EEC30E0309392032093910300
:1012E0001092940310929503109296031092970314
:1012F00010921B0410921A0440931C0450931D0476
:1013000060931E0470931F04909319048093180433
:1013100085EC90E0909325048093240484EC90E085
:10132000909327048093260480EC90E09093290406
:101330008093280481EC90E090932B0480932A04FE
:1013400082EC90E090932D0480932C0486EC90E046
:1013500090932F0480932E04109231041092320443
:1013600010923304109234041092F8041092F7048F
:101370001092EE041092ED041092030510920405F1
:10138000109205051092060504E610E01093F4048F
:101390000093F30488E290E09093FA048093F904B8
:1013A00089E290E09093FC048093FB048AE290E051
:1013B0009093FE048093FD048BE290E090930005EF
:1013C0008093FF0488E20E9478018091FB040E94D0
:1013D00078018091FD040E9478018091FF040E94B1
:1013E00078011092020510920105C4E0D0E0D0937C
:1013F000F604C093F5041092DE041092DD041092FE
:10140000D4041092D3041092E9041092EA041092CA
:10141000EB041092EC041093DA040093D9048CE2EC
:1014200090E09093E0048093DF048DE290E090934D
:10143000E2048093E1048EE290E09093E4048093D0
:10144000E3048FE290E09093E6048093E5048CE25D
:101450000E9478018091E1040E9478018091E30468
:101460000E9478018091E5040E9478011092E804BE
:101470001092E704D093DC04C093DB041092CE04F6
:101480001092CD041092D0041092CF041092D20486
:101490001092D10490E080E00E9421072091CD04B9
:1014A0003091CE04811142C02115310519F0C901D6
:1014B0000E94680E1092CE041092CD041092D204B5
:1014C0001092D1041092D0041092CF041092B8045C
:1014D0001092B70488E792E09093B6048093B50425
:1014E00086E18093B9048FEF8093BA0487E18093FB
:1014F000BB0488E18093BC0489E18093BD048AE148
:101500008093BE048BE18093BF041092C0041092BC
:10151000C1041092C2041092C3041092C40481E06A
:10152000DF91CF911F910F910C94D0051092D204AE
:101530001092D10467E972E0C9010E94DB0FC6CFA7
:10154000789484B5826084BD84B5816084BD85B59E
:10155000826085BD85B5816085BD80916E008160AA
:1015600080936E0010928100809181008260809350
:101570008100809181008160809381008091800052
:101580008160809380008091B10084608093B1007D
:101590008091B00081608093B00080919100826062
:1015A000809391008091910081608093910080915F
:1015B00090008160809390008091A1008260809370
:1015C000A1008091A10081608093A1008091A00082
:1015D00081608093A000809121018260809321012D
:1015E000809121018160809321018091200181609F
:1015F0008093200180917A00846080937A008091AA
:101600007A00826080937A0080917A008160809372
:101610007A0080917A00806880937A001092C100ED
:1016200088E194E00E9497018BE793E00E94970184
:101630008EED92E00E94970188EC90E00E942107D5
:10164000C6E4D2E0888122960E94780122E0C0366A
:10165000D207C1F782E00E94D00568E372E086E01D
:101660000E94820660E372E082E00E94820668E2E5
:1016700072E083E00E94820660E272E084E00E94F1
:10168000820668E172E085E00E94820660E172E015
:1016900087E00E94820668E072E088E00E9482068D
:1016A00060E072E089E00E9482060E949F036093DE
:1016B000D9027093DA028093DB029093DC022091CE
:1016C000F3043091F404032E000C440B550BC12C91
:1016D00067E8D62E63E9E62E63E0F62EC701B60171
:1016E0000E94910D7AE0872E912CA12CB12CCA0179
:1016F000B901A50194010E94910D2093EF0430934C
:10170000F0044093F1045093F2042091D9043091F5
:10171000DA04032E000C440B550BC701B6010E94DE
:10172000910DCA01B901A50194010E94910D209368
:10173000D5043093D6044093D7045093D8048EED4B
:1017400092E00E943502181619069CF48EED92E084
:101750000E9413028093DD02813409F085C161E0AB
:1017600080E30E94EE026EEB7FEF8DEE94E00E942C
:10177000A3040E949F03AB01BC018091D50290910C
:10178000D602A091D702B091D80288579C4EAF4F95
:10179000BF4F84179507A607B707F0F40E949F0371
:1017A0006093D5027093D6028093D7029093D802AB
:1017B00060E080E00E946D0680E892E00E949F0653
:1017C00061E080E00E946D068AE892E00E949F0638
:1017D00081E090E00E94B1060E949F03AB01BC0132
:1017E0008091D1029091D202A091D302B091D40203
:1017F000885A944EAF4FBF4F84179507A607B70777
:1018000000F50E949F036093D1027093D2028093EF
:10181000D3029093D4020E94C80560E080E00E9449
:101820006D0680E892E00E949F0661E080E00E94E1
:101830006D0688E992E00E949F0688E090E00E9491
:10184000B1060E949F03AB01BC018091CD02909133
:10185000CE02A091CF02B091D0028850954DAF4FEB
:10186000BF4F84179507A607B70700F50E949F038F
:101870006093CD027093CE028093CF029093D002FA
:101880000E94C80560E080E00E946D0680E892E05A
:101890000E949F0661E080E00E946D0683EA92E06C
:1018A0000E949F0688E090E00E94B1060E949F037C
:1018B000AB01BC018091C9029091CA02A091CB02F8
:1018C000B091CC028856954CAF4FBF4F8417950707
:1018D000A607B70708F0C5C00E949F036093C9021E
:1018E0007093CA028093CB029093CC02C1E0FF2494
:1018F000FA94FC0E61E08C2F0E946D0680EB92E062
:101900000E949F06D1E0DC0F61E08D2F0E946D06E2
:1019100064E085EB94E00E947C0682E0E82EEC0E09
:1019200061E08E2D0E946D0682EB92E00E949F0680
:1019300013E01C0F61E0812F0E946D0664E085EBCF
:1019400094E00E947C0661E084E08C0F0E946D06AA
:1019500084EB92E00E949F0660E08D2F0E946D064E
:1019600086EB92E00E949F0660E08E2D0E946D063D
:1019700068E085EB94E00E947C0660E0812F0E9485
:101980006D0669E085EB94E00E947C0616E01C0F72
:1019900061E0812F0E946D0663E085EB94E00E9478
:1019A0007C0660E0812F0E946D0663E085EB94E089
:1019B0000E947C0660E08FE00E946D0662E085EB8D
:1019C00094E00E947C0661E08FE00E946D0662E078
:1019D00085EB94E00E947C0660E086EF8C0F0E940D
:1019E0006D0688EB92E00E949F0661E08F2D0E94B9
:1019F0006D0663E085EB94E00E947C0660E08F2D2D
:101A00000E946D0663E085EB94E00E947C060E94D4
:101A10007A034B015C0194E6C92ED12CE12CF12C08
:101A20000E947A03681979098A099B09683E734004
:101A300081059105A8F381E0C81AD108E108F108F1
:101A400028EE820E23E0921EA11CB11CC114D10409
:101A5000E104F10429F70E94C805CD2FD93109F01E
:101A600046CF0E948B076BCE823439F460E080E36E
:101A70000E94EE0262E470E078CE843449F461E0C2
:101A800081E30E94EE026EEB7FEF83ED94E06FCE78
:101A9000853409F06ECE60E081E30E94EE0262E4DC
:101AA00070E0F3CF8091CD049091CE04009711F0B7
:101AB0000C94680E089597FB072E16F4009407D037
:101AC00077FD09D00E94B80D07FC05D03EF4909533
:101AD00081959F4F0895709561957F4F0895A1E27C
:101AE0001A2EAA1BBB1BFD010DC0AA1FBB1FEE1F98
:101AF000FF1FA217B307E407F50720F0A21BB30BE3
:101B0000E40BF50B661F771F881F991F1A9469F75E
:101B100060957095809590959B01AC01BD01CF01BA
:101B20000895052E97FB1EF400940E94A80D57FD02
:101B300007D00E946F0D07FC03D04EF40C94A80D43
:101B400050954095309521953F4F4F4F5F4F0895E9
:101B500090958095709561957F4F8F4F9F4F089519
:101B6000EE0FFF1F881F8BBF0790F691E02D199491
:101B7000AA1BBB1B51E107C0AA1FBB1FA617B707B3
:101B800010F0A61BB70B881F991F5A95A9F78095CF
:101B90009095BC01CD0108950F931F93CF93DF93D0
:101BA0008230910510F482E090E0E0910905F09117
:101BB0000A0530E020E0B0E0A0E0309799F421156C
:101BC000310509F44AC0281B390B24303105D8F5FA
:101BD0008A819B816115710589F1FB019383828361
:101BE000FE0111C0408151810281138148175907BC
:101BF000E0F04817590799F4109761F012960C938A
:101C0000129713961C933296CF01DF91CF911F91BB
:101C10000F9108950093090510930A05F4CF21153B
:101C2000310551F04217530738F0A901DB019A0141
:101C3000BD01DF01F801C1CFEF01F9CF90930A0593
:101C400080930905CDCFFE01E20FF31F819391939D
:101C50002250310939832883D7CF2091070530914D
:101C60000805232B41F42091420230914302309326
:101C7000080520930705209140023091410221156B
:101C8000310541F42DB73EB74091440250914502D1
:101C9000241B350BE0910705F0910805E217F307C7
:101CA000A0F42E1B3F0B2817390778F0AC014E5FCC
:101CB0005F4F2417350748F04E0F5F1F50930805FC
:101CC00040930705819391939FCFF0E0E0E09CCF94
:101CD000CF93DF930097E9F0FC01329713821282D1
:101CE000A0910905B0910A05ED0130E020E01097C0
:101CF000A1F420813181820F931F2091070530913B
:101D000008052817390709F061C0F0930805E0932A
:101D10000705DF91CF910895EA01CE17DF07E8F5B7
:101D20004A815B819E0141155105B1F7E901FB83B1
:101D3000EA8349915991C40FD51FEC17FD0761F44F
:101D4000808191810296840F951FE9019983888390
:101D5000828193819B838A83F0E0E0E012968D91EB
:101D60009C9113970097B9F52D913C911197CD0156
:101D70000296820F931F20910705309108052817BE
:101D8000390739F6309751F510920A051092090576
:101D9000B0930805A0930705BCCFD383C2834081CD
:101DA0005181840F951FC817D90761F44E5F5F4FAB
:101DB00088819981480F591F518340838A819B8173
:101DC000938382832115310509F0B0CFF0930A0582
:101DD000E09309059ECFFD01DC01C0CF1382128282
:101DE000D7CF4F925F926F927F928F929F92AF92D6
:101DF000BF92CF92DF92EF92FF920F931F93CF93F8
:101E0000DF938C01009799F4CB01DF91CF911F9163
:101E10000F91FF90EF90DF90CF90BF90AF909F9089
:101E20008F907F906F905F904F900C94CC0DFC0141
:101E3000E60FF71F9C0122503109E217F30708F45F
:101E4000AEC0D901CD91DC911197C617D70720F10B
:101E5000C530D10578F0CE0104978617970750F06A
:101E6000C61BD70B2297C193D1936D937C93CF015F
:101E70000E94680EC801DF91CF911F910F91FF90D2
:101E8000EF90DF90CF90BF90AF909F908F907F901A
:101E90006F905F904F9008955B01AC1ABD0A4C01A2
:101EA0008C0E9D1EA0910905B0910A05512C412C64
:101EB000F12CE12C109731F58091070590910805E0
:101EC0008815990509F05CC04616570608F058C0F9
:101ED0008091400290914102009741F48DB79EB7E6
:101EE0004091440250914502841B950BE817F90775
:101EF00008F055C0F0930805E0930705F9017183D8
:101F00006083B8CF8D919C91119712966C90129727
:101F100013967C901397A815B90559F56C0142E00A
:101F2000C40ED11CCA14DB0420F1AC014A195B09B0
:101F3000DA011296159780F0628273825183408392
:101F4000D9016D937C93E114F10471F0D7011396DC
:101F5000FC93EE9312978ECF22968C0F9D1FF90162
:101F600091838083F301EFCFF0930A05E093090595
:101F700081CF4816590608F42C017D01D3019ACF70
:101F8000CB010E94CC0D7C01009749F0AE01B80155
:101F90000E94D20FC8010E94680E87016BCF10E02B
:101FA00000E068CFFB01DC0102C001900D924150BE
:101FB0005040D8F70895FB01DC0101900D920020FC
:101FC000E1F7089511E0C4E4D1E000E006C0802FFD
:101FD000FE010E94B00D2196011DC534D10780E09D
:081FE0000807A9F7F894FFCFF0
:101FE800181E06030F0F0F0F1F1F00001F1F1F00D3
:101FF8001F1F00001F1F1F001F1F0303031F1F00B9
:1020080000000E1F1B1F0E0004061F1F0604000001
:10201800040E1F0E0E0E00000010180C060301001F
:1020280000000B058000280029002A002B002C0046
:102038002D002E002F003000310032003300340014
:102048003500000000008102BE010402CE02350204
:1020580013022702000000007C06BE01AC03AB039C
:102068005041525155454F532000444953504F4E0B
:1020780049424C45533A20003043555041444F5350
:102088003A200052455345525641444F533A200096
:102098005B005F005D002F004156414E4345000044
:00000001FF
